:020000040802F0
:100000007062002049E6020851E6020853E6020841
:1000100055E6020857E6020859E60208000000000B
:100020000000000000000000000000005BE6020885
:100030005DE60208000000005FE6020861E60208D3
:1000400063E6020863E6020863E6020863E6020864
:1000500063E6020863E6020863E6020863E6020854
:1000600063E6020863E6020863E6020863E6020844
:1000700063E6020863E6020863E6020863E6020834
:1000800063E6020863E6020863E6020863E6020824
:1000900063E6020863E6020863E60208E52D02084B
:1000A00063E6020863E6020863E6020863E6020804
:1000B00063E6020863E6020863E6020863E60208F4
:1000C00063E6020863E6020863E6020863E60208E4
:1000D00063E6020863E6020863E6020863E60208D4
:1000E00063E6020863E6020863E6020863E60208C4
:1000F00063E60208852E020863E6020863E602084A
:1001000063E6020863E6020863E6020863E60208A3
:1001100063E6020863E6020863E6020863E6020893
:1001200063E6020863E6020863E6020863E6020883
:1001300063E6020863E6020863E6020863E6020873
:1001400063E6020863E6020863E6020863E6020863
:1001500063E6020863E602083F2F0208072F020841
:1001600063E6020863E6020863E6020863E6020843
:1001700063E6020863E6020863E6020863E6020833
:1001800063E6020863E6020800F002F800F05EF899
:100190000AA090E8000C82448344AAF10107DA45E2
:1001A00001D100F053F8AFF2090EBAE80F0013F0D6
:1001B000010F18BFFB1A43F0010318472CFA050082
:1001C0004CFA0500103A24BF78C878C1FAD8520713
:1001D00024BF30C830C144BF04680C6070470000C1
:1001E0000023002400250026103A28BF78C1FBD840
:1001F000520728BF30C148BF0B60704766290FF017
:10020000E28564290CF0C48775290CF0C187782930
:100210000CF0FA8763290DF00E8573290DF0138514
:10022000002070471FB50FF0C4FD0DF05DFE040007
:10023000002000210FF02EFB401C606000200021F8
:100240000FF03EFBE0601FBD10B510BD0DF07EFF4E
:100250001146FFF7E7FF00F008F80EF0EFF903B4DE
:10026000FFF7F2FF03BC0EF07DFD10B504F002F8BD
:10027000002818BF4FF0FF3010BD000010B500F08F
:100280004FFA28B10CA00CF00BFF4FF0FF3010BD5F
:1002900010A00CF005FF002010BD10B500F04FFAC3
:1002A00028B114A00CF0FCFE4FF0FF3010BD18A0D8
:1002B0000CF0F6FE002010BD557365722061707061
:1002C00020637265617465206661696C6564210DE7
:1002D0000A000000557365722061707020637265BA
:1002E000617465207375636365737366756C6C798F
:1002F000210D0A00557365722061707020696E6966
:100300007469616C206661696C6564210D0A000086
:10031000557365722061707020696E697469616CD3
:10032000207375636365737366756C6C79210D0A50
:1003300000000000EE4908707047ED490028086889
:1003400014BF40F4807020F4807008607047E84962
:100350000028086814BF40F4007020F400700860A2
:100360007047E3490028086814BF40F4806020F417
:10037000806008607047DE48016841F400610160F8
:100380007047DB48016841F4805101607047D948EB
:10039000006810F0004F08BF7047D749D748016088
:1003A000D74901607047D348016841F000410160BE
:1003B0007047D44908200A6812F4803F1CBF01200E
:1003C00070470A6812F0100F1CBF052070470A68BA
:1003D00012F0EF0F1CBF06207047096811F0020FE2
:1003E00018BF072070470820C6490A6812F4803FEA
:1003F00009D00A68082012F4803FFAD10A6812F086
:10040000100F04D112E00A6812F0100F01D005207D
:1004100070470A6812F0EF0F01D006207047096894
:1004200011F0020F08BF7047072070470A6812F0EA
:10043000EF0FF2D1096811F0020FF5D1704710B536
:1004400004464FF0000C51B1012908BF4FF4807CE5
:1004500005D002290CBF4FF4007C4FF4407CFFF71D
:10046000C2FF082818BF10BDA24B186820F44070C6
:100470001860186840EA0C001860186820F0F8004E
:100480001860186844F0020108431860186840F4C6
:1004900080301860FFF7A7FF196821F0020119608A
:1004A000196821F0F801196010BD00B503464FF03E
:1004B000000CFFF798FF53B1012B08BF4FF4807C6D
:1004C00005D0022B0CBF4FF4007C4FF4407C082871
:1004D00018BF00BD874B186820F44070186018687A
:1004E00040EA0C001860186840F0040018601868B2
:1004F00040F480301860FFF776FF196821F004019E
:10050000196000BD30B514460546FFF76CFF08289A
:1005100018BF30BDDFF8DCC1DCF8000020F440700B
:10052000CCF80000DCF8000040F44070CCF800008B
:10053000DCF8000040F00100CCF800002C606B609B
:10054000FFF751FFDCF8001021F00101CCF800109A
:1005500030BD10B58C460446FFF745FF082818BF8C
:1005600010BD644B186820F440701860186840F49F
:1005700000701860186840F001001860C4F800C0EE
:10058000FFF731FF196821F00101196010BD10B5A6
:100590008C460446FFF727FF082818BF10BD554BAF
:1005A000186820F440701860186840F48070186073
:1005B000186840F001001860A4F800C0FFF713FFAE
:1005C000196821F00101196010BD10B50C46844670
:1005D000FFF709FF082818BF10BD464B186820F424
:1005E0004070186018681860186840F001001860C2
:1005F0008CF80040FFF7F7FE196821F0010119603F
:1006000010BD4148006810F0010F08BF70473F4916
:100610003F4801603F49016070473B48016841F035
:1006200001010160704700B58C460346FFF7DBFE11
:10063000082818BF00BD384ABCF1000F108814BF4D
:1006400098431843108000BD00B50346FFF7CBFE6A
:10065000082804BF3148037000BD134610B58C460E
:100660000446FFF7C0FE082818BF10BD26480178D1
:1006700001F00F014CEA010119432143017010BD43
:1006800021490A7822F00C020A700A781043087097
:1006900070471D48017841F002010170A3E61A4835
:1006A0000068C0F3471070471B48008870471B491B
:1006B00000200978AA2918BF012070471248007845
:1006C00000F00C0070470B4A0029116814BF084362
:1006D00021EA0000106070470A4A014600201268B3
:1006E0000A4218BF012070470649086070470000A1
:1006F000003C0240103C024023016745043C02409C
:10070000AB89EFCD0C3C0240143C02403B2A190857
:10071000083C02407F6E5D4C163C0240153C024096
:1007200010B502F08AFF28B12AA00CF0B9FC4FF0F6
:10073000FF3010BD2DA00CF0B3FC002010BD10B593
:1007400003F039FA28B130A00CF0AAFC4FF0FF30CA
:1007500010BD33A00CF0A4FC002010BD38490122CC
:10076000487832EA00004870364A4FF400710CBFF6
:100770001183518370473448017841F08001017042
:10078000FEE710B503F0AAFC28B130A00CF088FCFD
:100790004FF0FF3010BD2A4901200870002010BD25
:1007A0007047274810B5017800291CBF002101704F
:1007B00002F0FCFBBDE8104000F058B8012807D05B
:1007C000022808BF7047032818BF704700F09EB981
:1007D00002F0BEBC5561727420637265617465205D
:1007E0006661696C6564210D0A00000055617274D0
:1007F00020637265617465207375636365737366E6
:10080000756C6C79210D0A005561727420696E69EE
:100810007469616C206661696C6564210D0A000071
:100820005561727420696E697469616C20737563B7
:100830006365737366756C6C79210D0A00000000A6
:100840000000002000200240140000205561727456
:100850002073657474696E67732068616E646C657B
:10086000206572726F72210D0A0000002DE9F001FF
:10087000FE480078FE4F10F0020F4FF004064FF0D4
:100880000204A7F102054FF000021CBF3C802E803D
:1008900016D0F8484168B1F5FA7F3FBF491C416066
:1008A000BDE8F0017047F4490B78002B1CBFBDE890
:1008B000F0017047426003200870BDE8F001704706
:1008C000EE48DFF8C0C301684B1CED4903609CF89B
:1008D0000AC091F80A80EC49B8F1010F06D0BCF1CA
:1008E000010F18BF3E800BD02C80D2E7BCF1010F66
:1008F00003D0B3F57A7FF7D905E0642BF4D902E091
:10090000B3F57A6FF0D90B6883F004030B600260D3
:10091000EAE7002912BF002A002070472DE9F04FB6
:10092000C0F3CF0600F007070844401EC0F3CF0411
:1009300085B09246984600F00705A64256D10020A1
:10094000E91B4A1C8DF80000002A1DDD11F0010F83
:1009500004D18020F8408DF800000120511018BF0C
:10096000802211D007EB000C22FA0CF39DF8004016
:100970000CF1010C22FA0CFC23434CEA0303801C0B
:100980008DF80030491EEDD13246012168460E9B9C
:1009900004F032F8BAF1010F7DD90AEB8A0006EBB8
:1009A000C000283882B2012168460E9B04F024F86A
:1009B000B8F1000F06D1802020FA07F1E840084383
:1009C0008DF800000124AAF10105012D63DD00BFAF
:1009D00004EB840006EBC00082B2012168460E9B46
:1009E00004F00AF8641CA542F2DC8BE04FF0FF092A
:1009F00029FA07F08DF80400C5F10700039009FA01
:100A000000F08DF808003246012101A80E9B03F08A
:100A1000F3FF751CAC420ADD8DF80090AAB20121EB
:100A200068460E9B03F0E8FF6D1CAC42F4DC00232B
:100A30002246012102A803F0DFFFBAF1010F61D9BC
:100A40000AEB8A0B06EBCB00283882B2012101A801
:100A50000E9B03F0D1FF751CA5420DDA05EBCB0010
:100A6000283882B28DF80090012168460E9B03F071
:100A7000C3FF6D1CA542F1DB04EBCB00283882B22A
:100A8000012102A80E9B03F0B7FFB8F1000F0BD1B4
:100A90008020F84000E035E08DF804000398012143
:100AA00001FA00F08DF808000127AAF1010BBBF153
:100AB000010F27DD07EB870A06EBCA0082B201218E
:100AC00001A80E9B03F098FFB8F1000F0FD0751C22
:100AD0008DF80090AC420ADD05EBCA0082B201211C
:100AE00068460E9B03F088FF6D1CAC42F4DC04EBFF
:100AF000CA0082B2012102A80E9B03F07DFF7F1C79
:100B00005F45D7DB05B00020BDE8F08F70B5594DCB
:100B100001260024287892B0002877D103F006FD42
:100B20002E7001234B22072141F279600094FFF7D8
:100B3000F0FE00234B22072147F2F9200094FFF733
:100B4000E8FE00234B2207214CF679700094FFF752
:100B5000E0FE0123DF2202214FF4AA500094FFF7A8
:100B6000D8FE0123DF22194641F26B500094FFF7B3
:100B7000D0FE0123DF22194641F2A3500094FFF773
:100B8000C8FE0123DF22194641F203600094FFF7FB
:100B9000C0FE0123DF22194641F24B600094FFF7AB
:100BA000B8FE0123DF22022141F276600094FFF7B4
:100BB000B0FE01231A464FF49C714FF4AA500094E2
:100BC000FFF7A7FE01231A464FF49C714FF42A50F9
:100BD0000094FFF79EFE01231A464FF49C714FF4D8
:100BE0002F500094FFF795FE28A2292105A80CF0AC
:100BF00063FA31484FF001024FF0000100780128FC
:100C000005A871D003F0C9FD7F2300E00AE02BA204
:100C1000292105A80CF050FA00224FF4347105A8E0
:100C200003F0BBFDA86814283ABF401CA860AC6064
:100C3000E86804283CBF401CE86059D3EC60687841
:100C400036EA0000687009D00D48817A0D48012904
:100C5000807A74D0012808BF2D2000D020208DF884
:100C6000140001228DF8154011463EE014000020CA
:100C70001A0802400400002040000020EC00002080
:100C80004C010020FC0000201408024020202020FD
:100C9000202020202020323030302D30312D3031B6
:100CA0002030303A30303A303020202020202020B0
:100CB0002020202000000000340000202020414E91
:100CC000542053454E534F522020202020205420A2
:100CD0002028256329202020512028644229202013
:100CE00053542020000000002AE005A803F055FD21
:100CF000072210A91F2003F095FE9DF840009DF8E3
:100D0000422000F07F009DF841109DF84330CDE96E
:100D1000031002F07F02CDE901329DF844000090FB
:100D20009DF8463010A2292105A80CF0C5F9012232
:100D30000C2105A803F031FD12B0002070BD0EE0BB
:100D400003F02BFD7F2310A2292105A80CF0B4F994
:100D500000224FF4347105A803F01FFD62E701285B
:100D60000CBF2A202B207AE7253032582D2530322F
:100D7000582D2530325820253032583A25303258F7
:100D80003A2530325800000020CCECCFDF20B4AB45
:100D9000B8D0C6F720202020CEC2B6C820282563B0
:100DA0002920C7BFB6C82864422920D7B4CCAC20BC
:100DB00000000000704770B50546808C002808BF11
:100DC00070BD0BA00CF06CF9A88C0024002808D989
:100DD000A86A015D08A00CF063F9A88C641CA0420D
:100DE000F6D8BDE8704006A00CF05AB90020704754
:100DF00052583A0D0A0000002530325820000000F9
:100E00000D0A000070B5FC490024D1E905C1BCF110
:100E1000000F05D01CF0030F02D111F0030F04D016
:100E2000F6480CF03DF9204670BD614504D8F44801
:100E30000CF036F9204670BDC01C20F0030561455A
:100E400088BF2E1D0AD900BFDCF8000010F0030F88
:100E500018BF20F0030C03D08C45F5D3204670BD9D
:100E6000884206D2026812F0030F02D110468A426D
:100E7000F8D3A0EB0C02121FB2420AD90CEB050109
:100E800041F8040F41F00100CCF800000CF104001F
:100E900070BDAA42BCBFCCF800008446DCDB40F049
:100EA0000100CCF800000CF1040070BDD24A042906
:100EB00006D311F0030F03D110B110F0030F03D0CC
:100EC00000205061401E70470144C2E905010160E5
:100ED0000020704745F65A2110B58806C64C01809F
:100EE000C8494AF2A5500880C7490880C7494FF051
:100EF000D040C4E9050101604FF48060FFF782FF34
:100F0000A06000281CBF002010BDC1A00CF0C8F8D4
:100F10004FF0FF3010BD70B5030012D01046002214
:100F20000029CCBFC54C70BD00F0FF0C9D5C521C6D
:100F30008CEA050C914234F81CC08CEA1020F3DCDA
:100F400070BDBFA00CF0ACF84FF6FF7070BD4FF055
:100F50008040406A70474FF08041496ABE4B0A1A90
:100F600019460020E2FB031080097047401A7047C1
:100F70004FF080414A6A0A30542358434FF47A7341
:100F8000B0FBF3F003282CBFC01E70474B6A9B1ABE
:100F90009842FBD870474FF080414A6AC0EBC000CE
:100FA00000EB40004B6A9B1AB3EB800FFAD37047FB
:100FB00070B5051E4FF0000498BF70BD4FF47A70F5
:100FC000FFF7E9FF641CA542F8D870BD70B5051E97
:100FD0004FF000048CBFA14E70BD3046FFF7DBFF21
:100FE000641CAC42F9D370BD0021002898BF704743
:100FF00000BF491C8842FBD870472DE9F0417E4A6A
:1010000041430026D2E905522DB115F0030F02D15C
:1010100012F0030F04D079480CF042F835463CE05A
:10102000AA4204D876480CF03BF8354635E0C81C97
:1010300020F00303AA4288BF03F1040C08D92C68EE
:1010400014F0030F18BF24F0030503D09542F6D324
:10105000354622E0944206D2206810F0030F02D1F8
:1010600004469042F8D3601B001F604507D9E8187A
:1010700040F8044F40F0010045F8040B08E09842A6
:10108000BCBF2C602546E1DB44F0010045F8040BB1
:10109000002D1CBF28460CF09AFA2846BDE8F081C6
:1010A0005549D1E90523010006D011F0030F03D102
:1010B000914228BF8B4202D869480BF0F1BF51F82A
:1010C000040D20F00300834206D9026812F0030FDA
:1010D00002D110469A42F8D3086070472DE9FF4FBD
:1010E00081B010AFDDE91412B7E87004DDE90E89B4
:1010F0000198002818BF002914D0B8F1000F1CBFB8
:10110000039800280ED0002C18BF002E0AD0029899
:1011100010B1B0F1004F0DD9014652A00BF0C0FF45
:1011200000F031B946A00BF0BBFF05B04FF0FF3027
:10113000BDE8F08F2068284320600868904308606D
:10114000464F01E07F1E18D003980068049B1842A8
:10115000F8D1D8F8000010EA090FF3D1086810435D
:10116000086042F21070FFF73FFF0398016804988F
:10117000014208BF48480FD109E048A00BF090FF9A
:1011800005B04FF0FF30BDE8F08F401E32D003991C
:101190000A6804990A42F8D042F21070FFF724FF5F
:1011A000002000900298002825D900BFDDE9000149
:1011B000002711F800B00120FFF716FF2068A843B0
:1011C0002060C7F107002BFA00F010F0010F306823
:1011D00014BF40EA0A0020EA0A0030600120FFF74D
:1011E00003FF206828432060D8F8000010EA090FA8
:1011F0007CD172E069E080E018000020B4020308AE
:10120000F802030800000468000008680000106885
:101210006275666665725F7075626C6963204D61A8
:101220006C6C6F634C6F7753706565644D656D20B2
:101230006661696C65640D0A00000000A80003087F
:1012400066756E6374696F6E20656E74726965731E
:10125000206572726F720000C3300CC340420F00F1
:1012600044030308667067615F70726F6772616D37
:101270005F6C656E74683D2575206578636565648F
:101280002073636F70652028302C30783830303010
:1012900030303030755D21003F420F00667067616D
:1012A00020494E49545F42206F7220444F4E4520E2
:1012B0006C6F7720646574656374206F76657274F3
:1012C000696D65210000000010E0FEA00BF0E8FE53
:1012D00005B04FF0FF30BDE8F08F03980168049827
:1012E000014215D07F1C082FFFF465AF00980299CA
:1012F000401C00908842FFF459AF306840EA0A0071
:101300003060F84ED8F8000010EA090F06D01DE052
:101310003A46F5A000990BF0C3FE34E0039801684B
:10132000049801422DD00120FFF75EFE2068A843FB
:1013300020600120FFF758FE206828432060761EB9
:1013400026D0D8F8000010EA090FE7D000990298DB
:10135000401AC700102F38BF102700260120FFF7C2
:1013600043FE2068A84320600120FFF73DFE20686F
:1013700028432060761CBE42F0D305B00020BDE8B3
:10138000F08FE7A005E005B04FF0FF30BDE8F08F2B
:10139000EDA00BF085FEF6E770B5FFF7D8FDF24C37
:1013A000F24DE168401AA8420DD32068401C20602D
:1013B00001F5A03000F50260E060FFF7C8FDE168CC
:1013C000401AA842F1D221682069091AB1F57A7F42
:1013D0000AD36168491C6160216800F57A70091AB6
:1013E000B1F57A7FF5D220612068B0F5FA6F38BF89
:1013F00070BD0120DE49087070BD2DE9F041002B61
:1014000018BF002A22D015680026002D02BF1E70CA
:101410000846BDE8F08108464FF0000C6F1E644698
:10142000002F0CDD10F80C500A2D18BF03F80C50DB
:1014300012D000BF0CF1010C641CBC45F2DB03F8B8
:101440000C602044C2F800C0BDE8F081C9A00BF0D8
:1014500027FE0020BDE8F081BCF1000F13DD03EB97
:101460000C0515F8015C0D2D04D1ACF1010CBCF19B
:10147000000F08DD03EB0C0515F8015C5C2D08BFBF
:10148000ACF1010CD6D0641CD9E710B5FFF743FDD1
:1014900010BD2DE9FF4FC9B01E46DDE95605499A3A
:1014A000DDF86091002A1CBF1768002F40D000298A
:1014B0001CBF4B9A002A3BD0002E1CBF0028002DD9
:1014C00036D0B9F1000F3BD04190002088464490BF
:1014D0004090B94240F22082DFF88CA209F001006E
:1014E000CDF81C01A8EB0700401C4390B0F5806FBD
:1014F00084BF4FF480604390306843AA401C306042
:1015000039460120DAF80830FFF777FF070018BFE7
:10151000DAF808001CD00178202914BF0929401CE2
:10152000F9D011F0FF0F00F0F4812F2915D018E049
:1015300096A00BF0B5FD4DB04FF0FF30BDE8F08F39
:1015400099A00BF0ADFD4DB04FF0FF30BDE8F08F2E
:101550009AA031680BF0A4FD23E041782F2900F018
:10156000D8814FF48072694606F0A2FF4290684627
:101570004B990CF079F80028419809D041684098BF
:10158000814219DC41983168426895A000F0C7B9E2
:1015900043684098834209D002469EA031680BF010
:1015A0007FFD4DB04FF0FF30BDE8F08F49980760E8
:1015B0004DB00020BDE8F08F0024B9F1000FCABF84
:1015C000DDF81CB14FF0000BBBF1000F0BDD00BFCD
:1015D00004EB440055F8201068460CF045F8B8B10B
:1015E000641CA345F4DC5C46CB4511DA04EB440BE8
:1015F000684655F82B100CF037F848B105EB8B0016
:10160000C16868460CF030F848B1A41CA145EDDC77
:101610004C4506D16A468AA0316800F080B9641C46
:10162000F6E741984FF480736A460168409800EBF2
:10163000400001EBC00B4098401C409004EB44007C
:1016400005EB8000CBF8000088480178884850F806
:101650002100429906F093FF38B18448017884480C
:1016600050F8212083A0316859E168460BF009FF4A
:10167000401CFFF7C7FB040021D068460BF001FFB8
:10168000421C694620460BF0C4FF6846CBF8104068
:101690000BF0F7FE401CFFF7B5FB040010D06846C6
:1016A0000BF0EFFE401C469068460BF0EAFE014648
:1016B00022466846469B06F0C4FC0028F2E0F5E0AE
:1016C000F7E00000494E49545F422068696768208E
:1016D000646574656374206F76657274696D6521E5
:1016E0000000000040420F0046706761206279747C
:1016F000655B25755D206269745B25755D20646F8F
:10170000776E6C6F6164206572726F722C20494E27
:1017100049545F4220676F746F206C6F772100001F
:101720004670676120646F776E6C6F6164206572CC
:10173000726F722C20494E49545F4220676F746F5C
:10174000206C6F7721000000465047415F444F4EA8
:1017500045206869676820646574656374206F76E6
:10176000657274696D652100180000202048010031
:101770003C00002066756E6374696F6E20656E7440
:10178000727973206572726F7221000066756E63E4
:1017900074696F6E20656E74727973206572726FF2
:1017A00072210D0A000000004E6F207369676E61A0
:1017B0006C20646566696E65210D0A0044657620BB
:1017C0006366672072656164206C696E652065726E
:1017D000726F7221206C696E653A25640D0A0000F3
:1017E000446576436667204C25643A736563746983
:1017F0006F6E206974656D206E756D2077696C6CF5
:101800002067726561746572207468616E2025645A
:101810000D0A0000446576436667204C25643A73E0
:10182000656374696F6E206974656D206E756D20D7
:101830006572726F72202564213D25640D0A0000D7
:10184000446576436667204C25643A7369676E6128
:101850006C5F646566696E65202225732220666967
:101860006E64206661696C65640D0A0034000020B6
:10187000B4000020446576436667204C25643A67CF
:101880006574206B6579776F72642022257322203E
:10189000636F6E74656E74206661696C6564210D9A
:1018A0000A0000000ADAE2A0316804E0ED4831687D
:1018B00001E0EDA031680BF0F3FB72E6CBF80C40D1
:1018C0004FF480736A46F7A0429906F058FE48BB71
:1018D0009DF8000030B368460BF0D3FD401CFFF7C5
:1018E00091FA0400E2D068460BF0CBFD421C694639
:1018F00020460BF08EFECBF8144045AB0622EBA041
:10190000429903F0AAFD002814BF00204598CBF8A7
:101910000800B8453FF6E6ADE7A0449A4B990BF0B6
:10192000BFFB3EE60020CBF81400E6E72DE9FF4FB1
:10193000C9B01E46DDE95605499ADDF86091002AD6
:101940001CBF1768002F3FD000291CBF4B9A002AEC
:101950003AD0002E1CBF0028002D35D0B9F1000F61
:101960003BD041900020884644904090B94240F2DC
:101970004A81DFF87CA309F001004790A8EB07003B
:10198000401C4390B0F5806F84BF4FF4806043905B
:10199000306843AA401C306039460120DAF808302C
:1019A000FFF72BFD070018BFDAF808001ED00178FA
:1019B000202914BF0929401CF9D011F0FF0F00F0B5
:1019C0001F812F2918D01BE0AFF240200BF068FBDD
:1019D0004DB04FF0FF30BDE8F08FAFF234200BF088
:1019E0005FFB4DB04FF0FF30BDE8F08FAFF2342019
:1019F00031680BF055FB25E041782F2900F000817C
:101A00004FF48072694606F053FD429068464B9948
:101A10000BF02AFE002841980AD041684098814284
:101A20001BDC41984268AFF24820316800F0EEB804
:101A30004368409883420AD00246AFF228203168BA
:101A40000BF02EFB4DB04FF0FF30BDE8F08F499802
:101A500007604DB00020BDE8F08F0024B9F1000F01
:101A6000CABFDDF81CB14FF0000BBBF1000F0ADD5F
:101A700004EB440055F8201068460BF0F5FDB8B1B2
:101A8000641CA345F4DC5C46CB4511DA04EB440B43
:101A9000684655F82B100BF0E7FD48B105EB8B00BD
:101AA000C16868460BF0E0FD50B1A41CA145EDDC17
:101AB0004C4507D16A46AFF27820316800F0A6B8ED
:101AC000641CF5E741984FF480736A4601684098BA
:101AD000C0EBC00001EB800B4098401C409004EB31
:101AE000440005EB8000CBF8000082480178824872
:101AF00050F82100429906F042FD40B17D4801783E
:101B00007D4850F82120AFF2942031687EE068468D
:101B10000BF0B7FC401CFFF775F9040057D068467E
:101B20000BF0AFFC421C694620460BF072FD684684
:101B3000CBF814400BF0A5FC401CFFF763F9040040
:101B400012D068460BF09DFC401C469068460BF096
:101B500098FC014622466846469B06F072FA002829
:101B600005DA66A031682BE071A0316828E0CBF877
:101B700010404FF480736A464AA0429906F0FFFC79
:101B800008BB9DF80000F0B168460BF07AFC401CE1
:101B9000FFF738F904001AD068460BF072FC421CBB
:101BA000694620460BF035FDCBF818404FF48073A2
:101BB0006A466EA0429906F0E2FC58B16DA0316809
:101BC0000BF06EFA3EE70020CBF81800EEE7754800
:101BD0003168F5E7042269460BF108000BF019FDA6
:101BE00000248BF80C4045AB062230A0429903F04C
:101BF00034FC002812BFCBF804404598CBF8040011
:101C0000B8453FF6BBAE2CA0449A4B990BF048FA6E
:101C100018E72DE9F04FADF5137D63480390C178C7
:101C2000812904D061A00BF03BFA00F097BFCBE014
:101C3000446576436667204C25643A705F73696734
:101C40006E616C5F62696E6172792D3E646573636B
:101C500020656E636F64696E67206661696C656498
:101C60000D0A0000E4030308446576436667204CD0
:101C700025643A705F7369676E616C5F62696E615B
:101C800072792D3E64657363204D616C6C6F634C9B
:101C90006F7753706565644D656D206661696C652D
:101CA000640D0A0072656D61726B0000696E766981
:101CB0007369626C65000000706172736520222593
:101CC00073222073656374696F6E206661696C6549
:101CD000642C2073656374696F6E5F7061727365E5
:101CE0005F7374617475733D25640D0A0000000014
:101CF0001800002034000020B40000204465764322
:101D00006667204C25643A705F7369676E616C5F2B
:101D1000616E616C6F672D3E6465736320656E63F1
:101D20006F64696E67206661696C65640D0A000006
:101D3000446576436667204C25643A705F73696733
:101D40006E616C5F616E616C6F672D3E646573637D
:101D5000204D616C6C6F634C6F7753706565644D9B
:101D6000656D206661696C65640D0A00756E697445
:101D700000000000446576436667204C25643A679E
:101D80006574206B6579776F72642022756E697453
:101D90002220636F6E74656E74206661696C656481
:101DA000210D0A002804030800000C084465762071
:101DB0006366672074797065206973206572726F3D
:101DC00072210D0A00000000006820F07F44EF48F7
:101DD000844288BFEEA00BD8F54845F65A2204F19C
:101DE0000E010390FFF751FB002818BFF1A003D0AC
:101DF0000BF056F900F0B2BEF44DFF20012328701D
:101E00002A460421412004F0CBFB28780026032831
:101E100010D3EFA00BF044F901232A4648F2040145
:101E2000412004F0BDFB2878032803D3F3A00BF076
:101E300037F92E70DFF8FCA303994FF4806BCDF8CF
:101E400024B20F1989AA0120DAF80830FFF7D5FA71
:101E50000390002808BFF8A0CAD02A788999DAF838
:101E6000080006F085F8002818BFFAA0C0D10120AC
:101E70008890D64846600398874240F2B786DFF8DC
:101E8000F493FD4D99F8000000F001009090039943
:101E9000781A401C8A90B0F5806F88BFCDF828B2C0
:101EA00088988AAA401C88900120DAF80830FFF749
:101EB000A4FA0390002818BFDAF808000CD00178C3
:101EC000202914BF0929401CF9D011F0FF0F00F0A0
:101ED00089862F290BD00EE0AFF2207088990BF085
:101EE000DFF80DF5137D4FF0FF30BDE8F08F41783E
:101EF0002F2900F077864FF4807204A906F0D8FAF3
:101F0000B24C0646207910F0010F04D1DBA104A8E1
:101F10000BF0AAFB30B1207910F0020F40F01383D0
:101F200000F00CBB4FF4807304AA3146D8A006F031
:101F300026FB002840F028860022114604A80BF05A
:101F40002FFAD44E0028B06008BFD3A000F0388329
:101F50002C21FFF752F8306070B300208C900120E4
:101F6000DDF80C808690474540F2A882A7EB080078
:101F7000401C8790B0F5806F88BFCDF81CB2889860
:101F800087AA401C889041460120DAF80830FFF704
:101F900034FA5FEA000818BFDAF8080016D00178B2
:101FA000202914BF0929401CF9D011F0FF0F00F0BF
:101FB00082822F2910D013E0BDA088990BF070F811
:101FC0000DF5137D4FF0FF30BDE8F08FAFF6140034
:101FD00088990BF065F83FE041782F2900F06B827B
:101FE0004FF4807244A906F063FA0090BEA144A8A1
:101FF0000BF03AFBA8B1C1A144A80BF035FB0028B7
:10200000A44804BF0668C04878D081688698814299
:102010002CDCA0488268AFF6380088990BF040F8B5
:102020001AE09C48869982688A4206D08368AFF697
:102030001C00869A889900F003BA0021C1604FF411
:1020400000410161891F934803F0A2FA002800F0C3
:102050003D82AEA00BF024F8B7A088990BF020F8D1
:102060000DF5137D4FF0FF30BDE8F08FD9F800007B
:1020700000240028CABF909E0026002E0BDD00BF62
:1020800004EB440055F8201044A80BF0EDFAD8B149
:10209000641CA642F4DCD9F800003446864213DA08
:1020A00004EB440644A855F826100BF0DDFA58B1AD
:1020B00005EB8600C16844A80BF0D6FA60B1D9F8E8
:1020C0000000A41CA042EBDCD9F80000844205D13A
:1020D00044AAA6A0889926E0641CF5E76D4801682B
:1020E000869800EB400202EBC00001EB8006869868
:1020F000401C869004EB440005EB800030603348C0
:102100004FF4807344AA0178A54850F82100009943
:1021100006F035FA50B12D480178A14850F8212039
:10212000AFF6B00088990AF0BBFF95E744A80BF022
:10213000A8F9401CFEF766FE040000F0C48144A824
:102140000BF09FF9421C44A920460BF062FA44A808
:1021500074620BF096F9401CFEF754FE040012D096
:1021600044A80BF08EF9401C8F9044A80BF089F91D
:102170000146224644A88F9B05F063FF002803DA3E
:1021800088A0889928E125E129E1000072FF030079
:1021900044657620636667206C656E6774682063AB
:1021A0006865636B206572726F72210D0A00000012
:1021B00080000C08446576206366672063726320A4
:1021C0006973206572726F72210D0A00340000205D
:1021D0004C616E677561676520697320756E6B6E03
:1021E0006F772C20747279206261636B7570206C3C
:1021F000616E6775616765210D0A00004261636B5E
:102200007570206C616E6775616765206973206108
:102210006C736F20756E6B6E6F772C2075736520F5
:1022200064656661756C74206C616E677561676565
:10223000210D0A001800002044657620636667209F
:1022400072656164206C696E65206572726F7221BF
:102250000D0A000055746638546F537973456E63E8
:102260006F6465496E6974616C206661696C656450
:10227000210D0A00C4FF0208C8FE02083C5379730E
:1022800074656D506172616D657465720000000067
:102290004E756D00EC01002053657474696E6773B0
:1022A00020627970617373206D6F6465210D0A007F
:1022B000446576436667204C25643A736574746997
:1022C0006E675F73797374656D2043616C6C6F63C7
:1022D0004C6F7753706565644D656D206661696C00
:1022E00065640D0A000000003C2F53797374656D1E
:1022F000506172616D657465720000006C616E679B
:102300007561676500000000A802030873797374A3
:10231000656D2073657474696E6720656570726F92
:102320006D20737061636520616C6C6F6320666102
:10233000696C65640D0A0000446576436667204C4D
:1023400025643A53797374656D506172616D65747B
:1023500065722073656374696F6E20706172736556
:10236000206661696C65640D0A000000446576436F
:102370006667204C25643A73657474696E675F7391
:10238000797374656D5F646566696E652022257377
:10239000222066696E64206661696C65640D0A00BE
:1023A000B4000020446576436667204C25643A708B
:1023B0005F73657474696E672D3E64657363206531
:1023C0006E636F64696E67206661696C65640D0A8F
:1023D00000000000C4A088990AF062FE3CE64FF4B9
:1023E000807344AA3462AFF27C60009906F0C7F8AB
:1023F00018B1AFF280608899EEE7042244A906F193
:1024000018000BF006F9002434778DAB0622AFF2EA
:102410006470009903F021F8002812BFB4608D9811
:10242000B060306806F110030099027ABCA003F096
:1024300014F800283068027A05D044ABB9A0889916
:102440000AF02EFE08E606F11403C4A0009903F07A
:1024500004F800283068027A03D044ABC0A0889901
:10246000EEE706F10C03CCA0009902F0F6FF28B1CC
:10247000306844AB8899027AC9A0E1E74FF48073D1
:1024800044AAAFF2E070009906F079F8C8B99DF857
:102490001001B0B144A80AF0F4FF401CFEF7B2FCF2
:1024A000040010D044A80AF0ECFF421C44A92046C6
:1024B0000BF0AFF8B46247453FF658ADC7A08C9912
:1024C0008AE7B462F7E7D2A0889985E7DF4802F08F
:1024D000F9FC50B3DD48012391AAC168412004F002
:1024E0005FF89DF84402FF2818BFD9487FF4B2ADC9
:1024F000D8A00AF0D5FDD54802F0EAFE002818BFA2
:10250000E3A07FF4A7ADD14803F0C4FF002818BFB3
:10251000E5A07FF49FADEAA00AF0C2FD4FF4FA7087
:10252000FEF746FDFEF727F9FEE7F348CDF80C80ED
:10253000416841F00101416000F054BBEFA104A8E3
:102540000BF092F820B1207910F0040F4BD145E048
:102550004FF4807304AA3146AFF2CC2006F00FF896
:10256000002840F011830022114604A80AF018FF49
:10257000E44E0028706008BFE3A021D01C21FEF7C4
:102580003CFD306000B3E84888ABE9A20168E74849
:102590000096CDE90101394603A8FFF7C7F90028E5
:1025A00004BF606840F0020000F0DE82E3A088997A
:1025B0000AF076FD0DF5137D4FF0FF30BDE8F08F8A
:1025C0000AF06EFD00F00EBBE7A088990AF068FDE6
:1025D0000DF5137D4FF0FF30BDE8F08FEFA104A89B
:1025E0000BF042F820B1207910F0080F46D140E0FE
:1025F0004FF4807304AA3146AFF26C3005F0BFFF90
:10260000002840F0C1820022114604A80AF0C8FE4A
:10261000E64E0028706008BFE5A0D1D01C21FEF76F
:10262000ECFC3060D8B1EB4888ABECA20168EA481A
:102630000096CDE90101394603A8FFF777F9002894
:1026400004BF606840F004004BD0E8A088990AF00D
:1026500027FD0DF5137D4FF0FF30BDE8F08FEFA0A3
:1026600088990AF01DFD0DF5137D4FF0FF30BDE890
:10267000F08FF9A104A80AF0F7FF20B1207910F03B
:10268000100F2FD12AE24FF4807304AA3146AFF223
:10269000004005F074FF002825D10022114604A84F
:1026A0000AF07EFEF14E0028706008BFF0A087D0CF
:1026B0001821FEF7A2FC306090B1F748F74988ABCB
:1026C00000680096CDE90110F5A2394603A8FEF78F
:1026D000E0FE002804BF606840F0080001D0E9E196
:1026E000F2E141E2FFE133E2446576436667204C64
:1026F00025643A705F73657474696E672D3E646516
:102700007363204D616C6C6F634C6F7753706565BC
:10271000644D656D206661696C65640D0A0000009A
:102720006D696E00446576436667204C25643A67A0
:102730006574206D696E2076616C756520747970A2
:10274000653D2564206661696C6564212C20737485
:10275000723D222573220D0A000000006D61780091
:10276000446576436667204C25643A676574206D3E
:1027700061782076616C756520747970653D25649B
:10278000206661696C6564212C207374723D22257A
:1027900073220D0A0000000064656661756C7400A8
:1027A000446576436667204C25643A676574206407
:1027B000656661756C742076616C756520747970DE
:1027C000653D2564206661696C6564212C20737405
:1027D000723D222573220D0A0000000070617273A1
:1027E00065206F6E652073656374696F6E20666126
:1027F000696C65642C2073656374696F6E5F7061CA
:102800007273655F7374617475733D25640D0A009E
:10281000446576436667204C25643A705F7365743F
:1028200074696E672D3E646573635F7574663820E6
:102830004D616C6C6F634C6F7753706565644D656B
:102840006D206661696C65640D0A0000EC01002072
:102850006C04030844657669636520706F77657260
:10286000206F6E2066697273742074696D652C2008
:10287000616E6420736176652073657474696E6738
:102880007320746F2064656661756C74210D0A0095
:1028900073657474696E672073617665206661691B
:1028A0006C6564210000000073657474696E6720B4
:1028B000636865636B206661696C65642100000074
:1028C000536176652064656661756C742073657408
:1028D00074696E67732073756363657373210D0A82
:1028E0005265626F6F74696E6720646576696365AF
:1028F0002E2E2E0D0A000000340000203C416E6197
:102900006C6F6700840000205369676E616C204122
:102910006E616C6F6720627970617373206D6F6494
:1029200065210D0A0000000094000308C8FF02089A
:102930003C2F416E616C6F67000000004465764378
:102940006667204C25643A416E616C6F6720736541
:102950006374696F6E207061727365206661696C63
:1029600065640D0A00000000446576436667204CEC
:1029700025643A616E616C6F675F67726F75702076
:1029800043616C6C6F634C6F7753706565644D6524
:102990006D206661696C65640D0A00003C53656CCE
:1029A00066446961676E6F73650000008C000020EB
:1029B0005369676E616C2053656C662D446961676D
:1029C0006E6F736520627970617373206D6F6465DB
:1029D000210D0A0098000308D4FF02083C2F53651C
:1029E0006C66446961676E6F736500004465764389
:1029F0006667204C25643A53656C66446961676E6E
:102A00006F73652073656374696F6E207061727394
:102A100065206661696C65640D0A00004465764353
:102A20006667204C25643A73656C665F646961670C
:102A30006E6F73655F67726F75702043616C6C6F4A
:102A4000634C6F7753706565644D656D2066616991
:102A50006C65640D0A0000003C53656C6644696156
:102A6000676E6F736542696E00000000940000207D
:102A70005369676E616C2053656C662D44696167AC
:102A80006E6F73652042696E206279706173732086
:102A90006D6F6465210D0A009C0003087000030837
:102AA0003C2F53656C66446961676E6F736542695C
:102AB0006E00000050A088990AF0F2FA0DF5137D1F
:102AC0004FF0FF30BDE8F08F58A088990AF0E8FA7F
:102AD0000DF5137D4FF0FF30BDE8F08F63A104A822
:102AE0000AF0C2FD20B1207910F0200F7AD13DE02C
:102AF0004FF4807304AA3146AFF66C0005F03FFD39
:102B000030BB0022114604A80AF04AFC5A4E0028A5
:102B1000706008BF59A03FF453AD1821FEF76DFA5D
:102B20003060A0B15C485D4988AB00680096CDE993
:102B300001105BA2394603A8FEF7ABFC002804BFD6
:102B4000606840F010000FD058A088993FE000E086
:102B50001AE061A088990AF0A3FA00BF0DF5137D71
:102B60004FF0FF30BDE8F08F60603BE068A104A843
:102B70000AF07AFD70BB4FF4807304AA3146AFF6B9
:102B8000F00005F0FCFC10B164A088991FE0002261
:102B9000114604A80AF004FC6A4E0028706008BFC1
:102BA00069A03FF40DAD1821FEF727FA306090B10F
:102BB0006E486F4988AB00680096CDE901106DA2A0
:102BC000394603A8FEF765FC40B16DA088990AF06C
:102BD00067FAC3E706E075A08899F8E7606840F0F7
:102BE00020006060039887423FF651A90DF5137DE0
:102BF0000020BDE8F08F0000446576436667204CF6
:102C000025643A53656C66446961676E6F7365420B
:102C1000696E2073656374696F6E2070617273658D
:102C2000206661696C65640D0A00000044657643A6
:102C30006667204C25643A73656C665F64696167FA
:102C40006E6F73655F62696E5F67726F7570204348
:102C5000616C6C6F634C6F7753706565644D656D27
:102C6000206661696C65640D0A0000003C42696E73
:102C7000496E7075740000009C00002042696E204F
:102C8000696E70757420627970617373206D6F6402
:102C900065210D0A00000000A00003087C00030865
:102CA0003C2F42696E496E7075740000446576432E
:102CB0006667204C25643A42696E496E70757420CF
:102CC00073656374696F6E207061727365206661ED
:102CD000696C65640D0A0000446576436667204CA4
:102CE00025643A62696E5F696E7075745F67726FB2
:102CF00075702043616C6C6F634C6F7753706565C2
:102D0000644D656D206661696C65640D0A000000A4
:102D10003C42696E4F75747075740000446576436B
:102D20006667204C25643A676574206B6579776F18
:102D3000726420224E756D22206661696C65640D97
:102D40000A000000A40000205369676E616C2062D5
:102D5000696E206F75747075742062797061737319
:102D6000206D6F6465210D0A00000000A4000308B7
:102D7000880003083C2F42696E4F757470757400AB
:102D8000446576436667204C25643A42696E4F7508
:102D9000747075742073656374696F6E20706172EE
:102DA0007365206661696C65640D0A00446576434D
:102DB0006667204C25643A62696E5F6F7574707542
:102DC000745F67726F75702043616C6C6F634C6FDA
:102DD0007753706565644D656D206661696C6564E7
:102DE0000D0A00002DE9F041FEF7B1F84FF0E025A3
:102DF0000746D5F8840140F40050C5F88401FEF779
:102E0000CBFA634E307810F0010F18BFFDF7C9FC04
:102E1000604800686049C0F5007008805F4C6079C8
:102E2000B0B9E178012041B9217831B1E070D5F82D
:102E3000081241F08001C5F80812217941B9617882
:102E400031B12071D5F8080240F04000C5F8080201
:102E50003078A07052480068E060307810F0800F41
:102E600008BFFDF77BFC3846FEF775F8E061216985
:102E7000814238BF20614B48016841F04001016048
:102E8000BDE8F08170B5FEF787FA414D287810F063
:102E9000010F18BF00F08AF83E4800683E49C0F5AF
:102EA000007008803D4C6079C0B9E27801214FF094
:102EB000E02042B9227832B1E170D0F8082242F025
:102EC0008002C0F80822227942B9627832B12171B9
:102ED000D0F8081241F04001C0F808122878A0701C
:102EE0002F480068E060287810F0800F08BFFDF7D9
:102EF00035FC002020612C48018A21F00301018269
:102F000070BD7047704770B5FEF721F8234C054639
:102F1000E088411C1E48E180007810F0010F1CBFC2
:102F20002078FDF74BFC2846FEF715F82062616912
:102F3000814238BF606100202070E07070BD70B5C4
:102F4000FEF705F8154C05462089411C10482181E3
:102F5000007810F0010F1CBF6078FFF7D3FF284600
:102F6000FDF7F9FFA061616A814238BF606200200D
:102F70006070207170BD094841790029FCD10121A0
:102F800041710020704705490020487170470000DA
:102F9000140000208C640240C20000204000002089
:102FA0001C000020143C0140002000402DE9F001ED
:102FB000FC480779FC4EFD49C024FD4B4FF0010C45
:102FC000002247B1092F16D005460A2F2D6819D0C7
:102FD0001A2F23D12AE0D1F88C50C5F500758582CF
:102FE0001D78F5B9858AC78AED1BED05ED0D18BF73
:102FF00083F800C015E0D1F8A05045F00105C1F8F4
:10300000A0500BE04F6817F4001F0AD02D8834EA57
:10301000050506D1CD6845F47415CD6005796D1CA4
:103020000571877AE34D012F0ED104E02A80042533
:1030300035800271F5E7C768D5F80080A8EB07076F
:10304000B7F5FA6F88BF8272DB48077937B1092F6D
:1030500013D00A2F16D01A2F21D127E0496CC1F5C1
:10306000007181821978E9B9818AC68A891BC905EC
:10307000C90D18BF83F800C014E00E6F46F00106BA
:103080000E670CE04E6816F0200F0BD006683688ED
:1030900034EA060606D1CE6846F03D06CE600179D8
:1030A000491C0171817A01290DD105E001680A806E
:1030B000202131800271F5E7C1682E68711AB1F5DF
:1030C000FA6F88BF8272BD48017931B1092914D0E5
:1030D0000A2917D01A2924D136E0B9490968C1F163
:1030E000040181821978F9B9818AC48A091BC9054A
:1030F000C90D18BF83F800C016E0B2490B6843F051
:1031000001030DE0B049096811F4001F0CD00168FB
:10311000098834EA010107D1AC490B6843F4741300
:103120000B600179491C0171817A01291CBFBDE83E
:10313000F0017047C1682B68591AB1F5FA6F88BF62
:103140008272BDE8F001704701680A800271EBE706
:103150002DE9F84FFDF7FBFE924F0090384600F046
:10316000E7FFF98CDFF844B200250126002918BFDB
:10317000D7F82CA07DD055DDB1F5803F52D8BAF1FB
:10318000000F18BF874A4AD010790028FCD1B1F54A
:10319000007F59DDA1F50074002CC8BF4FF0C00EB0
:1031A0004FDD00BFB4F5007FA8BF4FF4007C02DA0A
:1031B000B4F1000C0BDD514600236046D2F820909C
:1031C00011F8018B09F803805B1C401EF6D1DBF877
:1031D000A00010F0010F0AD0DBF8A00020F00100E1
:1031E000CBF8A000DBF8A00010F0010FF4D1106ABA
:1031F000CBF8AC00CBF8A4C0DBF80C0040F47410A2
:10320000CBF80C00106801883EEA01011CBF11795F
:103210000029F8D105801671107A38B903E06CA046
:1032200009F03EFF47E0714804210180DBF8A0006F
:1032300040F00100CBF8A000A4EB0C04E244002C09
:10324000B0DC4FF4007101E0002909DD00200B46DD
:10325000146A1AF801CB04F800C0401C5B1EF7D1B9
:103260004FEA0B00D0F8A430002BFBD1D0F8A030EF
:1032700000E021E013F0010F0BD000BFD0F8A03028
:1032800023F00103C0F8A030D0F8A03013F0010FF4
:10329000F4D1136AC0F8AC30C0F8A410C16841F48E
:1032A0007411C160117A002978D0D0F8A01041F0D3
:1032B0000101C0F8A010FD840098FDF74CFE4C49B8
:1032C0004860096881423CBF49490860FDF73FFEFC
:1032D000394C0090204600F02BFFE28C002A18BFEA
:1032E000D4F82C805BD05BDDB2F5803F58D8B8F1C4
:1032F000000F18BFDFF8C0C053D000BF9CF8040017
:103300000028FBD1B2F5007F74DDA2F50070002823
:10331000C8BF4FF0C00E6EDDB0F5007FA8BF4FF400
:10332000007301DA031E0CDD414600224FEA030759
:10333000DCF820A011F8019B0AF80290521C7F1EB5
:10334000F6D1DBF8701011F0010F0AD0DBF8701025
:1033500021F00101CBF87010DBF8701011F0010FB3
:10336000F4D1DCF82010CBF87C10CBF87430DBF80B
:103370000C1041F03D01CBF80C10DCF800100A886D
:103380003EEA02021CBF9CF80420002AF7D10D80FF
:103390008CF804609CF8081071BB38E02DE074E0F4
:1033A00072E02FE0FC000020181C02400060024088
:1033B00040000020180000204C0100209C0100204B
:1033C00044640240A0640240046402400C64024071
:1033D00066756E6374696F6E20656E7472797320A2
:1033E0006572726F72210D0A000000001A1C024003
:1033F000680000201CE018E00CE01671F44904207D
:10340000088058E7AFF2380009F04AFE3CE0F04A85
:1034100020211180DBF8701041F00101CBF8701011
:10342000C01A984400283FF777AF4FF4007201E0CC
:10343000002A09DD00201146DCF8207018F8013B55
:103440003B54401C491EF7D15846416F0029FCD11E
:10345000016F11F0010F07D0016F21F00101016729
:10346000016F11F0010FF7D1DCF82010C16742673E
:10347000C16841F03D01C1609CF80810002977D077
:10348000016F41F001010167E5840098FDF763FDDC
:10349000D049C860896881423CBFCE498860FDF749
:1034A00056FDCD4C0090204600F042FEE18C0029F4
:1034B00018BFE06A78D065DDB1F5803F62D800289A
:1034C00018BFC54A5AD01379002BFCD1DFF80CE3A2
:1034D000DFF80CB3B1F5007F68DDA1F50077002FB0
:1034E0005FDD00BFB7F5007FA8BF4FF4007C02DAB4
:1034F000B7F1000C0CDD01460023E246D2F8208033
:1035000011F8019B08F803905B1CBAF1010AF5D190
:10351000DBF8001011F0010F0BD000BFDBF800103A
:1035200021F00101CBF80010DBF8001011F0010FC1
:10353000F4D1AC49136A0B60AB49C1F800C0DEF8A6
:10354000001041F47411CEF80010D2F80010C0231E
:10355000B1F8008033EA08081CBF92F80480B8F183
:10356000000FF5D10D801671117A79B90BE0FFE7E4
:103570008CF8046096492020088085E7AFF2B010EF
:1035800009F08EFD4CE0924B20211980DBF80010F1
:1035900041F00101CBF80010A7EB0C076044002FAD
:1035A000A0DC4FF4007103E03BE0FFE700290BDDF6
:1035B00000238C46D2F8208010F8017B08F80370B5
:1035C0005B1CBCF1010CF5D1874B18680028FCD1BD
:1035D000DBF8000010F0010F0BD000BFDBF800009B
:1035E00020F00100CBF80000DBF8000010F0010F24
:1035F000F4D17C48D2F820C0C0F800C01960DEF8D1
:10360000000040F47410CEF80000107A002808BFC3
:10361000167105D0DBF8000040F00100CBF8000087
:10362000E5840098FDF797FC6A4948610A6982427F
:1036300038BF08610020BDE8F88F2DE9F0416B4CE0
:103640004FF40070FDF7DEFBE061002808BF68A0C2
:1036500000F09A804FF40070FDF7D4FB2062002840
:1036600008BF6EA000F090804FF48070FDF7CAFB99
:10367000A062002808BF74A000F086804FF480701C
:10368000FDF7C0FBE062002808BF7CA000F07C8052
:10369000874820600126E68000252572667205278E
:1036A0004FF00208A76184F810806574A67481A0A9
:1036B00009F0F6FC884C7002FDF7A4FBE0610028DD
:1036C00008BF86A000F069804FF40070FDF79AFBF8
:1036D0002062002808BF8CA000F05F804FF480704B
:1036E000FDF790FBA062002808BF92A000F0558073
:1036F0004FF48070FDF786FBE062002808BF9AA0B7
:103700004BD0A6482060E68025726672A76184F8D7
:1037100010806574A674A2A009F0C2FC2E4C4FF470
:103720000070FDF76FFBE061002808BFA5A03DD049
:103730004FF40070FDF766FB2062002808BFACA0C4
:1037400034D04FF48070FDF75DFBA062002808BF05
:10375000B2A02BD04FF48070FDF754FBE06200283C
:1037600008BFBBA022D0C7482060E68025726672E1
:10377000A76184F810806574A674C3A009F090FC5A
:103780000020BDE8F08100BF09F08AFCC7A009F065
:1037900087FC4FF0FF30BDE8F08109F081FCCAA042
:1037A00009F07EFC4FF0FF30BDE8F08109F078FCB5
:1037B000CCA009F075FC4FF0FF30BDE8F08170B58A
:1037C00020B1817C0446082901D399E19FE1A3E15E
:1037D0001A1C0240680000209C0100200C6402407A
:1037E000A0640240AC640240A4640240FC000020DB
:1037F0007561727420322072785F627566666572D8
:10380000204D616C6C6F634C6F7753706565644DD0
:10381000656D206661696C65640D0A00756172747E
:1038200020322074785F627566666572204D616C27
:103830006C6F634C6F7753706565644D656D206682
:1038400061696C65640D0A007561727420322072C2
:10385000785F6672616D655F627566666572204D40
:10386000616C6C6F634C6F7753706565644D656D0B
:10387000206661696C65640D0A00000075617274F0
:1038800020322074785F6672616D655F627566666E
:103890006572204D616C6C6F634C6F77537065651A
:1038A000644D656D206661696C65640D0A000000F9
:1038B0000044004020202020556172743220637241
:1038C00065617465207375636365737366756C6C8D
:1038D00079210D0A000000004C010020756172740E
:1038E00020342072785F627566666572204D616C67
:1038F0006C6F634C6F7753706565644D656D2066C2
:1039000061696C65640D0A007561727420342074FD
:10391000785F627566666572204D616C6C6F634C92
:103920006F7753706565644D656D206661696C6580
:10393000640D0A007561727420342072785F6672BB
:10394000616D655F627566666572204D616C6C6F56
:10395000634C6F7753706565644D656D2066616972
:103960006C65640D0A000000756172742034207467
:10397000785F6672616D655F627566666572204D1F
:10398000616C6C6F634C6F7753706565644D656DEA
:10399000206661696C65640D0A000000004C0040FF
:1039A0002020202055617274342063726561746533
:1039B000207375636365737366756C6C79210D0A8A
:1039C000000000007561727420362072785F6275A5
:1039D00066666572204D616C6C6F634C6F775370D7
:1039E0006565644D656D206661696C65640D0A00EE
:1039F0007561727420362074785F627566666572D0
:103A0000204D616C6C6F634C6F7753706565644DCE
:103A1000656D206661696C65640D0A00756172747C
:103A200020362072785F6672616D655F62756666CA
:103A30006572204D616C6C6F634C6F775370656578
:103A4000644D656D206661696C65640D0A00000057
:103A50007561727420362074785F6672616D655F7F
:103A6000627566666572204D616C6C6F634C6F7732
:103A700053706565644D656D206661696C65640DA4
:103A80000A000000001401402020202055617274BB
:103A90003620637265617465207375636365737343
:103AA00066756C6C79210D0A000000002020202032
:103AB0005561727432206372656174652066616954
:103AC0006C6564210D0A000020202020556172746D
:103AD0003420637265617465206661696C65642178
:103AE0000D0A000020202020556172743620637278
:103AF00065617465206661696C6564210D0A00006A
:103B0000FEA009F0CDFA00BF4FF0FF3070BDAFF25C
:103B1000407009F0C5FAF7E72068A0F18042B2F5DD
:103B200088321CBFA0F18042B2F58A3203893AD1B3
:103B3000FD4A32F811108B4218BF002900D00181D4
:103B4000607C21688007800C08822068818921F4CC
:103B5000B055217C012908BF45F4B05503D0022996
:103B600008BF45F4A0558189A9420DD021790029CB
:103B7000FCD1818921F00C0121F4005181810520C3
:103B8000FDF716FA206885810020E072A0690528FB
:103B90003CBF0520A06104D3E449814238BF0846F8
:103BA000A061002070BDE24A32F811108B4218BFAC
:103BB0000029C5D0C3E72DE9F05FDF48DD4D00687F
:103BC00040F0C101DC4841F400110160DB480068AD
:103BD000DA4940F400300860D94804210180D9480E
:103BE0000068D84920F0300040F010000860081D3F
:103BF0000068091D20F004000860081D0068091D08
:103C000040F030000860DFF840934FF4C050A9F84E
:103C1000000009F1020B4FF4006AABF800A0CB489A
:103C20000068CA4920F0707040F0A0700860081D5C
:103C30000068091D20F4C05008600E1D306840F077
:103C400070703060DFF80883D8F8000020F0F000D2
:103C500040F0A000C8F80000D8F8040020F00C00E4
:103C6000C8F80400D8F8080040F0F000C8F80800D0
:103C7000D8F8200020F47F4040F4EE40C8F820003F
:103C8000B448D0F8881011F0010F0AD0D0F888108D
:103C900021F00101C0F88810D0F8881011F0010F50
:103CA000F4D12968091DC0F89010E969C0F8941092
:103CB0004FF40077C0F88C70A749C0F88810032132
:103CC000C0F89C10C16841F47461C160D0F8A010C4
:103CD00011F0010F0BD000BFD0F8A01021F00101AE
:103CE000C0F8A010D0F8A01011F0010FF4D129688D
:103CF0009A48091D0167296A41670121C1669849EF
:103D000081660721C16750F82C1C41F4741140F8FA
:103D10002C1C2A68C0219182296800240C82296801
:103D20000C802A6842F20C019181016D41F0010181
:103D30000165816E41F0010181662846FFF73FFD74
:103D400040B188A009F0ACF98EA009F0A9F9601E75
:103D5000BDE8F09F297A4FF48050002919BFA9F8D7
:103D600000A0ABF80000A9F80000ABF800A08CA000
:103D700009F096F9704D9348296841F0810141F4AA
:103D8000001129606D490A6842F400220A60D8F8DF
:103D9000001021F00F0141F00A01C8F80010D8F816
:103DA000041021F00301C8F80410D8F8081041F0FD
:103DB0000F01C8F80810D8F8201021F0FF0141F0D9
:103DC0008801C8F820105E4920220A805D490A68EF
:103DD00022F4406242F480620A60091D0A6822F0FF
:103DE00020020A60091D0A6842F440620A605949CB
:103DF0000A6C12F0010F07D00A6C22F001020A646B
:103E00000A6C12F0010FF7D10268121D8A64C269B0
:103E1000CA644FF400724A644F4A0A6403274F652C
:103E20008A6842F474128A600A6F12F0010F07D098
:103E30000A6F22F001020A670A6F12F0010FF7D130
:103E40000268121D8A67026ACA674FF00108C1F84A
:103E50007480434A0A674FF00709C1F88490CA6822
:103E600042F03D02CA6002684FF0C00AA2F814A0F6
:103E70000268148202681480026842F20C0BA2F8F5
:103E80000CB00A6C42F001020A640A6F42F00102AF
:103E90000A67FFF794FC48B132A009F001F94AA083
:103EA00009F0FEF84FF0FF30BDE8F09F4DA009F09B
:103EB000F7F8554C286840F04010286053480168D6
:103EC00041F0200101602148016821F4702121F0B6
:103ED000705141F4202141F020510160001D016822
:103EE00021F4C6410160306820F4702020F0705049
:103EF00030604748016821F0FF018BE06261756422
:103F00005F726174653D2564206578636565642032
:103F100074686520616C6C6F7765642073636F7083
:103F200065210D0A00000000FE040308C0270900F7
:103F3000EE040308FC000020303802404038024004
:103F4000181C0240001C02401818024000180240D1
:103F50000000024000600240000503083860024093
:103F60004004000855706461746520756172743492
:103F70002073657474696E6773206661696C65642B
:103F8000210D0A0020202020556172743220696EB4
:103F9000697469616C206661696C6564210D0A0051
:103FA00020202020556172743220696E6974696125
:103FB0006C207375636365737366756C6C79210D22
:103FC0000A0000004C01002020202020556172745E
:103FD0003420696E697469616C206661696C65641E
:103FE000210D0A0020202020556172743420696E52
:103FF000697469616C207375636365737366756C4E
:104000006C79210D0A0000009C0100204438024018
:104010002418024021F07F6141F0880141F00841FD
:1040200001602046002000BF6048016811F0010FC8
:1040300007D0016821F001010160016811F0010F52
:10404000F7D121685A4A091D1160121DE1691160FA
:104050005115584A11605849016058490F60584934
:104060000A6842F474120A6056490A6812F0010F95
:1040700007D00A6822F001020A600A6812F0010FF4
:10408000F7D12268504B121D1A601B1D226A1A605C
:104090004E4AC2F800804E4A0A604E4AC2F800906A
:1040A0004D4A136843F4741313602268A2F814A0F5
:1040B000236800221A8223681A802268A2F80CB0B2
:1040C000026842F001020260086840F001000860E6
:1040D00042A008F0E5FF0020BDE8F09F10B5484879
:1040E000FFF76DFB28B147A008F0DAFF4FF0FF3073
:1040F00010BD43484FF4805390F808C04A48C1149B
:10410000821CBCF1000F19BF018013800380118055
:104110004648FFF754FB28B94548FFF750FB0028F5
:1041200008BF10BD43A008F0BBFF4FF0FF3010BD2B
:1041300010B500282ED0818AC28A891AC905C90DF6
:1041400026D0417A00292BD001292CD0002181844E
:10415000818AC28A891AC905C90D17D0C28AC16964
:10416000C2F30802838C895C826AD154C18A491CDB
:10417000C182818C491C89B28184B1F5807F05D2CE
:10418000818AC28A891AC905C90DE7D1FCF713FED5
:10419000002010BD30A008F083FF4FF0FF3010BDAD
:1041A000AFF30080F4E703F08EFDF1E740640240D6
:1041B00048640240446402400005030A546402401B
:1041C00008640240A0640240A8640240A464024063
:1041D0004004000AB46402400C6402402020202005
:1041E000556172743620696E697469616C207375EB
:1041F000636365737366756C6C79210D0A0000004A
:10420000FC0000202020202055617274322073654C
:104210007474696E67732068616E646C6520657282
:10422000726F72210D0A0000181802404C01002024
:104230009C01002020202020556172743420736579
:104240007474696E67732068616E646C6520657252
:10425000726F72210D0A000046756E6374696F6E8D
:1042600020656E7472696573206572726F72210DBC
:104270000A00000002F0B2FB48B137A008F010FFBE
:104280003DA008F00DFF00BF04F01CF8FCE740A0C3
:1042900008F006FF434808F003FF43A008F000FFC2
:1042A0004DA008F0FDFE3F4808F0FAFEFBF7E6FFE0
:1042B00048B153A008F0F4FE2FA008F0F1FE00BFB3
:1042C00004F000F8FCE7FDF7A4FC40B153A008F0AF
:1042D000E7FE29A008F0E4FE03F0F4FFFCE756A097
:1042E00008F0DEFEFBF7D9FF48B145A008F0D8FE84
:1042F00021A008F0D5FE00BF03F0E4FFFCE754A0C6
:1043000008F0CEFE33A008F0CBFE57A008F0C8FEA0
:104310005C494FF4007008805B4801780029FCD0AC
:104320005A48017841F0010101705948402101606B
:104330005848D0F8802142F40002C0F88021026879
:1043400042F400020260544801600BA008F0A8FE8D
:1043500003F0B8FFFCE7000053797374656D2068C3
:104360006172647761726520696E697469616C203D
:104370006661696C656421005B4170704044656EE4
:10438000677875652059616E5D203D3E2000000014
:104390004861726477617265207265616479210D8C
:1043A0000A00000010050308232053797374656D1B
:1043B00020436F6D70696C652054696D65203A20EB
:1043C00046656220323820323031362032313A357B
:1043D000373A33320D0A0000232053797374656D28
:1043E00020417574686F72202020202020203A2000
:1043F00044656E677875652059616E0D0A0000008E
:104400004170706C69636174696F6E204E4557200E
:104410006661696C6564210D0A0000005226442023
:10442000436F6E66696E67207061727365206661A6
:10443000696C6564210D0A0052264420436F6E6644
:10444000696E67207265616479210D0A00000000C1
:104450004170706C69636174696F6E20726561642C
:1044600079210D0A00000000456E74657220757395
:104470006572206170706C69636174696F6E210D83
:104480000A0D0A001A0402403C000020140000201B
:10449000143C014000E100E0003C01402DE9F05FE8
:1044A000DFF810A4082591468846AAF800500AF1C2
:1044B00002064FF4005BA6F800B0FF4FC143C9B23B
:1044C000798338832C0334803220FCF751FDAAF81D
:1044D00000403220FCF74CFDB9F1000F1AD0B8F1C2
:1044E000000F1CD035800025B9F1000F12D900BF94
:1044F00018F80500C143C9B279833883348032206B
:10450000FCF736FDAAF800403220FCF731FD6D1CA7
:10451000A945EDD8AAF800B00020BDE8F09FE7A0BB
:1045200008F0BEFD4FF0FF30BDE8F09F2DE9F04FE1
:1045300085B000208DF800008DF801004FF4165B67
:10454000022269464620FFF7A9FFDA4F4FF0080A1A
:10455000A7F800A0BE1C4FF400503080DFF858834D
:10456000BD20A8F81A004220A8F818004FF400490E
:10457000A6F800903220FCF7FBFCA7F80090322050
:10458000FCF7F6FCA6F800A00025FF24A8F81A40C6
:10459000A6F800903220FCF7EBFCA7F80090322040
:1045A000FCF7E6FC681C85B25D45EFD34FF4005B79
:1045B000A7F800B080208DF8000025208DF80100BC
:1045C0004FF41655022269464620FFF767FFA7F809
:1045D00000A0A6F800B0BD20A8F81A004220A8F854
:1045E0001800A6F800903220FCF7C2FCA7F8009053
:1045F0003220FCF7BDFCA6F800A04FF0000A00BF77
:10460000A8F81A40A6F800903220FCF7B1FCA7F8F1
:1046100000903220FCF7ACFC0AF101001FFA80FA8E
:10462000AA45EDD3A7F800B005B00020BDE8F08F93
:1046300010B5A94884B0102404800520FCF7B8FC0C
:104640009C4804801420FCF7A6FC0822A3494020C3
:10465000FFF724FF0A22A2494420FFF71FFF01228F
:10466000A0495A20FFF71AFF01229F495B20FFF75C
:1046700015FF02229D495D20FFF710FF01229C4992
:104680005920FFF70BFF002211464C20FFF706FFD1
:1046900000208DF800008DF80100022269464620B6
:1046A000FFF7FCFEFFF742FF04B0002010BD2DE92C
:1046B000FF4F85B00C46002850D0002C02BF0020D0
:1046C00009B0BDE8F08F05468DF80020100A8DF87E
:1046D0000100022269464620FFF7E0FEDFF8D481A0
:1046E0004FF0080AA8F800A008F102094FF4005B97
:1046F000A9F800B0704EBD207083422030834FF483
:104700000047A9F800703220FCF732FCA8F80070CE
:104710003220FCF72DFCA9F800A008984FF0000A01
:1047200020B3002C14D900BF15F80A007083C143D0
:10473000C9B23183A9F800703220FCF719FCA8F83F
:1047400000703220FCF714FC0AF1010A5445EBD842
:10475000A8F800B009B00020BDE8F08F57A008F01D
:104760009FFC09B04FF0FF30BDE8F08F002CEFD96F
:1047700015F80A00C143C9B271833083A9F80070EB
:104780003220FCF7F5FBA8F800703220FCF7F0FBB4
:104790000AF1010A5445EBD8DAE72DE9F84F9146C2
:1047A000070019D0387800260D46002800F0218136
:1047B000B95D80297CD3BC196278802A44D24DA08F
:1047C00008F06EFC60784FF0000400284FF0FF0006
:1047D0008DF8000007D014E038A008F061FC4FF01D
:1047E000FF30BDE8F88F04EB840005EBC00082B217
:1047F0004B4601216846FFF75AFF641C102CF2DB80
:10480000F7E004EB840105EBC10082B24B460121C5
:104810006846FFF74CFF641C102CF2DB05F1080022
:104820001FFA80F8FF208DF80000002404EB8400BC
:1048300008EBC00082B24B4601216846FFF737FF04
:10484000641C102CF2DB94E021886FF0A002A1F12F
:10485000A100C0B202EB1122C0EB0013D2B203EBF5
:10486000401002EB40004FEA40182A4840456ED203
:1048700029A008F015FCFF20AA46CB468DF80000C1
:104880005FF0000404EB84000AEBC00082B25B46D8
:1048900001216846FFF70BFF641C102CF2DB681C3B
:1048A0001FFA80FAFF20CB468DF80000002441E07B
:1048B00063E04CE0181C02400020024066756E6305
:1048C00074696F6E20656E74727973206572726F91
:1048D00072210D0A000000001A1C0240AA090708F4
:1048E000B3090708610503086305030867050308A2
:1048F00065050308556B6E6F7720636861726163AD
:1049000074657220307825303258253032580D0ABF
:104910000000000020FE0300556B6E6F7720636877
:1049200061726163746572203078253034580D0AE5
:104930000000000004EB84000AEBC00082B25B467A
:1049400001216846FFF7B3FE641C102CAFDBDFF8D3
:10495000B0A0002404EB840105EBC10082B208EB97
:10496000440050444B460221FFF7A1FE641C102C6A
:10497000F0DBA81C85B2B01C36E0202938BF20210E
:10498000A1F1200000064FEA1058B8F5BE6F16D905
:104990001CA008F085FBFF20AA46CB468DF800003E
:1049A0005FF0000404EB84000AEBC00082B25B46B7
:1049B00001216846FFF77BFE641C102CF2DBDFF858
:1049C00060A0002404EB840105EBC10082B208EB77
:1049D000040050444B460121FFF769FE641C102C73
:1049E000F0DB681C85B2701C86B2B85D00287FF4CD
:1049F000DFAE0020BDE8F88F02F5165292B256E6FF
:104A0000690B0308556B6E6F772063686172616391
:104A1000746572203078253032580D0A000000008D
:104A2000690503082DE9F74F0299002902BF00200C
:104A300003B0BDE8F08F019929B140280BD383A0C2
:104A400008F02EFB12E08AA008F02AFB03B04FF01A
:104A5000FF30BDE8F08F029901290CD91F2818BF3B
:104A60003F2808D001468BA008F01AFB03B04FF096
:104A7000FF30BDE8F08FDFF844B2DBF8001041F4FE
:104A80008031CBF800108E4E802535804021B71E36
:104A90003980812141EA400000F0FF0800244FF4F2
:104AA00080794FF0010A00BF0AFA04F010EA080FFB
:104AB0000CBFA6F80090A7F800903220FCF758FA37
:104AC0003D803220FCF754FA3580601CC4B2082CBB
:104AD000EAD3DBF8000020F44030CBF80000029865
:104AE0004FF00008002888BFDFF8D8B124D900BFF4
:104AF0004FF000094C463220FCF73AFADBF8000090
:104B000010F4807F05D00AFA04F040EA090000F0B2
:104B1000FF093D803220FCF72BFA3580601CC4B2BF
:104B2000082CE8D3019800F8089008F1010000F083
:104B3000FF0802988045DBD34020308003B000207E
:104B4000BDE8F08F2DE9F74F0299002902BF002040
:104B500003B0BDE8F08F019929B140280BD33BA0E9
:104B600008F09EFA12E042A008F09AFA03B04FF063
:104B7000FF30BDE8F08F029901290CD91F2818BF1A
:104B80003F2808D0014643A008F08AFA03B04FF04E
:104B9000FF30BDE8F08F49490A6842F480320A606C
:104BA000474E802535804021B71E398045EA4000B8
:104BB00000F0FF0900244FF0010A4FF4807800BF95
:104BC0000AFA04F010EA090F0CBFA6F80080A7F853
:104BD00000803220FCF7CCF93D803220FCF7C8F988
:104BE0003580601CC4B2082CEAD302984FF000094B
:104BF00000281FD90198002410F809B00AFA04F01F
:104C000010EA0B0F0CBFA6F80080A7F80080322036
:104C1000FCF7AEF93D803220FCF7AAF93580601C24
:104C2000C4B2082CEAD309F1010000F0FF09029890
:104C30008145DFD3402030802048016821F4403195
:104C4000016003B00020BDE8F08F000052746320C3
:104C50007265616420616464722063616E6E6F745A
:104C600020657863656564203633210D0A000000F5
:104C700052746320726561642066756E6374696F37
:104C80006E20656E74727973206572726F72210D79
:104C90000A0000005274632061646472202530327F
:104CA000752063616E2072656164206F6E6520629D
:104CB000797465206F6E6C79210D0A000004024042
:104CC0001A0402401004024070B52DED068B84B02A
:104CD000002808BFFDA024D0016A00291FBFC169B8
:104CE00000298169002908BFFE481AD08268002582
:104CF000002A40F3928000BF05EB4503026803EBF6
:104D0000C50302EB8304D4F800C0A2889CF80860B5
:104D1000082E80F0D180DFE806F007071E314E62D2
:104D2000899B08F0BDF96AE08E5C227D96429CBFAB
:104D3000227CB2420BD9237D227C3146EAA008F0C6
:104D4000AFF904B04FF0FF30BDEC068B70BDDCF85E
:104D5000042016705CE08E5C227D96429CBF227C13
:104D6000B242F4D9237D227C3146EAA008F098F9BA
:104D700004B04FF0FF30BDEC068B70BD0A44B2F9B1
:104D80000060B4F914209642DCBFB4F91020B2429E
:104D90000DDDB4F91430B4F910203146D2A008F07A
:104DA0007FF904B04FF0FF30BDEC068B70BDDCF82E
:104DB000042016802CE00A441688A28A96429CBFE2
:104DC000228AB242F3D9A38A228A3146D1A008F0BE
:104DD00067F904B04FF0FF30BDEC068B70BD0A449C
:104DE000D3781668626963F31F669642DCBF226956
:104DF000B2420ADDD4E904233146BBA025E004B069
:104E00004FF0FF30BDEC068B70BDDCF8042016605F
:104E100082686D1CAA423FF76FAF4269C06908F013
:104E20004FFB04B00020BDEC068B70BD0A44D37864
:104E30001668626963F31F6696429CBF2269B2429C
:104E4000E3D9D4E904233146B2A008F029F9D6E722
:104E50000A4494ED050AD378126863F31F6208EEE2
:104E6000102AB4EEC08AF1EE10FA0BDC94ED040ABD
:104E7000B4EEC08AF1EE10FA24BFDCF8042082ED13
:104E8000008AC5D260690AF023FF41EC1A0B206941
:104E90000AF01EFF41EC190B18EE100A0AF018FF79
:104EA00041EC100B8DED02AB8DED009B53EC102B04
:104EB000A3A008F0F5F8A2E79CF80810ABA008F052
:104EC000EFF89CE7F0B587B004002CD0206A0028EA
:104ED0001FBFE0690028A269002A2BD04120636926
:104EE000E16801F05DFBD4E905104AF2A552FCF738
:104EF00012F80026002800F07480A1A008F0D0F875
:104F0000D4E904134120A26901F04AFBD4E9051059
:104F10004AF2A552FBF7FFFF98B1A7A008F0C0F82E
:104F200007B0701EF0BD69A008F0BAF807B04FF0E6
:104F3000FF30F0BDAA4808F0B3F807B04FF0FF30DB
:104F4000F0BDD4E904134120226A01F029FB4AF2A2
:104F5000A5526169206AFBF7DEFF18B1A1A008F035
:104F60009FF82DE041206269E16801F011FC4120C9
:104F70006369226AE16801F074FB6069002500281A
:104F800029DDE0680123411902AA412001F008FB54
:104F900020690123411901AA412001F001FB9DF87C
:104FA00008009DF80410884211D0C0B20090E0685B
:104FB0009DF804204319206941198F4808F070F8C2
:104FC0008EA008F06DF807B04FF0FF30F0BD6069BB
:104FD0006D1CA842D5DC93A008F062F891A008F0FF
:104FE0005FF82046FFF770FE30B19AA008F058F83D
:104FF00007B04FF0FF30F0BD002C32D060690025C3
:1050000000285EDDE0680123411904AA412001F077
:10501000C7FA20690123411902AA412001F0C0FA10
:105020009DF810009DF8081088424BD0C0B2009047
:10503000E0689DF808204319206941198C4808F060
:105040002FF88CA008F02CF8002C08BF1FA005D06A
:105050008E4F3878002818BF8DA006D008F020F8B1
:1050600033E11AA008F01CF82FE101203870D4E9D0
:105070000412412001F08CFBD4E904134120E269C1
:1050800001F0EFFA6069002500281CDDE0680123CB
:10509000411905AA412001F083FA20690123411931
:1050A00003AA412001F07CFA9DF814009DF80C1031
:1050B000884209D0C0B20090E068431920694119C4
:1050C000F0E002E1FCE0F9E0F3E0000046756E6319
:1050D00074696F6E20656E747279206572726F727A
:1050E000210D0A003C0A070873657474696E672015
:1050F00076616C75653D25642C2065786365656413
:105100002073636F7065205B25642C25645D0D0A38
:105110000000000073657474696E672076616C75B9
:10512000653D25752C206578636565642073636F24
:105130007065205B25752C25755D0D0A000000004B
:1051400073657474696E672076616C75653D25665C
:105150002C206578636565642073636F7065205BE0
:1051600025662C25665D0D0A00000000756E6B6ECD
:105170006F7720747970653D25640D0A000000008A
:105180004163746976652073657474696E67207312
:10519000656374696F6E20636865636B2063726317
:1051A000206661696C6564212054727920626163B4
:1051B0006B7570210D0A00004261636B757020737E
:1051C000657474696E6720636865636B20637263DE
:1051D00020616C736F206661696C6564210D0A0043
:1051E000080B07084261636B75702063726320656A
:1051F00072726F72210D0A00800A0708526573747B
:105200006F72652073657474696E67732066726F60
:105210006D206261636B7570206661696C656421E5
:105220000D0A00005375636365737366756C6C7962
:1052300020726573746F72652073657474696E672C
:10524000732066726F6D206261636B7570210D0A49
:105250000000000052756E2073657474696E6720DB
:10526000757064617465206572726F72210D0A0039
:10527000C009070854727920746F206261636B75EE
:105280007020616761696E210D0A000080000020B6
:1052900053746F7261676520697320627573792139
:1052A0000D0A00009DF80C20ED4807F0F9FE3E7055
:1052B0000BE060696D1CA8423FF7E8AE3E7004E069
:1052C00060696D1CA8423FF79DAE07B00020F0BD9D
:1052D000F0B583B004000AD0E24E307860B1AFF28E
:1052E000500007F0DDFE03B06FF00400F0BDAFF238
:1052F000242007F0D5FE83E0226A0027002A1FBF82
:10530000E0690028A06900283BD041206369E1687A
:1053100001F046F960694AF2A552811EE069FBF787
:10532000FAFD6269E169114401F8020C6269E16900
:10533000000A114401F8010C41206269E16801F0A2
:1053400027FA41206369E269E16801F08AF9D4E94A
:1053500005324120E16801F023F962690020002A4A
:10536000C8BFD4E9061317DD11F800C01D5CAC45B9
:105370000FD0BDA007F094FE377003B04FF0FF30A0
:10538000F0BDC0A007F08CFE377003B04FF0FF30C7
:10539000F0BD401C8242E7DC4120216901F0F8F9B0
:1053A000D4E904134120E26901F05BF9D4E9041364
:1053B0004120A26901F0F4F860690025002827DD8A
:1053C000E0680123411901AA412001F0E9F82069B0
:1053D0000123411902AA412001F0E2F89DF80410CE
:1053E0009DF8080081420FD0C8B20090E0689DF897
:1053F0000820431920694119994807F051FE377078
:1054000003B04FF0FF30F0BD60696D1CA842D7DCDF
:105410002046FFF759FC377003B00020F0BD10B5EF
:1054200004000ED0206A00281FBFE1690029A0698E
:1054300000280CD0626908F043F82046BDE810400F
:1054400042E49DA007F02CFE4FF0FF3010BDA048B5
:1054500007F026FE4FF0FF3010BD30B591B01C466E
:10546000154600281CBF0029002C06D040236A46A0
:1054700003F085F830B100F087B896A007F010FE71
:1054800000F082B8082D80F07980DFE805F004157F
:1054900028384C5E646B00221146684607F080FF96
:1054A0000146022806D391A007F0FAFD11B04FF093
:1054B000FF3030BD20705EE000221146684607F0E4
:1054C0006FFF01468030B0F5807F38BF217052D326
:1054D00090A007F0E5FD11B04FF0FF3030BD002285
:1054E0001146684607F05CFF0146B0F5807FE1D3C6
:1054F00094A007F0D5FD11B04FF0FF3030BD002271
:105500001146684607F04CFF014600F50040B0F533
:10551000803F38BF21802ED395A007F0C1FD11B088
:105520004FF0FF3030BD00221146684607F038FFCB
:105530000146B0F5803F38BF20801CD399A007F00A
:10554000AFFD11B04FF0FF3030BD0022114668466C
:1055500007F026FF04E000221146684607F058FFD6
:10556000206008E0002168460AF0B2F851EC100B08
:105570000AF0BCF9206011B0002030BD2946AFF21E
:10558000144007F08DFD00BF11B04FF0FF3030BD6B
:10559000F0B58C462DED068B85B0050016D0AA68B7
:1055A00004200021002A24DD01EB41032A6803EBDB
:1055B000C10302EB8302908013681C7A082C22D26C
:1055C000DFE804F00E0E0E1010121212AFF20450AB
:1055D00007F066FD05B04FF0FF30BDEC068BF0BD67
:1055E000401C02E0801C00E0001DAA68491C8A42A1
:1055F000DADC861C66450CDD634631467548EA6890
:1056000007F04EFD39E11068017A73A007F048FDFC
:1056100033E1314601206E61FBF7EFFCA861002801
:105620001BD031460120FBF7E8FCE861002815D0CB
:1056300031460120FBF7E1FC2862002808BF6AA080
:1056400000F0F681280008BFAFF2805007D0C16992
:1056500000291CBF81690029E0E0FCE004E112E1BF
:10566000C009070880000020706172616D65746573
:1056700072207772697465206572726F72210D0AEB
:105680000000000053657474696E677327206275AB
:10569000666665727320617265206E6F7420696E34
:1056A000697469616C65642C2063616E6E6F74202F
:1056B00073617665210D0A0046756E6374696F6EBD
:1056C00020656E747279206572726F72210000001D
:1056D0003C0A070866756E6374696F6E20656E74A8
:1056E0007279206572726F720D0A000074797065AC
:1056F0003D622073636F7065206973205B302C31CD
:105700005D2C2062757420686572652069732025A0
:10571000640D0A00747970653D632073636F706572
:10572000206973205B2D3132382C3132375D2C20CB
:1057300062757420686572652069732025640D0A9E
:1057400000000000747970653D75632073636F70AD
:1057500065206973205B302C3235355D2C206275F5
:105760007420686572652069732025750D0A000034
:10577000747970653D692073636F7065206973206B
:105780005B2D33323736382C33323736375D2C20A9
:1057900062757420686572652069732025640D0A3E
:1057A00000000000747970653D75692073636F7047
:1057B00065206973205B302C36353533355D2C2000
:1057C00062757420686572652069732025750D0AFD
:1057D00000000000500B0708756E6B6E6F77207429
:1057E0007970653D2564000073657474696E672087
:1057F000686973746F72792062756666657220439A
:10580000616C6C6F634C6F7753706565644D656D4B
:10581000206661696C65640D0A00000008BFF1A094
:1058200031D082684FF0000C002A40F3D38000BFD3
:105830000CEB4C02036802EBCC0203EB82042368FE
:10584000A2881F7A082F80F0EC80DFE807F0202084
:105850002C3A51657487F2A007F022FC05B04FF096
:10586000FF30BDEC068BF0BDF8A007F019FC05B0C9
:105870004FF0FF30BDEC068BF0BD05B04FF0FF30B0
:10588000BDEC068BF0BD07F00BFC00F0D0B8277B19
:10589000237D9F429CBF237CBB4210D9237D227C69
:1058A0003946F6A02FE0277B237D9F429CBF237CB7
:1058B000BB4204D9237D227C3946FBA023E08F54D0
:1058C00082E0B4F90C70B4F914309F42DCBFB4F933
:1058D0001030BB4206DDB4F91430B4F9102039465B
:1058E000FCA010E08F54A3890A441B0A53706BE09C
:1058F000A789A38A9F429CBF238ABB4206D9A38A59
:10590000228A3946E8A007F0CBFB90E08F54A389A8
:105910000A441B0A537057E0E76863699F42DCBF83
:105920002369BB420EDD00BFD4E904233946E9A058
:1059300007F0B6FB7BE0E76863699F429CBF236981
:10594000BB42F1D88F54A3890A441B0A5370E36801
:105950001B0C9370E3681B0ED37035E094ED03AA23
:1059600094ED050AB4EEC0AAF1EE10FA06DC94ED4F
:10597000040AB4EEC0AAF1EE10FA19D260690AF076
:10598000A7F941EC190B20690AF0A2F941EC180BB8
:105990001AEE100A0AF09CF941EC100B8DED029BF7
:1059A0008DED008B53EC102BD5A007F079FB3EE07A
:1059B000237B8B54A3890A441B0A5370E3681B0C96
:1059C0009370E3681B0ED37082680CF1010C624582
:1059D0003FF72EAFFFF778F9002818BFD3A07FF468
:1059E00052AFE869C6F307420670E969C6F30720BB
:1059F0004870E9698A70EB698221D970AB691E70C1
:105A0000AB695870A8698270A869C17041206B6940
:105A10002A6AE96800F0C4FD05B00020BDEC068BE1
:105A2000F0BD2068017AAFF6BC0007F039FBC9A0D1
:105A300007F036FB21E730B515462DED068B85B016
:105A400038B18268AA4209DC2946CBA007F028FBBE
:105A500064E0AFF6881007F023FB5FE0006805EB19
:105A6000450202EBC50200EB82040A46206890F86A
:105A700008C0C8B2BCF1080F80F09680DFE80CF0D7
:105A80000404182B41545B66217D88429CBF227C14
:105A9000824240F28F8000910246237C2946C0A0BA
:105AA00007F0FEFA05B04FF0FF30BDEC068B30BDBD
:105AB000217D88429CBF227C82427BD90091024694
:105AC000237C2946C2A007F0EBFA05B04FF0FF3067
:105AD000BDEC068B30BDB4F9140012B28242DCBFBB
