:020000040802F0
:100000001862002059DF020861DF020863DF02087E
:1000100065DF020867DF020869DF020800000000F0
:100020000000000000000000000000006BDF02087C
:100030006DDF0208000000006FDF020871DF0208B8
:1000400073DF020873DF020873DF020873DF020840
:1000500073DF020873DF020873DF020873DF020830
:1000600073DF020873DF020873DF020873DF020820
:1000700073DF020873DF020873DF020873DF020810
:1000800073DF020873DF020873DF020873DF020800
:1000900073DF020873DF020873DF0208752D0208A0
:1000A00073DF020873DF020873DF020873DF0208E0
:1000B00073DF020873DF020873DF020873DF0208D0
:1000C00073DF020873DF020873DF020873DF0208C0
:1000D00073DF020873DF020873DF020873DF0208B0
:1000E00073DF020873DF020873DF020873DF0208A0
:1000F00073DF0208152E020873DF020873DF02089F
:1001000073DF020873DF020873DF020873DF02087F
:1001100073DF020873DF020873DF020873DF02086F
:1001200073DF020873DF020873DF020873DF02085F
:1001300073DF020873DF020873DF020873DF02084F
:1001400073DF020873DF020873DF020873DF02083F
:1001500073DF020873DF0208CF2E0208972E020811
:1001600073DF020873DF020873DF020873DF02081F
:1001700073DF020873DF020873DF020873DF02080F
:1001800073DF020873DF020800F002F800F05EF887
:100190000AA090E8000C82448344AAF10107DA45E2
:1001A00001D100F053F8AFF2090EBAE80F0013F0D6
:1001B000010F18BFFB1A43F00103184790F1050027
:1001C000B0F10500103A24BF78C878C1FAD85207B8
:1001D00024BF30C830C144BF04680C6070470000C1
:1001E0000023002400250026103A28BF78C1FBD840
:1001F000520728BF30C148BF0B60704766290FF017
:100200006A8264290CF04C8475290CF049847829A1
:100210000CF0828463290DF0968173290DF09B8187
:10022000002070471FB50FF04CFA0DF0E5FA0400FE
:10023000002000210EF0B6FF401C6060002000216D
:100240000EF0C6FFE0601FBD10B510BD0DF006FC3E
:100250001146FFF7E7FF00F008F80DF077FE03B452
:10026000FFF7F2FF03BC0EF005FA10B503F0A2FC95
:10027000002818BF4FF0FF3010BD000010B500F08F
:100280004FFA28B10CA00CF093FB4FF0FF3010BDDB
:1002900010A00CF08DFB002010BD10B500F04FFA3F
:1002A00028B114A00CF084FB4FF0FF3010BD18A053
:1002B0000CF07EFB002010BD5573657220617070DC
:1002C00020637265617465206661696C6564210DE7
:1002D0000A000000557365722061707020637265BA
:1002E000617465207375636365737366756C6C798F
:1002F000210D0A00557365722061707020696E6966
:100300007469616C206661696C6564210D0A000086
:10031000557365722061707020696E697469616CD3
:10032000207375636365737366756C6C79210D0A50
:1003300000000000EE4908707047ED490028086889
:1003400014BF40F4807020F4807008607047E84962
:100350000028086814BF40F4007020F400700860A2
:100360007047E3490028086814BF40F4806020F417
:10037000806008607047DE48016841F400610160F8
:100380007047DB48016841F4805101607047D948EB
:10039000006810F0004F08BF7047D749D748016088
:1003A000D74901607047D348016841F000410160BE
:1003B0007047D44908200A6812F4803F1CBF01200E
:1003C00070470A6812F0100F1CBF052070470A68BA
:1003D00012F0EF0F1CBF06207047096811F0020FE2
:1003E00018BF072070470820C6490A6812F4803FEA
:1003F00009D00A68082012F4803FFAD10A6812F086
:10040000100F04D112E00A6812F0100F01D005207D
:1004100070470A6812F0EF0F01D006207047096894
:1004200011F0020F08BF7047072070470A6812F0EA
:10043000EF0FF2D1096811F0020FF5D1704710B536
:1004400004464FF0000C51B1012908BF4FF4807CE5
:1004500005D002290CBF4FF4007C4FF4407CFFF71D
:10046000C2FF082818BF10BDA24B186820F44070C6
:100470001860186840EA0C001860186820F0F8004E
:100480001860186844F0020108431860186840F4C6
:1004900080301860FFF7A7FF196821F0020119608A
:1004A000196821F0F801196010BD00B503464FF03E
:1004B000000CFFF798FF53B1012B08BF4FF4807C6D
:1004C00005D0022B0CBF4FF4007C4FF4407C082871
:1004D00018BF00BD874B186820F44070186018687A
:1004E00040EA0C001860186840F0040018601868B2
:1004F00040F480301860FFF776FF196821F004019E
:10050000196000BD30B514460546FFF76CFF08289A
:1005100018BF30BDDFF8DCC1DCF8000020F440700B
:10052000CCF80000DCF8000040F44070CCF800008B
:10053000DCF8000040F00100CCF800002C606B609B
:10054000FFF751FFDCF8001021F00101CCF800109A
:1005500030BD10B58C460446FFF745FF082818BF8C
:1005600010BD644B186820F440701860186840F49F
:1005700000701860186840F001001860C4F800C0EE
:10058000FFF731FF196821F00101196010BD10B5A6
:100590008C460446FFF727FF082818BF10BD554BAF
:1005A000186820F440701860186840F48070186073
:1005B000186840F001001860A4F800C0FFF713FFAE
:1005C000196821F00101196010BD10B50C46844670
:1005D000FFF709FF082818BF10BD464B186820F424
:1005E0004070186018681860186840F001001860C2
:1005F0008CF80040FFF7F7FE196821F0010119603F
:1006000010BD4148006810F0010F08BF70473F4916
:100610003F4801603F49016070473B48016841F035
:1006200001010160704700B58C460346FFF7DBFE11
:10063000082818BF00BD384ABCF1000F108814BF4D
:1006400098431843108000BD00B50346FFF7CBFE6A
:10065000082804BF3148037000BD134610B58C460E
:100660000446FFF7C0FE082818BF10BD26480178D1
:1006700001F00F014CEA010119432143017010BD43
:1006800021490A7822F00C020A700A781043087097
:1006900070471D48017841F002010170A3E61A4835
:1006A0000068C0F3471070471B48008870471B491B
:1006B00000200978AA2918BF012070471248007845
:1006C00000F00C0070470B4A0029116814BF084362
:1006D00021EA0000106070470A4A014600201268B3
:1006E0000A4218BF012070470649086070470000A1
:1006F000003C0240103C024023016745043C02409C
:10070000AB89EFCD0C3C0240143C02403B2A190857
:10071000083C02407F6E5D4C163C0240153C024096
:1007200010B502F06BFE28B12AA00CF041F94FF091
:10073000FF3010BD2DA00CF03BF9002010BD10B50E
:1007400002F03FFF28B130A00CF032F94FF0FF303B
:1007500010BD33A00CF02CF9002010BD3849012247
:10076000487832EA00004870364A4FF400710CBFF6
:100770001183518370473448017841F08001017042
:10078000FEE710B503F06BF928B130A00CF010F9BA
:100790004FF0FF3010BD2A4901200870002010BD25
:1007A0007047274810B5017800291CBF002101704F
:1007B00002F0C4FBBDE8104000F058B8012807D093
:1007C000022808BF7047032818BF704700F09EB981
:1007D00002F057BC556172742063726561746520C4
:1007E0006661696C6564210D0A00000055617274D0
:1007F00020637265617465207375636365737366E6
:10080000756C6C79210D0A005561727420696E69EE
:100810007469616C206661696C6564210D0A000071
:100820005561727420696E697469616C20737563B7
:100830006365737366756C6C79210D0A00000000A6
:100840000000002000200240140000205561727456
:100850002073657474696E67732068616E646C657B
:10086000206572726F72210D0A0000002DE9F001FF
:10087000FE480078FE4F10F0020F4FF004064FF0D4
:100880000204A7F102054FF000021CBF3C802E803D
:1008900016D0F8484168B1F5FA7F3FBF491C416066
:1008A000BDE8F0017047F4490B78002B1CBFBDE890
:1008B000F0017047426003200870BDE8F001704706
:1008C000EE48DFF8C0C301684B1CED4903609CF89B
:1008D0000AC091F80A80EC49B8F1010F06D0BCF1CA
:1008E000010F18BF3E800BD02C80D2E7BCF1010F66
:1008F00003D0B3F57A7FF7D905E0642BF4D902E091
:10090000B3F57A6FF0D90B6883F004030B600260D3
:10091000EAE7002912BF002A002070472DE9F04FB6
:10092000C0F3CF0600F007070844401EC0F3CF0411
:1009300085B09246984600F00705A64256D10020A1
:10094000E91B4A1C8DF80000002A1DDD11F0010F83
:1009500004D18020F8408DF800000120511018BF0C
:10096000802211D007EB000C22FA0CF39DF8004016
:100970000CF1010C22FA0CFC23434CEA0303801C0B
:100980008DF80030491EEDD13246012168460E9B9C
:1009900003F0D2FCBAF1010F7DD90AEB8A0006EB15
:1009A000C000283882B2012168460E9B03F0C4FCC7
:1009B000B8F1000F06D1802020FA07F1E840084383
:1009C0008DF800000124AAF10105012D63DD00BFAF
:1009D00004EB840006EBC00082B2012168460E9B46
:1009E00003F0AAFC641CA542F2DC8BE04FF0FF0987
:1009F00029FA07F08DF80400C5F10700039009FA01
:100A000000F08DF808003246012101A80E9B03F08A
:100A100093FC751CAC420ADD8DF80090AAB201214E
:100A200068460E9B03F088FC6D1CAC42F4DC00238E
:100A30002246012102A803F07FFCBAF1010F61D91F
:100A40000AEB8A0B06EBCB00283882B2012101A801
:100A50000E9B03F071FC751CA5420DDA05EBCB0073
:100A6000283882B28DF80090012168460E9B03F071
:100A700063FC6D1CA542F1DB04EBCB00283882B28D
:100A8000012102A80E9B03F057FCB8F1000F0BD117
:100A90008020F84000E035E08DF804000398012143
:100AA00001FA00F08DF808000127AAF1010BBBF153
:100AB000010F27DD07EB870A06EBCA0082B201218E
:100AC00001A80E9B03F038FCB8F1000F0FD0751C85
:100AD0008DF80090AC420ADD05EBCA0082B201211C
:100AE00068460E9B03F028FC6D1CAC42F4DC04EB62
:100AF000CA0082B2012102A80E9B03F01DFC7F1CDC
:100B00005F45D7DB05B00020BDE8F08F70B5594DCB
:100B100001260024287892B0002877D103F0A6F9A6
:100B20002E7001234B22072141F279600094FFF7D8
:100B3000F0FE00234B22072147F2F9200094FFF733
:100B4000E8FE00234B2207214CF679700094FFF752
:100B5000E0FE0123DF2202214FF4AA500094FFF7A8
:100B6000D8FE0123DF22194641F26B500094FFF7B3
:100B7000D0FE0123DF22194641F2A3500094FFF773
:100B8000C8FE0123DF22194641F203600094FFF7FB
:100B9000C0FE0123DF22194641F24B600094FFF7AB
:100BA000B8FE0123DF22022141F276600094FFF7B4
:100BB000B0FE01231A464FF49C714FF4AA500094E2
:100BC000FFF7A7FE01231A464FF49C714FF42A50F9
:100BD0000094FFF79EFE01231A464FF49C714FF4D8
:100BE0002F500094FFF795FE28A2292105A80BF0AD
:100BF000EBFE31484FF001024FF000010078012870
:100C000005A871D003F069FA7F2300E00AE02BA267
:100C1000292105A80BF0D8FE00224FF4347105A855
:100C200003F05BFAA86814283ABF401CA860AC60C7
:100C3000E86804283CBF401CE86059D3EC60687841
:100C400036EA0000687009D00D48817A0D48012904
:100C5000807A74D0012808BF2D2000D020208DF884
:100C6000140001228DF8154011463EE014000020CA
:100C70001A0802400400002040000020E400002088
:100C800044010020F400002014080240202020200D
:100C9000202020202020323030302D30312D3031B6
:100CA0002030303A30303A303020202020202020B0
:100CB0002020202000000000340000202020414E91
:100CC000542053454E534F522020202020205420A2
:100CD0002028256329202020512028644229202013
:100CE00053542020000000002AE005A803F0F5F985
:100CF000072210A91F2003F035FB9DF840009DF846
:100D0000422000F07F009DF841109DF84330CDE96E
:100D1000031002F07F02CDE901329DF844000090FB
:100D20009DF8463010A2292105A80BF04DFE0122A6
:100D30000C2105A803F0D1F912B0002070BD0EE01F
:100D400003F0CBF97F2310A2292105A80BF03CFE6C
:100D500000224FF4347105A803F0BFF962E70128BF
:100D60000CBF2A202B207AE7253032582D2530322F
:100D7000582D2530325820253032583A25303258F7
:100D80003A2530325800000020CCECCFDF20B4AB45
:100D9000B8D0C6F720202020CEC2B6C820282563B0
:100DA0002920C7BFB6C82864422920D7B4CCAC20BC
:100DB0000000000070B5F7490024D1E905C1BCF17D
:100DC000000F05D01CF0030F02D111F0030F04D067
:100DD000F1480BF0EDFD204670BD614504D8EF48A9
:100DE0000BF0E6FD204670BDC01C20F003056145F8
:100DF00088BF2E1D0AD900BFDCF8000010F0030FD9
:100E000018BF20F0030C03D08C45F5D3204670BDED
:100E1000884206D2026812F0030F02D110468A42BD
:100E2000F8D3A0EB0C02121FB2420AD90CEB050159
:100E300041F8040F41F00100CCF800000CF104006F
:100E400070BDAA42BCBFCCF800008446DCDB40F099
:100E50000100CCF800000CF1040070BDCD4A04295B
:100E600006D311F0030F03D110B110F0030F03D01C
:100E700000205061401E70470144C2E90501016035
:100E80000020704710B5C34CC5494FF0D040C4E9AD
:100E9000050101604FF48060FFF78CFFA06000281F
:100EA0001CBF002010BDBFA00BF082FD4FF0FF3033
:100EB00010BD70B5030012D0104600220029CCBF2F
:100EC000C34C70BD00F0FF0C9D5C521C8CEA050CFD
:100ED000914234F81CC08CEA1020F3DC70BDBDA038
:100EE0000BF066FD4FF6FF7070BD4FF08040406A1A
:100EF00070474FF08041496ABC4B0A1A19460020DE
:100F0000E2FB031080097047401A70474FF08041A0
:100F10004A6A0A30542358434FF47A73B0FBF3F013
:100F200003282CBFC01E70474B6A9B1A9842FBD8FF
:100F300070474FF080414A6AC0EBC00000EB4000B0
:100F40004B6A9B1AB3EB800FFAD3704770B5051E3E
:100F50004FF0000498BF70BD4FF47A70FFF7E9FFBF
:100F6000641CA542F8D870BD70B5051E4FF0000492
:100F70008CBF9F4E70BD3046FFF7DBFF641CAC4258
:100F8000F9D370BD0021002898BF704700BF491CED
:100F90008842FBD870472DE9F0417E4A4143002644
:100FA000D2E905522DB115F0030F02D112F0030F53
:100FB00004D079480BF0FCFC35463CE0AA4204D84A
:100FC00076480BF0F5FC354635E0C81C20F00303ED
:100FD000AA4288BF03F1040C08D92C6814F0030F4F
:100FE00018BF24F0030503D09542F6D3354622E01E
:100FF000944206D2206810F0030F02D104469042BA
:10100000F8D3601B001F604507D9E81840F8044F6B
:1010100040F0010045F8040B08E09842BCBF2C608A
:101020002546E1DB44F0010045F8040B002D1CBF10
:1010300028460BF054FF2846BDE8F0815549D1E918
:101040000523010006D011F0030F03D1914228BF00
:101050008B4202D867480BF0ABBC51F8040D20F06E
:101060000300834206D9026812F0030F02D1104632
:101070009A42F8D3086070472DE9FF4F81B010AF56
:10108000DDE91412B7E87004DDE90E890198002843
:1010900018BF002914D0B8F1000F1CBF0398002816
:1010A0000ED0002C18BF002E0AD0029810B1B0F15B
:1010B000004F0DD9014650A00BF07AFC00F02CB97E
:1010C00044A00BF075FC05B04FF0FF30BDE8F08F89
:1010D000206828432060086890430860444F01E07E
:1010E0007F1E18D003980068049B1842F8D1D8F8E6
:1010F000000010EA090FF3D108681043086042F2BB
:101100001070FFF73FFF039801680498014208BF81
:1011100046480FD109E046A00BF04AFC05B04FF05D
:10112000FF30BDE8F08F401E32D003990A68049961
:101130000A42F8D042F21070FFF724FF002000901E
:101140000298002825D900BFDDE90001002711F829
:1011500000B00120FFF716FF2068A8432060C7F108
:1011600007002BFA00F010F0010F306814BF40EABE
:101170000A0020EA0A0030600120FFF703FF206820
:1011800028432060D8F8000010EA090F77D16DE0FD
:1011900064E07BE01800002058FB02089CFB02087A
:1011A000000010686275666665725F7075626C69D2
:1011B00063204D616C6C6F634C6F77537065656431
:1011C0004D656D206661696C65640D0A0000000064
:1011D0004CF9020866756E6374696F6E20656E74F3
:1011E00072696573206572726F720000C3300CC340
:1011F00040420F00E8FB0208667067615F70726F23
:101200006772616D5F6C656E74683D2575206578E9
:10121000636565642073636F70652028302C3078B7
:101220003830303030303030755D21003F420F00B3
:101230006670676120494E49545F42206F722044B6
:101240004F4E45206C6F7720646574656374206F22
:1012500076657274696D652100000000FEA00BF0D8
:10126000A7FB05B04FF0FF30BDE8F08F0398016891
:101270000498014215D07F1C082FFFF46AAF009834
:101280000299401C00908842FFF45EAF306840EA4B
:101290000A003060F84ED8F8000010EA090F06D0B6
:1012A0001DE03A46F5A000990BF082FB34E003986C
:1012B0000168049801422DD00120FFF763FE2068E9
:1012C000A84320600120FFF75DFE206828432060CE
:1012D000761E26D0D8F8000010EA090FE7D0009952
:1012E0000298401AC700102F38BF1027002601208F
:1012F000FFF748FE2068A84320600120FFF742FE68
:10130000206828432060761CBE42F0D305B0002040
:10131000BDE8F08FE7A005E005B04FF0FF30BDE875
:10132000F08FEEA00BF044FBF6E770B5FFF7DDFDA4
:10133000F24CF34DE168401AA8420DD32068401CDE
:10134000206001F5A03000F50260E060FFF7CDFD00
:10135000E168401AA842F1D221682069091AB1F562
:101360007A7F0AD36168491C6160216800F57A7050
:10137000091AB1F57A7FF5D220612068B0F5FA6FCD
:1013800038BF70BD0120DF49087070BD2DE9F04104
:10139000002B18BF002A23D015680026002D02BF9D
:1013A0001E700846BDE8F08108464FF0000C6F1E25
:1013B0006446002F0DDD00BF10F80C500A2D18BF39
:1013C00003F80C5012D000BF0CF1010C641CBC459A
:1013D000F2DB03F80C602044C2F800C0BDE8F081E5
:1013E000C9A00BF0E5FA0020BDE8F081BCF1000FC8
:1013F00013DD03EB0C0515F8015C0D2D04D1ACF1E8
:10140000010CBCF1000F08DD03EB0C0515F8015CC5
:101410005C2D08BFACF1010CD6D0641CD9E710B527
:10142000FFF747FD10BD2DE9FF4FC9B01E46DDE9AE
:101430005605499ADDF86091002A1CBF1768002FF5
:1014400040D000291CBF4B9A002A3BD0002E1CBF65
:101450000028002D36D0B9F1000F3BD0419000207C
:10146000884644904090B94240F22082DFF88CA236
:1014700009F00100CDF81C01A8EB0700401C4390C7
:10148000B0F5806F84BF4FF480604390306843AA0A
:10149000401C306039460120DAF80830FFF776FF4B
:1014A000070018BFDAF808001CD00178202914BF03
:1014B0000929401CF9D011F0FF0F00F0F4812F2909
:1014C00015D018E096A00BF073FA4DB04FF0FF3036
:1014D000BDE8F08F99A00BF06BFA4DB04FF0FF30E4
:1014E000BDE8F08F9AA031680BF062FA23E04178F2
:1014F0002F2900F0D8814FF48072694606F078FCFD
:10150000429068464B990BF037FD0028419809D06E
:1015100041684098814219DC41983168426895A041
:1015200000F0C7B943684098834209D002469EA0A4
:1015300031680BF03DFA4DB04FF0FF30BDE8F08F51
:10154000499807604DB00020BDE8F08F0024B9F144
:10155000000FCABFDDF81CB14FF0000BBBF1000F4C
:101560000BDD00BF04EB440055F8201068460BF07B
:1015700003FDB8B1641CA345F4DC5C46CB4511DA2D
:1015800004EB440B684655F82B100BF0F5FC48B102
:1015900005EB8B00C16868460BF0EEFC48B1A41C5B
:1015A000A145EDDC4C4506D16A468AA0316800F0C1
:1015B00080B9641CF6E741984FF480736A4601686D
:1015C000409800EB400001EBC00B4098401C40905D
:1015D00004EB440005EB8000CBF80000884801785C
:1015E000884850F82100429906F069FC38B18448D7
:1015F0000178844850F8212083A0316859E1684679
:101600000BF0C7FB401CFFF7D5FB040021D0684658
:101610000BF0BFFB421C694620460BF082FC68467B
:10162000CBF810400BF0B5FB401CFFF7C3FB0400E8
:1016300010D068460BF0ADFB401C469068460BF09E
:10164000A8FB014622466846469B06F09AF9002808
:10165000F2E0F5E0F7E00000494E49545F422068AF
:1016600069676820646574656374206F7665727459
:10167000696D65210000000040420F0046706761FF
:1016800020627974655B25755D206269745B2575E0
:101690005D20646F776E6C6F6164206572726F722B
:1016A0002C20494E49545F4220676F746F206C6F45
:1016B000772100004670676120646F776E6C6F6100
:1016C00064206572726F722C20494E49545F42202B
:1016D000676F746F206C6F772100000046504741A0
:1016E0005F444F4E45206869676820646574656390
:1016F00074206F76657274696D6521001800002092
:10170000204801003C00002066756E6374696F6EAE
:1017100020656E74727973206572726F7221000099
:1017200066756E6374696F6E20656E74727973206E
:101730006572726F72210D0A000000004E6F2073F7
:1017400069676E616C20646566696E65210D0A00CB
:10175000446576206366672072656164206C696EFB
:1017600065206572726F7221206C696E653A25641E
:101770000D0A0000446576436667204C25643A7381
:10178000656374696F6E206974656D206E756D2078
:1017900077696C6C2067726561746572207468612A
:1017A0006E2025640D0A0000446576436667204C70
:1017B00025643A73656374696F6E206974656D2082
:1017C0006E756D206572726F72202564213D2564EF
:1017D0000D0A0000446576436667204C25643A7321
:1017E00069676E616C5F646566696E65202225734A
:1017F000222066696E64206661696C65640D0A006A
:1018000034000020AC000020446576436667204C1D
:1018100025643A676574206B6579776F726420225E
:1018200025732220636F6E74656E74206661696C27
:101830006564210D0A0000000ADAE2A0316804E0C4
:10184000ED48316801E0EDA031680BF0B1F872E6C7
:10185000CBF80C404FF480736A46F7A0429906F02B
:101860002EFB48BB9DF8000030B368460BF091FAA0
:10187000401CFFF79FFA0400E2D068460BF089FA9B
:10188000421C694620460BF04CFBCBF8144045AB9C
:101890000622EBA0429903F080FA002814BF002032
:1018A0004598CBF80800B8453FF6E6ADE7A0449A66
:1018B0004B990BF07DF83EE60020CBF81400E6E7EC
:1018C0002DE9FF4FC9B01E46DDE95605499ADDF8FE
:1018D0006091002A1CBF1768002F3FD000291CBF51
:1018E0004B9A002A3AD0002E1CBF0028002D35D07C
:1018F000B9F1000F3BD041900020884644904090C1
:10190000B94240F24A81DFF87CA309F00100479018
:10191000A8EB0700401C4390B0F5806F84BF4FF4E4
:1019200080604390306843AA401C306039460120F3
:10193000DAF80830FFF72AFD070018BFDAF80800C8
:101940001ED00178202914BF0929401CF9D011F0BC
:10195000FF0F00F01F812F2918D01BE0AFF24020AD
:101960000BF026F84DB04FF0FF30BDE8F08FAFF22E
:1019700034200BF01DF84DB04FF0FF30BDE8F08F74
:10198000AFF2342031680BF013F825E041782F29AD
:1019900000F000814FF48072694606F029FA429007
:1019A00068464B990BF0E8FA002841980AD0416844
:1019B000409881421BDC41984268AFF24820316870
:1019C00000F0EEB84368409883420AD00246AFF276
:1019D000282031680AF0ECFF4DB04FF0FF30BDE831
:1019E000F08F499807604DB00020BDE8F08F0024CB
:1019F000B9F1000FCABFDDF81CB14FF0000BBBF10D
:101A0000000F0ADD04EB440055F8201068460BF087
:101A1000B3FAB8B1641CA345F4DC5C46CB4511DADB
:101A200004EB440B684655F82B100BF0A5FA48B1AF
:101A300005EB8B00C16868460BF09EFA50B1A41C00
:101A4000A145EDDC4C4507D16A46AFF278203168FC
:101A500000F0A6B8641CF5E741984FF480736A461D
:101A600001684098C0EBC00001EB800B4098401C1F
:101A7000409004EB440005EB8000CBF80000824866
:101A80000178824850F82100429906F018FA40B1D6
:101A90007D4801787D4850F82120AFF294203168CC
:101AA0007EE068460BF075F9401CFFF783F90400EF
:101AB00057D068460BF06DF9421C694620460BF082
:101AC00030FA6846CBF814400BF063F9401CFFF77E
:101AD00071F9040012D068460BF05BF9401C469087
:101AE00068460BF056F9014622466846469B05F0CB
:101AF00048FF002805DA66A031682BE071A0316844
:101B000028E0CBF810404FF480736A464AA042990F
:101B100006F0D5F908BB9DF80000F0B168460BF05F
:101B200038F9401CFFF746F904001AD068460BF05C
:101B300030F9421C694620460BF0F3F9CBF8184007
:101B40004FF480736A466EA0429906F0B8F958B116
:101B50006DA031680AF02CFF3EE70020CBF818009A
:101B6000EEE775483168F5E7042269460BF1080095
:101B70000BF0D7F900248BF80C4045AB062230A0BF
:101B8000429903F00AF9002812BFCBF804404598A7
:101B9000CBF80400B8453FF6BBAE2CA0449A4B9955
:101BA0000AF006FF18E72DE9F04FADF5137D634805
:101BB0000390C178812904D061A00AF0F9FE00F0F9
:101BC00075BFCBE0446576436667204C25643A7068
:101BD0005F7369676E616C5F62696E6172792D3ED9
:101BE0006465736320656E636F64696E6720666108
:101BF000696C65640D0A000088FC02084465764340
:101C00006667204C25643A705F7369676E616C5F2C
:101C100062696E6172792D3E64657363204D616CFB
:101C20006C6F634C6F7753706565644D656D2066AE
:101C300061696C65640D0A0072656D61726B00000C
:101C4000696E76697369626C650000007061727319
:101C50006520222573222073656374696F6E206688
:101C600061696C65642C2073656374696F6E5F7065
:101C7000617273655F7374617475733D25640D0AD9
:101C8000000000001800002034000020AC000020FC
:101C9000446576436667204C25643A705F736967D4
:101CA0006E616C5F616E616C6F672D3E646573631E
:101CB00020656E636F64696E67206661696C656438
:101CC0000D0A0000446576436667204C25643A702F
:101CD0005F7369676E616C5F616E616C6F672D3EEB
:101CE00064657363204D616C6C6F634C6F775370E8
:101CF0006565644D656D206661696C65640D0A00FB
:101D0000756E697400000000446576436667204C78
:101D100025643A676574206B6579776F7264202259
:101D2000756E69742220636F6E74656E74206661CF
:101D3000696C6564210D0A00CCFC020800000E08E5
:101D40004465762063666720747970652069732026
:101D50006572726F72210D0A00000000006820F0A9
:101D60007F44EE48844288BFEDA00BD8F44845F686
:101D70005A2204F10E010390FFF751FB002818BF0F
:101D8000F0A003D00AF014FE00F090BEF34DFF2047
:101D9000012328702A460421412004F0A1F8287864
:101DA0000026032810D3EEA00AF002FE01232A46E3
:101DB00048F20401412004F093F82878032803D363
:101DC000F2A00AF0F5FD2E70DFF8F8A303994FF4A6
:101DD000806BCDF824B20F1989AA0120DAF80830F7
:101DE000FFF7D4FA0390002808BFF7A0CAD02A78DA
:101DF0008999DAF8080005F05BFD002818BFF9A002
:101E0000C0D101208890D54846600398874240F2AF
:101E10009786DFF8F093FC4D99F8000000F0010080
:101E200090900399781A401C8A90B0F5806F88BF13
:101E3000CDF828B288988AAA401C88900120DAF848
:101E40000830FFF7A3FA0390002818BFDAF808005B
:101E50000CD00178202914BF0929401CF9D011F0B9
:101E6000FF0F00F069862F290BD00EE0AFF2207033
:101E700088990AF09DFD0DF5137D4FF0FF30BDE808
:101E8000F08F41782F2900F057864FF4807204A913
:101E900005F0AEFFB14C0646207910F0010F04D1D9
:101EA000DAA104A80BF068F830B1207910F0020F25
:101EB00040F0FD8200F0F6BA4FF4807304AA314678
:101EC000D7A005F0FCFF002840F00786002211464D
:101ED00004A80AF0EDFED34E0028B06008BFD2A0DF
:101EE00000F022832C21FFF756F8306070B30020F9
:101EF0008C900120DDF80C808690474540F292825C
:101F0000A7EB0800401C8790B0F5806F88BFCDF824
:101F10001CB2889887AA401C889041460120DAF8B4
:101F20000830FFF733FA5FEA000818BFDAF8080054
:101F300016D00178202914BF0929401CF9D011F0CE
:101F4000FF0F00F06C822F2910D013E0BCA08899FD
:101F50000AF02EFD0DF5137D4FF0FF30BDE8F08F38
:101F6000AFF6140088990AF023FD3FE041782F294D
:101F700000F055824FF4807244A905F039FF0090BB
:101F8000BDA144A80AF0F8FFA8B1C0A144A80AF076
:101F9000F3FF0028A34804BF0668BF4878D08168D3
:101FA000869881422CDC9F488268AFF63800889979
:101FB0000AF0FEFC1AE09B48869982688A4206D0A5
:101FC0008368AFF61C00869A889900F0EDB900216D
:101FD000C1604FF400410161891F924802F078FF0F
:101FE000002800F02782ADA00AF0E2FCB6A0889994
:101FF0000AF0DEFC0DF5137D4FF0FF30BDE8F08FE9
:10200000D9F8000000240028CABF909E0026002EA8
:102010000BDD00BF04EB440055F8201044A80AF083
:10202000ABFFD8B1641CA642F4DCD9F800003446FA
:10203000864213DA04EB440644A855F826100AF049
:102040009BFF58B105EB8600C16844A80AF094FFD5
:1020500060B1D9F80000A41CA042EBDCD9F8000064
:10206000844205D144AAA5A0889926E0641CF5E71E
:102070006C480168869800EB400202EBC00001EB5F
:1020800080068698401C869004EB440005EB800097
:10209000306032484FF4807344AA0178A44850F865
:1020A0002100009905F00BFF50B12C480178A048A1
:1020B00050F82120AFF6B00088990AF079FC95E736
:1020C00044A80AF066FE401CFEF774FE040000F00F
:1020D000AE8144A80AF05DFE421C44A920460AF0E5
:1020E00020FF44A874620AF054FE401CFEF762FE12
:1020F000040010D044A80AF04CFE401C8F9044A865
:102100000AF047FE0146224644A88F9B05F039FCA1
:10211000002801DA0EE110E114E1000072FF010075
:1021200044657620636667206C656E67746820631B
:102130006865636B206572726F72210D0A00000082
:1021400080000E0844657620636667206372632012
:102150006973206572726F72210D0A0034000020CD
:102160004C616E677561676520697320756E6B6E73
:102170006F772C20747279206261636B7570206CAC
:10218000616E6775616765210D0A00004261636BCE
:102190007570206C616E6775616765206973206179
:1021A0006C736F20756E6B6E6F772C207573652066
:1021B00064656661756C74206C616E6775616765D6
:1021C000210D0A0018000020446576206366672010
:1021D00072656164206C696E65206572726F722130
:1021E0000D0A000055746638546F537973456E6359
:1021F0006F6465496E6974616C206661696C6564C1
:10220000210D0A0080F80208D8F702083C537973C0
:1022100074656D506172616D6574657200000000D7
:102220004E756D009401002053657474696E677378
:1022300020627970617373206D6F6465210D0A00EF
:10224000446576436667204C25643A736574746907
:102250006E675F73797374656D2043616C6C6F6337
:102260004C6F7753706565644D656D206661696C70
:1022700065640D0A000000003C2F53797374656D8E
:10228000506172616D657465720000006C616E670B
:1022900075616765000000004CFB02087379737478
:1022A000656D2073657474696E6720656570726F03
:1022B0006D20737061636520616C6C6F6320666173
:1022C000696C65640D0A0000446576436667204CBE
:1022D00025643A53797374656D506172616D6574EC
:1022E00065722073656374696F6E207061727365C7
:1022F000206661696C65640D0A00000044657643E0
:102300006667204C25643A73657474696E675F7301
:10231000797374656D5F646566696E6520222573E7
:10232000222066696E64206661696C65640D0A002E
:10233000AC000020B9A0889901E0C4A088990AF0F7
:1023400037FB53E64FF4807344AA3462AFF2506017
:10235000009905F0B4FD18B1AFF254608899EEE72A
:10236000042244A906F118000AF0DBFD00243477AA
:102370008DAB0622AFF23870009902F00EFD0028F6
:1023800012BFB4608D98B060306806F110030099F8
:10239000027ABCA002F001FD00283068027A06D063
:1023A00044ABB9A0DDF820120AF002FB1EE606F1EC
:1023B0001403C3A0009902F0F0FC00283068027AF0
:1023C00003D044ABBFA08899EEE706F10C03CBA085
:1023D000009902F0E2FC28B1306844AB8899027A97
:1023E000C8A0E1E74FF4807344AAAFF2B47000993B
:1023F00005F065FDC8B99DF81001B0B144A80AF018
:10240000C8FC401CFEF7D6FC040010D044A80AF01B
:10241000C0FC421C44A920460AF083FDB462474533
:102420003FF66EADC6A08C9989E7B462F7E7D1A0FC
:10243000889984E7DE4802F0E5F950B3DC480123CF
:1024400091AAC168412003F04BFD9DF84402FF288A
:1024500018BFD8487FF4C8ADD7A00AF0A9FAD4486D
:1024600002F0D6FB002818BFE2A07FF4BDADD04833
:1024700003F0B0FC002818BFE4A07FF4B5ADE9A0DC
:102480000AF096FA4FF4FA70FEF760FDFEF773F962
:10249000FEE7F248CDF80C80416841F0010141604F
:1024A00000F04ABBEEA104A80AF066FD20B1207935
:1024B00010F0040F4BD145E04FF4807304AA31466D
:1024C000AFF2A42005F0FBFC002840F006830022B8
:1024D000114604A80AF0ECFBE34E0028706008BF28
:1024E000E2A021D01C21FEF756FD306000B3E74882
:1024F00088ABE8A20168E6480096CDE901013946BB
:1025000003A8FFF7DDF9002804BF606840F002006F
:1025100000F0D382E2A088990AF04AFA0DF5137D03
:102520004FF0FF30BDE8F08F0AF042FA00F004BB34
:10253000E6A088990AF03CFA0DF5137D4FF0FF30C4
:10254000BDE8F08FEEA104A80AF016FD20B12079B5
:1025500010F0080F46D140E04FF4807304AA3146D2
:10256000AFF2443005F0ABFC002840F0B682002208
:10257000114604A80AF09CFBE54E0028706008BFD5
:10258000E4A0D1D01C21FEF706FD3060D8B1EA48A6
:1025900088ABEBA20168E9480096CDE90101394614
:1025A00003A8FFF78DF9002804BF606840F004001D
:1025B00030D0E7A088990AF0FBF90DF5137D4FF0B4
:1025C000FF30BDE8F08FEEA088990AF0F1F90DF523
:1025D000137D4FF0FF30BDE8F08FF8A104A80AF09A
:1025E000CBFC20B1207910F0100F14D121E24FF470
:1025F000807304AA3146AFF2D83005F060FC0028A1
:102600000AD10022114604A80AF052FBF04E00281D
:102610007060DFE151E211E24EE200004465764372
:102620006667204C25643A705F73657474696E67E1
:102630002D3E6465736320656E636F64696E672009
:102640006661696C65640D0A0000000044657643AC
:102650006667204C25643A705F73657474696E67B1
:102660002D3E64657363204D616C6C6F634C6F77B6
:1026700053706565644D656D206661696C65640DB8
:102680000A0000006D696E00446576436667204C61
:1026900025643A676574206D696E2076616C756596
:1026A00020747970653D2564206661696C656421DC
:1026B0002C207374723D222573220D0A0000000045
:1026C0006D617800446576436667204C25643A67FF
:1026D0006574206D61782076616C75652074797001
:1026E000653D2564206661696C6564212C207374E6
:1026F000723D222573220D0A0000000064656661A8
:10270000756C7400446576436667204C25643A67AF
:1027100065742064656661756C742076616C75659E
:1027200020747970653D2564206661696C6564215B
:102730002C207374723D222573220D0A00000000C4
:102740007061727365206F6E652073656374696F65
:102750006E206661696C65642C2073656374696FB3
:102760006E5F70617273655F7374617475733D251C
:10277000640D0A00446576436667204C25643A7010
:102780005F73657474696E672D3E646573635F750E
:10279000746638204D616C6C6F634C6F7753706555
:1027A00065644D656D206661696C65640D0A0000A5
:1027B0009401002010FD020844657669636520706D
:1027C0006F776572206F6E2066697273742074690A
:1027D0006D652C20616E642073617665207365746D
:1027E00074696E677320746F2064656661756C74BC
:1027F000210D0A0073657474696E672073617665D4
:10280000206661696C656421000000007365747462
:10281000696E6720636865636B206661696C6564D7
:1028200021000000536176652064656661756C74F3
:102830002073657474696E67732073756363657361
:1028400073210D0A5265626F6F74696E672064654B
:10285000766963652E2E2E0D0A00000034000020DC
:102860003C416E616C6F67007C0000205369676EAD
:10287000616C20416E616C6F672062797061737367
:10288000206D6F6465210D0A0000000038F9020810
:1028900084F802083C2F416E616C6F6700000000F5
:1028A000446576436667204C25643A416E616C6FDF
:1028B000672073656374696F6E2070617273652041
:1028C0006661696C65640D0A00000000446576432A
:1028D0006667204C25643A616E616C6F675F677252
:1028E0006F75702043616C6C6F634C6F77537065CC
:1028F00065644D656D206661696C65640D0A000054
:102900003C53656C66446961676E6F7365000000D7
:10291000840000205369676E616C2053656C662DDE
:10292000446961676E6F73652062797061737320AB
:102930006D6F6465210D0A003CF9020890F80208E9
:102940003C2F53656C66446961676E6F7365000068
:10295000446576436667204C25643A53656C66444B
:102960006961676E6F73652073656374696F6E204C
:102970007061727365206661696C65640D0A0000A0
:10298000446576436667204C25643A73656C665FE0
:10299000646961676E6F73655F67726F75702043FE
:1029A000616C6C6F634C6F7753706565644D656DDA
:1029B000206661696C65640D0A0000003C53656C1B
:1029C00066446961676E6F736542696E000000005E
:1029D0008C00002008BF5BA03FF4A6AD1821FEF7D5
:1029E000DAFA3060D8B16148614988AB0068009676
:1029F000CDE901105FA2394603A8FEF714FD0028B7
:102A000004BF606840F0080057D05FA0889909F0C3
:102A1000CFFF0DF5137D4FF0FF30BDE8F08F67A0BD
:102A2000889909F0C5FF0DF5137D4FF0FF30BDE823
:102A3000F08F72A104A80AF09FFA20B1207910F05B
:102A4000200F79D13BE04FF4807304AA3146AFF6F2
:102A5000300005F034FA78BB0022114604A80AF0D1
:102A600027F9694E0028706008BF68A03FF45CAD8C
:102A70001821FEF790FA3060A0B16B486B4988AB23
:102A800000680096CDE9011069A2394603A8FEF757
:102A9000CAFC002804BF606840F010000DD067A099
:102AA00088993FE070A0889909F082FF4FF0FF30CD
:102AB0000DF5137DBDE8F08F0FE060603CE078A17C
:102AC00004A80AF059FA50BB4FF4807304AA3146A7
:102AD000AFF6B40005F0F3F910B174A0889921E0C5
:102AE0000022114604A80AF0E3F87A4E002870602C
:102AF00008BF79A03FF418AD1821FEF74CFA3060FA
:102B000098B17E487E4988AB00680096CDE90110F7
:102B10007CA2394603A8FEF786FC48B100E00BE032
:102B20007BA0889909F044FFC0E784A08899F9E761
:102B3000606840F020006060039887423FF671A90A
:102B40000020B5E75369676E616C2053656C662D94
:102B5000446961676E6F73652042696E20627970A7
:102B6000617373206D6F6465210D0A0040F90208DE
:102B700014F902083C2F53656C66446961676E6FF7
:102B8000736542696E000000446576436667204CB9
:102B900025643A53656C66446961676E6F7365427C
:102BA000696E2073656374696F6E207061727365FE
:102BB000206661696C65640D0A0000004465764317
:102BC0006667204C25643A73656C665F646961676B
:102BD0006E6F73655F62696E5F67726F75702043B9
:102BE000616C6C6F634C6F7753706565644D656D98
:102BF000206661696C65640D0A0000003C42696EE4
:102C0000496E7075740000009400002042696E20C7
:102C1000696E70757420627970617373206D6F6472
:102C200065210D0A0000000044F9020820F902089D
:102C30003C2F42696E496E7075740000446576439E
:102C40006667204C25643A42696E496E707574203F
:102C500073656374696F6E2070617273652066615D
:102C6000696C65640D0A0000446576436667204C14
:102C700025643A62696E5F696E7075745F67726F22
:102C800075702043616C6C6F634C6F775370656532
:102C9000644D656D206661696C65640D0A00000015
:102CA0003C42696E4F7574707574000044657643DC
:102CB0006667204C25643A676574206B6579776F89
:102CC000726420224E756D22206661696C65640D08
:102CD0000A0000009C0000205369676E616C20624E
:102CE000696E206F7574707574206279706173738A
:102CF000206D6F6465210D0A0000000048F902088C
:102D00002CF902083C2F42696E4F7574707574007F
:102D1000446576436667204C25643A42696E4F7578
:102D2000747075742073656374696F6E207061725E
:102D30007365206661696C65640D0A0044657643BD
:102D40006667204C25643A62696E5F6F75747075B2
:102D5000745F67726F75702043616C6C6F634C6F4A
:102D60007753706565644D656D206661696C656457
:102D70000D0A00002DE9F041FEF7B7F84FF0E0250D
:102D80000746D5F8840140F40050C5F88401FEF7E9
:102D9000CCFA634E307810F0010F18BFFDF701FD3B
:102DA000604800686049C0F5007008805F4C607939
:102DB000B0B9E178012041B9217831B1E070D5F89E
:102DC000081241F08001C5F80812217941B96178F3
:102DD00031B12071D5F8080240F04000C5F8080272
:102DE0003078A07052480068E060307810F0800FB2
:102DF00008BFFDF7B3FC3846FEF77BF8E0612169B8
:102E0000814238BF20614B48016841F040010160B8
:102E1000BDE8F08170B5FEF788FA414D287810F0D2
:102E2000010F18BF00F08AF83E4800683E49C0F51F
:102E3000007008803D4C6079C0B9E27801214FF004
:102E4000E02042B9227832B1E170D0F8082242F095
:102E50008002C0F80822227942B9627832B1217129
:102E6000D0F8081241F04001C0F808122878A0708C
:102E70002F480068E060287810F0800F08BFFDF749
:102E80006DFC002020612C48018A21F003010182A1
:102E900070BD7047704770B5FEF727F8234C0546A4
:102EA000E088411C1E48E180007810F0010F1CBF33
:102EB0002078FDF783FC2846FEF71BF82062616945
:102EC000814238BF606100202070E07070BD70B535
:102ED000FEF70BF8154C05462089411C104821814E
:102EE000007810F0010F1CBF6078FFF7D3FF284671
:102EF000FDF7FFFFA061616A814238BF6062002078
:102F00006070207170BD094841790029FCD1012110
:102F1000417100207047054900204871704700004A
:102F2000140000208C640240BA0000204000002001
:102F30001C000020143C0140002000402DE9F0015D
:102F4000F64807790126C024F54DF64BF6490022D4
:102F50004FB1092F1ED084460A2FDCF800C020D0C4
:102F60001A2F2DD138E0D1F88CC0CCF5007CA0F818
:102F700014C093F800C0BCF1000F27D1B0F814C002
:102F8000C78AACEB070CCCF3080CBCF1000F18BFE0
:102F90001E701BE0D1F8A0C04CF0010CC1F8A0C01D
:102FA0000EE04F6817F4001F10D0BCF800C034EAE0
:102FB0000C0C0BD1D1F80CC04CF4741CC1F80CC033
:102FC00090F804C00CF1010C80F804C0877ADFF897
:102FD0005CC3012F11D107E0ACF800204FF0040CC6
:102FE000A5F800C00271F1E7C768DCF80080A8EB23
:102FF0000707B7F5FA6F88BF8272CD48077937B1F6
:10300000092F12D00A2F15D01A2F20D133E0496C86
:10301000C1F5007181821978E1B9818AC48A091BDE
:10302000C905C90D18BF1E7014E00B6F43F00103F2
:103030000B670CE04B6813F0200F0BD003681B8864
:1030400034EA030306D1CB6843F03D03CB6001793A
:10305000491C0171817A01291CBFBDE8F00170474C
:10306000C168DCF80030591AB1F5FA6F88BF827276
:10307000BDE8F001704701680A80202129800271B3
:10308000E8E72DE9F84FFDF730FFA44F0090B88A2C
:10309000F98A401AC005C00D1CBF787A002804D0F8
:1030A000012804BF384604F0AEFAF98CC02400258C
:1030B0000126002918BFD7F82CC07CD058DDB1F507
:1030C000803F55D8BCF1000F18BF944B4DD01879F4
:1030D0000028FCD1B1F5007F5DDDA1F50078B8F1E5
:1030E000000FC8BFDFF840E252DD00BFB8F5007F37
:1030F000A8BF4FF4007002DAB8F100000CDD6146A1
:1031000000228146D3F820B011F801AB0BF802A0E1
:10311000521CB9F10109F5D1DEF8A01011F0010F30
:103120000BD000BFDEF8A01021F00101CEF8A010F6
:10313000DEF8A01011F0010FF4D1196ACEF8AC102E
:10314000CEF8A400DEF80C1041F47411CEF80C1087
:1031500019680A8834EA02021CBF1A79002AF8D1D9
:103160000D801E71197A39B903E072A009F020FCB4
:1031700049E0774A04211180DEF8A01041F00101F6
:10318000CEF8A010A8EB00088444B8F1000FADDC25
:103190004FF4007101E000290BDD00204FEA01022D
:1031A000D3F820901CF8018B09F80080401C521EB7
:1031B000F6D15D4800E027E0D0F8A420002AF9D13C
:1031C000D0F8A02012F0010F0BD000BFD0F8A02043
:1031D00022F00102C0F8A020D0F8A02012F0010FC8
:1031E000F4D11A6AC0F8AC20C0F8A410C16841F448
:1031F0007411C160197A00297ED0D0F8A01041F076
:103200000101C0F8A010FD840098FDF772FE51493D
:103210004860096881423CBF4E490860FDF765FE81
:10322000434F00903846B98AFA8A891AC905C90DF0
:103230001CBF417A002903D0012908BF04F0E3F93B
:10324000F98C002918BFD7F82CB066D064DDB1F531
:10325000803F61D8BBF1000F18BFDFF8D4C058D051
:103260009CF804000028FBD1B1F5007F74DDA1F5C6
:1032700000700028C8BFDFF8B0E07DDDB0F5007F4A
:10328000A8BF4FF4007301DA031E0DDD594600227A
:103290004FEA0308DCF820A011F8019B0AF802901D
:1032A000521CB8F10108F5D1DEF8701011F0010FD1
:1032B0000BD000BFDEF8701021F00101CEF87010C5
:1032C000DEF8701011F0010FF4D1DCF82010CEF808
:1032D0007C10CEF87430DEF80C1041F03D01CEF8D1
:1032E0000C10DCF800100A8834EA02021CBF9CF8BB
:1032F0000420002AF7D100E006E00D808CF804607D
:103300009CF8081051BB2AE01E7111490420088066
:1033100079E708A009F04CFB5DE05DE0F4000020D7
:10332000181C0240400000200060024018000020ED
:103330004401002066756E6374696F6E20656E745B
:10334000727973206572726F72210D0A000000009D
:103350001A1C02406800002011E00DE002E0FB4A68
:1033600020211180DEF8701041F00101CEF87010BC
:10337000C01A9B44002881DC4FF4007101E0002951
:103380000ADD00224FEA0100DCF820401BF8013B77
:10339000A354521C401EF7D1ED48426F002AFCD1C5
:1033A000026F12F0010F07D0026F22F001020267D4
:1033B000026F12F0010FF7D1DCF82020C2674167DD
:1033C000C16841F03D01C1609CF8081081B1016FF6
:1033D00041F001010167FD840098FDF78AFDDD4998
:1033E000C8608A68824238BF88600020BDE8F88FD4
:1033F0008CF80460D54920200880ECE72DE9F041E5
:10340000D54C4FF40070FDF7D5FCE061002808BFF3
:10341000D2A000F063804FF40070FDF7CBFC206277
:10342000002808BFD8A000F059804FF48070FDF745
:10343000C1FCA062002808BFDEA000F04F804FF45E
:103440008070FDF7B7FCE062002808BFE6A045D019
:10345000F24820600126E680002525726672052765
:103460004FF00208A76184F810806574A674ECA080
:1034700009F09EFAF34C7002FDF79CFCE061002815
:1034800008BFB6A033D04FF40070FDF793FC206264
:10349000002808BFBCA02AD04FF48070FDF78AFC3A
:1034A000A062002808BFC3A021D04FF48070FDF7B0
:1034B00081FCE062002808BFCBA018D0E248206061
:1034C000E68025726672A76184F810806574A67420
:1034D000DEA009F06DFA0020BDE8F08109F068FA7D
:1034E000E3A009F065FA4FF0FF30BDE8F08109F084
:1034F0005FFAE6A009F05CFA4FF0FF30BDE8F0811A
:1035000070B550B1817C044608290BD3E6A009F0C0
:103510004FFA00BF4FF0FF3070BDAFF2E81009F076
:1035200047FAF7E72068A0F18042B2F588321CBF65
:10353000A0F18042B2F58A3203893AD1E54A32F8E5
:1035400011108B4218BF002900D00181607C2168D6
:103550008007800C08822068818921F4B055217C85
:10356000012908BF45F4B05503D0022908BF45F42E
:10357000A0558189A9420DD021790029FCD18189EA
:1035800021F00C0121F4005181810520FDF7DEFCC2
:10359000206885810020E072A06905283CBF0520D5
:1035A000A06104D3CC49814238BF0846A061002005
:1035B00070BDCA4A32F811108B4218BF0029C5D01D
:1035C000C3E72DE9F05FC648634D006840F0C101D4
:1035D000C34841F400110160DFF80883D8F8000007
:1035E00040F40030C8F80000BF4804210180BF4803
:1035F0000068BE4920F0300040F010000860081D4F
:103600000068091D20F004000860081D016841F0F1
:1036100030010160DFF8D8924FF4C050A9F80000E3
:1036200009F1020B4FF4006AABF800A0B148016841
:1036300021F0707141F0A0710160001D016821F45A
:10364000C0510160001D016841F070710160AA4E17
:10365000306820F0F00040F0A0003060706820F08A
:103660000C007060B06840F0F000B060306A20F488
:103670007F4040F4EE403062354CD4F8880010F0C2
:10368000010F0AD0D4F8880020F00100C4F88800A7
:10369000D4F8880010F0010FF4D12868001DC4F898
:1036A0009000E869C4F894004FF40070C4F88C00EE
:1036B0009248C4F888000320C4F89C00E06840F4F5
:1036C0007460E060D4F8A00010F0010F0BD000BFD0
:1036D000D4F8A00020F00100C4F8A000D4F8A000A5
:1036E00010F0010FF4D12868001DC4F8A800286A62
:1036F000C4F8AC000120C4F8A4008148C4F8A000BC
:103700000720C4F8B400E06840F47410E060296851
:10371000C0208882286800270782286807802968D7
:1037200042F20C008881D4F8880040F00100C4F80F
:103730008800D4F8A00040F00100C4F8A00028469A
:10374000FFF7DEFE00B1DDE0E5E000001A1C0240FC
:103750000060024068000020F4000020756172746F
:1037600020322072785F627566666572204D616CEA
:103770006C6F634C6F7753706565644D656D206643
:1037800061696C65640D0A00756172742032207481
:10379000785F627566666572204D616C6C6F634C14
:1037A0006F7753706565644D656D206661696C6502
:1037B000640D0A007561727420322072785F66723F
:1037C000616D655F627566666572204D616C6C6FD8
:1037D000634C6F7753706565644D656D20666169F4
:1037E0006C65640D0A0000007561727420322074EB
:1037F000785F6672616D655F627566666572204DA1
:10380000616C6C6F634C6F7753706565644D656D6B
:10381000206661696C65640D0A0000000044004088
:1038200020202020556172743220637265617465B6
:10383000207375636365737366756C6C79210D0A0B
:103840000000000044010020004C00402020202007
:103850005561727434206372656174652073756399
:103860006365737366756C6C79210D0A0000000046
:103870002020202055617274322063726561746566
:10388000206661696C6564210D0A000020202020FB
:103890005561727434206372656174652066616974
:1038A0006C6564210D0A0000626175645F72617469
:1038B000653D2564206578636565642074686520CE
:1038C000616C6C6F7765642073636F7065210D0A9E
:1038D00000000000A2FD0208C027090092FD0208B6
:1038E0003038024040380240181C0240001C0240A0
:1038F00018180240001802400000024000050308AA
:103900004004000869A009F053F870A009F050F8CD
:10391000781EBDE8F09F297A4FF48050002919BF26
:10392000A9F800A0ABF80000A9F80000ABF800A0CF
:103930006DA009F03DF8764974480A6842F08102AA
:1039400042F400120A60D8F8001041F40021C8F8CF
:103950000010316821F00F0141F00A0131607168F7
:1039600021F003017160B16841F00F01B160316A6B
:1039700021F0FF0141F088013162664920220A806E
:1039800065490A6822F4406242F480620A60091DB7
:103990000A6822F020020A60091D0A6842F44062A7
:1039A0000A60216C11F0010F07D0216C21F0010198
:1039B0002164216C11F0010FF7D10168091DA16488
:1039C000C169E1644FF400716164544921640321C9
:1039D0006165A16841F47411A160216F11F0010FBC
:1039E00007D0216F21F001012167216F11F0010F34
:1039F000F7D10168091DA167016AE16701216167CB
:103A0000474921670721C4F88410E16841F03D016E
:103A1000E1600268C021918201680F8201680F8015
:103A2000026842F20C019181216C41F00101216494
:103A3000216F41F001012167FFF762FD48B11BA032
:103A400008F0B6FF37A008F0B3FF4FF0FF30BDE835
:103A5000F09F3BA008F0ACFF0020BDE8F09F10B540
:103A60004048FFF74DFD28B13FA008F0A1FF4FF0FF
:103A7000FF3010BD3B484FF4805390F808C04348D6
:103A8000C114821CBCF1000F19BF01801380038098
:103A900011801E48FFF734FD002808BF10BD3CA070
:103AA00008F086FF4FF0FF3010BD000055706461D4
:103AB00074652075617274342073657474696E67FF
:103AC00073206661696C6564210D0A002020202046
:103AD000556172743220696E697469616C20666127
:103AE000696C6564210D0A002020202055617274E4
:103AF0003220696E697469616C20737563636573E4
:103B00007366756C6C79210D0A0000004401002079
:103B100030380240181C0240001C02400005030817
:103B20004004000820202020556172743420696E02
:103B3000697469616C206661696C6564210D0A00B5
:103B400020202020556172743420696E6974696187
:103B50006C207375636365737366756C6C79210D86
:103B60000A000000F400002020202020556172741B
:103B7000322073657474696E67732068616E646C5B
:103B800065206572726F72210D0A000018180240DC
:103B90002020202055617274342073657474696E1E
:103BA00067732068616E646C65206572726F722144
:103BB0000D0A000002F0B2FB48B137A008F0F8FE91
:103BC0003DA008F0F5FE00BF04F01CF8FCE740A0A3
:103BD00008F0EEFE434808F0EBFE43A008F0E8FED4
:103BE0004DA008F0E5FE3F4808F0E2FEFCF746FB7A
:103BF00048B153A008F0DCFE2FA008F0D9FE00BFAA
:103C000004F000F8FCE7FDF7CEFF40B153A008F048
:103C1000CFFE29A008F0CCFE03F0F4FFFCE756A08D
:103C200008F0C6FEFCF739FB48B145A008F0C0FE1D
:103C300021A008F0BDFE00BF03F0E4FFFCE754A0A4
:103C400008F0B6FE33A008F0B3FE57A008F0B0FEAF
:103C50005C494FF4007008805B4801780029FCD073
:103C60005A48017841F00101017059484021016032
:103C70005848D0F8802142F40002C0F88021026840
:103C800042F400020260544801600BA008F090FE6C
:103C900003F0B8FFFCE7000053797374656D20688A
:103CA0006172647761726520696E697469616C2004
:103CB0006661696C656421005B4170704044656EAB
:103CC000677875652059616E5D203D3E20000000DB
:103CD0004861726477617265207265616479210D53
:103CE0000A000000B4FD0208232053797374656D47
:103CF00020436F6D70696C652054696D65203A20B2
:103D000044656320323820323031352031383A353D
:103D1000373A31340D0A0000232053797374656DEE
:103D200020417574686F72202020202020203A20C6
:103D300044656E677875652059616E0D0A00000054
:103D40004170706C69636174696F6E204E455720D5
:103D50006661696C6564210D0A00000052264420EA
:103D6000436F6E66696E672070617273652066616D
:103D7000696C6564210D0A0052264420436F6E660B
:103D8000696E67207265616479210D0A0000000088
:103D90004170706C69636174696F6E2072656164F3
:103DA00079210D0A00000000456E7465722075735C
:103DB0006572206170706C69636174696F6E210D4A
:103DC0000A0D0A001A0402403C00002014000020E2
:103DD000143C014000E100E0003C01402DE9F05FAF
:103DE000DFF810A4082591468846AAF800500AF189
:103DF00002064FF4005BA6F800B0FF4FC143C9B202
:103E0000798338832C0334803220FDF77FF8AAF8B9
:103E100000403220FDF77AF8B9F1000F1AD0B8F15E
:103E2000000F1CD035800025B9F1000F12D900BF5A
:103E300018F80500C143C9B2798338833480322031
:103E4000FDF764F8AAF800403220FDF75FF86D1C1A
:103E5000A945EDD8AAF800B00020BDE8F09FE7A082
:103E600008F0A6FD4FF0FF30BDE8F09F2DE9F04FC0
:103E700085B000208DF800008DF801004FF4165B2E
:103E8000022269464620FFF7A9FFDA4F4FF0080AE1
:103E9000A7F800A0BE1C4FF400503080DFF8588314
:103EA000BD20A8F81A004220A8F818004FF40049D5
:103EB000A6F800903220FDF729F8A7F800903220EC
:103EC000FDF724F8A6F800A00025FF24A8F81A4062
:103ED000A6F800903220FDF719F8A7F800903220DC
:103EE000FDF714F8681C85B25D45EFD34FF4005B15
:103EF000A7F800B080208DF8000025208DF8010083
:103F00004FF41655022269464620FFF767FFA7F8CF
:103F100000A0A6F800B0BD20A8F81A004220A8F81A
:103F20001800A6F800903220FCF7F0FFA7F80090E8
:103F30003220FCF7EBFFA6F800A04FF0000A00BF0C
:103F4000A8F81A40A6F800903220FCF7DFFFA7F887
:103F500000903220FCF7DAFF0AF101001FFA80FA24
:103F6000AA45EDD3A7F800B005B00020BDE8F08F5A
:103F700010B5A94884B0102404800520FCF7E6FFA2
:103F80009C4804801420FCF7D4FF0822A349402059
:103F9000FFF724FF0A22A2494420FFF71FFF012256
:103FA000A0495A20FFF71AFF01229F495B20FFF723
:103FB00015FF02229D495D20FFF710FF01229C4959
:103FC0005920FFF70BFF002211464C20FFF706FF98
:103FD00000208DF800008DF801000222694646207D
:103FE000FFF7FCFEFFF742FF04B0002010BD2DE9F3
:103FF000FF4F85B00C46002850D0002C02BF002097
:1040000009B0BDE8F08F05468DF80020100A8DF844
:104010000100022269464620FFF7E0FEDFF8D48166
:104020004FF0080AA8F800A008F102094FF4005B5D
:10403000A9F800B0704EBD207083422030834FF449
:104040000047A9F800703220FCF760FFA8F8007064
:104050003220FCF75BFFA9F800A008984FF0000A97
:1040600020B3002C14D900BF15F80A007083C14397
:10407000C9B23183A9F800703220FCF747FFA8F8D5
:1040800000703220FCF742FF0AF1010A5445EBD8D8
:10409000A8F800B009B00020BDE8F08F57A008F0E4
:1040A00087FC09B04FF0FF30BDE8F08F002CEFD94E
:1040B00015F80A00C143C9B271833083A9F80070B2
:1040C0003220FCF723FFA8F800703220FCF71EFF17
:1040D0000AF1010A5445EBD8DAE72DE9F84F914689
:1040E000070019D0387800260D46002800F02181FD
:1040F000B95D80297CD3BC196278802A44D24DA056
:1041000008F056FC60784FF0000400284FF0FF00E4
:104110008DF8000007D014E038A008F049FC4FF0FB
:10412000FF30BDE8F88F04EB840005EBC00082B2DD
:104130004B4601216846FFF75AFF641C102CF2DB46
:10414000F7E004EB840105EBC10082B24B4601218C
:104150006846FFF74CFF641C102CF2DB05F10800E9
:104160001FFA80F8FF208DF80000002404EB840083
:1041700008EBC00082B24B4601216846FFF737FFCB
:10418000641C102CF2DB94E021886FF0A002A1F1F6
:10419000A100C0B202EB1122C0EB0013D2B203EBBC
:1041A000401002EB40004FEA40182A4840456ED2CA
:1041B00029A008F0FDFBFF20AA46CB468DF80000A1
:1041C0005FF0000404EB84000AEBC00082B25B469F
:1041D00001216846FFF70BFF641C102CF2DB681C02
:1041E0001FFA80FAFF20CB468DF80000002441E042
:1041F00063E04CE0181C02400020024066756E63CC
:1042000074696F6E20656E74727973206572726F57
:1042100072210D0A000000001A1C02404E0207081D
:104220005702070805FE020807FE02080BFE0208F7
:1042300009FE0208556B6E6F7720636861726163D7
:1042400074657220307825303258253032580D0A86
:104250000000000020FE0300556B6E6F772063683E
:1042600061726163746572203078253034580D0AAC
:104270000000000004EB84000AEBC00082B25B4641
:1042800001216846FFF7B3FE641C102CAFDBDFF89A
:10429000B0A0002404EB840105EBC10082B208EB5E
:1042A000440050444B460221FFF7A1FE641C102C31
:1042B000F0DBA81C85B2B01C36E0202938BF2021D5
:1042C000A1F1200000064FEA1058B8F5BE6F16D9CC
:1042D0001CA008F06DFBFF20AA46CB468DF800001D
:1042E0005FF0000404EB84000AEBC00082B25B467E
:1042F00001216846FFF77BFE641C102CF2DBDFF81F
:1043000060A0002404EB840105EBC10082B208EB3D
:10431000040050444B460121FFF769FE641C102C39
:10432000F0DB681C85B2701C86B2B85D00287FF493
:10433000DFAE0020BDE8F88F02F5165292B256E6C5
:104340000D040308556B6E6F7720636861726163BB
:10435000746572203078253032580D0A0000000054
:104360000DFE02082DE9F74F0299002902BF002037
:1043700003B0BDE8F08F019929B140280BD383A089
:1043800008F016FB12E08AA008F012FB03B04FF011
:10439000FF30BDE8F08F029901290CD91F2818BF02
:1043A0003F2808D001468BA008F002FB03B04FF075
:1043B000FF30BDE8F08FDFF844B2DBF8001041F4C5
:1043C0008031CBF800108E4E802535804021B71EFD
:1043D0003980812141EA400000F0FF0800244FF4B9
:1043E00080794FF0010A00BF0AFA04F010EA080FC2
:1043F0000CBFA6F80090A7F800903220FCF786FDCD
:104400003D803220FCF782FD3580601CC4B2082C50
:10441000EAD3DBF8000020F44030CBF8000002982B
:104420004FF00008002888BFDFF8D8B124D900BFBA
:104430004FF000094C463220FCF768FDDBF8000025
:1044400010F4807F05D00AFA04F040EA090000F079
:10445000FF093D803220FCF759FD3580601CC4B255
:10446000082CE8D3019800F8089008F1010000F04A
:10447000FF0802988045DBD34020308003B0002045
:10448000BDE8F08F2DE9F74F0299002902BF002007
:1044900003B0BDE8F08F019929B140280BD33BA0B0
:1044A00008F086FA12E042A008F082FA03B04FF05A
:1044B000FF30BDE8F08F029901290CD91F2818BFE1
:1044C0003F2808D0014643A008F072FA03B04FF02D
:1044D000FF30BDE8F08F49490A6842F480320A6033
:1044E000474E802535804021B71E398045EA40007F
:1044F00000F0FF0900244FF0010A4FF4807800BF5C
:104500000AFA04F010EA090F0CBFA6F80080A7F819
:1045100000803220FCF7FAFC3D803220FCF7F6FCEC
:104520003580601CC4B2082CEAD302984FF0000911
:1045300000281FD90198002410F809B00AFA04F0E5
:1045400010EA0B0F0CBFA6F80080A7F800803220FD
:10455000FCF7DCFC3D803220FCF7D8FC3580601C89
:10456000C4B2082CEAD309F1010000F0FF09029857
:104570008145DFD3402030802048016821F440315C
:10458000016003B00020BDE8F08F0000527463208A
:104590007265616420616464722063616E6E6F7421
:1045A00020657863656564203633210D0A000000BC
:1045B00052746320726561642066756E6374696FFE
:1045C0006E20656E74727973206572726F72210D40
:1045D0000A00000052746320616464722025303246
:1045E000752063616E2072656164206F6E65206264
:1045F000797465206F6E6C79210D0A000004024009
:104600001A0402401004024070B52DED068B84B0F0
:10461000002808BFFDA024D0016A00291FBFC1697E
:1046200000298169002908BFFE481AD08268002548
:10463000002A40F3928000BF05EB4503026803EBBC
:10464000C50302EB8304D4F800C0A2889CF808607C
:10465000082E80F0D180DFE806F007071E314E6299
:10466000899B08F0A5F96AE08E5C227D96429CBF8A
:10467000227CB2420BD9237D227C3146EAA008F08D
:1046800097F904B04FF0FF30BDEC068B70BDDCF83D
:10469000042016705CE08E5C227D96429CBF227CDA
:1046A000B242F4D9237D227C3146EAA008F080F999
:1046B00004B04FF0FF30BDEC068B70BD0A44B2F978
:1046C0000060B4F914209642DCBFB4F91020B24265
:1046D0000DDDB4F91430B4F910203146D2A008F041
:1046E00067F904B04FF0FF30BDEC068B70BDDCF80D
:1046F000042016802CE00A441688A28A96429CBFA9
:10470000228AB242F3D9A38A228A3146D1A008F084
:104710004FF904B04FF0FF30BDEC068B70BD0A447A
:10472000D3781668626963F31F669642DCBF22691C
:10473000B2420ADDD4E904233146BBA025E004B02F
:104740004FF0FF30BDEC068B70BDDCF80420166026
:1047500082686D1CAA423FF76FAF4269C06908F0DA
:1047600037FB04B00020BDEC068B70BD0A44D37843
:104770001668626963F31F6696429CBF2269B24263
:10478000E3D9D4E904233146B2A008F011F9D6E701
:104790000A4494ED050AD378126863F31F6208EEA9
:1047A000102AB4EEC08AF1EE10FA0BDC94ED040A84
:1047B000B4EEC08AF1EE10FA24BFDCF8042082EDDA
:1047C000008AC5D260690AF00BFF41EC1A0B206920
:1047D0000AF006FF41EC190B18EE100A0AF000FF70
:1047E00041EC100B8DED02AB8DED009B53EC102BCB
:1047F000A3A008F0DDF8A2E79CF80810ABA008F031
:10480000D7F89CE7F0B587B004002CD0206A0028C8
:104810001FBFE0690028A269002A2BD041206369EC
:10482000E16801F05DFBD4E905104AF2A552FCF7FE
:1048300040FB0026002800F07480A1A008F0B8F822
:10484000D4E904134120A26901F04AFBD4E9051020
:104850004AF2A552FCF72DFB98B1A7A008F0A8F8E2
:1048600007B0701EF0BD69A008F0A2F807B04FF0C5
:10487000FF30F0BDAA4808F09BF807B04FF0FF30BA
:10488000F0BDD4E904134120226A01F029FB4AF269
:10489000A5526169206AFCF70CFB18B1A1A008F0D1
:1048A00087F82DE041206269E16801F011FC4120A8
:1048B0006369226AE16801F074FB606900250028E1
:1048C00029DDE0680123411902AA412001F008FB1B
:1048D00020690123411901AA412001F001FB9DF843
:1048E00008009DF80410884211D0C0B20090E06822
:1048F0009DF804204319206941198F4808F058F8A1
:104900008EA008F055F807B04FF0FF30F0BD606999
:104910006D1CA842D5DC93A008F04AF891A008F0DD
:1049200047F82046FFF770FE30B19AA008F040F833
:1049300007B04FF0FF30F0BD002C32D06069002589
:1049400000285EDDE0680123411904AA412001F03E
:10495000C7FA20690123411902AA412001F0C0FAD7
:104960009DF810009DF8081088424BD0C0B200900E
:10497000E0689DF808204319206941198C4808F027
:1049800017F88CA008F014F8002C08BF1FA005D061
:104990008E4F3878002818BF8DA006D008F008F890
:1049A00033E11AA008F004F82FE101203870D4E9AF
:1049B0000412412001F08CFBD4E904134120E26988
:1049C00001F0EFFA6069002500281CDDE068012392
:1049D000411905AA412001F083FA206901234119F8
:1049E00003AA412001F07CFA9DF814009DF80C10F8
:1049F000884209D0C0B20090E0684319206941198B
:104A0000F0E002E1FCE0F9E0F3E0000046756E63DF
:104A100074696F6E20656E747279206572726F7240
:104A2000210D0A00E002070873657474696E67203F
:104A300076616C75653D25642C20657863656564D9
:104A40002073636F7065205B25642C25645D0D0AFF
:104A50000000000073657474696E672076616C7580
:104A6000653D25752C206578636565642073636FEB
:104A70007065205B25752C25755D0D0A0000000012
:104A800073657474696E672076616C75653D256623
:104A90002C206578636565642073636F7065205BA7
:104AA00025662C25665D0D0A00000000756E6B6E94
:104AB0006F7720747970653D25640D0A0000000051
:104AC0004163746976652073657474696E672073D9
:104AD000656374696F6E20636865636B20637263DE
:104AE000206661696C65642120547279206261637B
:104AF0006B7570210D0A00004261636B7570207345
:104B0000657474696E6720636865636B20637263A4
:104B100020616C736F206661696C6564210D0A0009
:104B2000AC0307084261636B757020637263206594
:104B300072726F72210D0A002403070852657374A4
:104B40006F72652073657474696E67732066726F27
:104B50006D206261636B7570206661696C656421AC
:104B60000D0A00005375636365737366756C6C7929
:104B700020726573746F72652073657474696E67F3
:104B8000732066726F6D206261636B7570210D0A10
:104B90000000000052756E2073657474696E6720A2
:104BA000757064617465206572726F72210D0A0000
:104BB0006402070854727920746F206261636B7518
:104BC0007020616761696E210D0A00007800002085
:104BD00053746F7261676520697320627573792100
:104BE0000D0A00009DF80C20ED4807F0E1FE3E7034
:104BF0000BE060696D1CA8423FF7E8AE3E7004E030
:104C000060696D1CA8423FF79DAE07B00020F0BD63
:104C1000F0B583B004000AD0E24E307860B1AFF254
:104C2000500007F0C5FE03B06FF00400F0BDAFF216
:104C3000242007F0BDFE83E0226A0027002A1FBF60
:104C4000E0690028A06900283BD041206369E16841
:104C500001F046F960694AF2A552811EE069FCF74D
:104C600028F96269E169114401F8020C6269E1699D
:104C7000000A114401F8010C41206269E16801F069
:104C800027FA41206369E269E16801F08AF9D4E911
:104C900005324120E16801F023F962690020002A11
:104CA000C8BFD4E9061317DD11F800C01D5CAC4580
:104CB0000FD0BDA007F07CFE377003B04FF0FF307F
:104CC000F0BDC0A007F074FE377003B04FF0FF30A6
:104CD000F0BD401C8242E7DC4120216901F0F8F977
:104CE000D4E904134120E26901F05BF9D4E904132B
:104CF0004120A26901F0F4F860690025002827DD51
:104D0000E0680123411901AA412001F0E9F8206976
:104D10000123411902AA412001F0E2F89DF8041094
:104D20009DF8080081420FD0C8B20090E0689DF85D
:104D30000820431920694119994807F039FE377056
:104D400003B04FF0FF30F0BD60696D1CA842D7DCA6
:104D50002046FFF759FC377003B00020F0BD10B5B6
:104D600004000ED0206A00281FBFE1690029A06955
:104D700000280CD0626908F02BF82046BDE81040EE
:104D800042E49DA007F014FE4FF0FF3010BDA04894
:104D900007F00EFE4FF0FF3010BD30B591B01C464D
:104DA000154600281CBF0029002C06D040236A4667
:104DB00003F085F830B100F087B896A007F0F8FD51
:104DC00000F082B8082D80F07980DFE805F0041546
:104DD00028384C5E646B00221146684607F068FF75
:104DE0000146022806D391A007F0E2FD11B04FF072
:104DF000FF3030BD20705EE000221146684607F0AB
:104E000057FF01468030B0F5807F38BF217052D304
:104E100090A007F0CDFD11B04FF0FF3030BD002263
:104E20001146684607F044FF0146B0F5807FE1D3A4
:104E300094A007F0BDFD11B04FF0FF3030BD00224F
:104E40001146684607F034FF014600F50040B0F512
:104E5000803F38BF21802ED395A007F0A9FD11B067
:104E60004FF0FF3030BD00221146684607F020FFAA
:104E70000146B0F5803F38BF20801CD399A007F0D1
:104E800097FD11B04FF0FF3030BD0022114668464B
:104E900007F00EFF04E000221146684607F040FFCD
:104EA000206008E0002168460AF09AF851EC100BE7
:104EB0000AF0A4F9206011B0002030BD2946AFF2FD
:104EC000144007F075FD00BF11B04FF0FF3030BD4A
:104ED000F0B58C462DED068B85B0050016D0AA687E
:104EE00004200021002A24DD01EB41032A6803EBA2
:104EF000C10302EB8302908013681C7A082C22D233
:104F0000DFE804F00E0E0E1010121212AFF2045071
:104F100007F04EFD05B04FF0FF30BDEC068BF0BD45
:104F2000401C02E0801C00E0001DAA68491C8A4267
:104F3000DADC861C66450CDD634631467548EA6856
:104F400007F036FD39E11068017A73A007F030FDF3
:104F500033E1314601206E61FCF71DF8A86100289D
:104F60001BD031460120FCF716F8E861002815D067
:104F700031460120FCF70FF82862002808BF6AA01C
:104F800000F0F681280008BFAFF2805007D0C16959
:104F900000291CBF81690029E0E0FCE004E112E186
:104FA0006402070878000020706172616D657465A5
:104FB00072207772697465206572726F72210D0AB2
:104FC0000000000053657474696E67732720627572
:104FD000666665727320617265206E6F7420696EFB
:104FE000697469616C65642C2063616E6E6F7420F6
:104FF00073617665210D0A0046756E6374696F6E84
:1050000020656E747279206572726F7221000000E3
:10501000E002070866756E6374696F6E20656E74D2
:105020007279206572726F720D0A00007479706572
:105030003D622073636F7065206973205B302C3193
:105040005D2C206275742068657265206973202567
:10505000640D0A00747970653D632073636F706539
:10506000206973205B2D3132382C3132375D2C2092
:1050700062757420686572652069732025640D0A65
:1050800000000000747970653D75632073636F7074
:1050900065206973205B302C3235355D2C206275BC
:1050A0007420686572652069732025750D0A0000FB
:1050B000747970653D692073636F70652069732032
:1050C0005B2D33323736382C33323736375D2C2070
:1050D00062757420686572652069732025640D0A05
:1050E00000000000747970653D75692073636F700E
:1050F00065206973205B302C36353533355D2C20C7
:1051000062757420686572652069732025750D0AC3
:1051100000000000F4030708756E6B6E6F77207453
:105120007970653D2564000073657474696E67204D
:10513000686973746F727920627566666572204360
:10514000616C6C6F634C6F7753706565644D656D12
:10515000206661696C65640D0A00000008BFF1A05B
:1051600031D082684FF0000C002A40F3D38000BF9A
:105170000CEB4C02036802EBCC0203EB82042368C5
:10518000A2881F7A082F80F0EC80DFE807F020204B
:105190002C3A51657487F2A007F00AFC05B04FF075
:1051A000FF30BDEC068BF0BDF8A007F001FC05B0A8
:1051B0004FF0FF30BDEC068BF0BD05B04FF0FF3077
:1051C000BDEC068BF0BD07F0F3FB00F0D0B8277BF9
:1051D000237D9F429CBF237CBB4210D9237D227C30
:1051E0003946F6A02FE0277B237D9F429CBF237C7E
:1051F000BB4204D9237D227C3946FBA023E08F5497
:1052000082E0B4F90C70B4F914309F42DCBFB4F9F9
:105210001030BB4206DDB4F91430B4F91020394621
:10522000FCA010E08F54A3890A441B0A53706BE062
:10523000A789A38A9F429CBF238ABB4206D9A38A1F
:10524000228A3946E8A007F0B3FB90E08F54A38987
:105250000A441B0A537057E0E76863699F42DCBF4A
:105260002369BB420EDD00BFD4E904233946E9A01F
:1052700007F09EFB7BE0E76863699F429CBF236960
:10528000BB42F1D88F54A3890A441B0A5370E368C8
:105290001B0C9370E3681B0ED37035E094ED03AAEA
:1052A00094ED050AB4EEC0AAF1EE10FA06DC94ED16
:1052B000040AB4EEC0AAF1EE10FA19D260690AF03D
:1052C0008FF941EC190B20690AF08AF941EC180BAF
:1052D0001AEE100A0AF084F941EC100B8DED029BD6
:1052E0008DED008B53EC102BD5A007F061FB3EE059
:1052F000237B8B54A3890A441B0A5370E3681B0C5D
:105300009370E3681B0ED37082680CF1010C624548
:105310003FF72EAFFFF778F9002818BFD3A07FF42E
:1053200052AFE869C6F307420670E969C6F3072081
:105330004870E9698A70EB698221D970AB691E7087
:10534000AB695870A8698270A869C17041206B6907
:105350002A6AE96800F0C4FD05B00020BDEC068BA8
:10536000F0BD2068017AAFF6BC0007F021FBC9A0B0
:1053700007F01EFB21E730B515462DED068B85B0F5
:1053800038B18268AA4209DC2946CBA007F010FB9D
:1053900064E0AFF6881007F00BFB5FE0006805EBF8
:1053A000450202EBC50200EB82040A46206890F831
:1053B00008C0C8B2BCF1080F80F09680DFE80CF09E
:1053C0000404182B41545B66217D88429CBF227CDB
:1053D000824240F28F8000910246237C2946C0A081
:1053E00007F0E6FA05B04FF0FF30BDEC068B30BD9C
:1053F000217D88429CBF227C82427BD9009102465B
:10540000237C2946C2A007F0D3FA05B04FF0FF3045
:10541000BDEC068B30BDB4F9140012B28242DCBF81
:10542000B4F91010914265DD0090B4F910302946AE
:10543000ABA007F0BDFA05B04FF0FF30BDEC068B16
:1054400030BDA08A92B282429CBF218A914251D93A
:105450000090238A2946AEA007F0AAFA05B04FF0C3
:10546000FF30BDEC068B30BD60698242DCBF216934
:10547000914206DC3EE0606982429CBF2169914214
:1054800038D90090294696A023692AE008EE102A10
:1054900094ED050AB4EEC08AF1EE10FA06DCD4ED04
:1054A000040AB4EEE08AF1EE10FA23D210EE100AEC
:1054B0000AF096F841EC1A0B20690AF091F841ECD9
:1054C000190B18EE100A0AF08BF841EC100B8DED59
:1054D00002AB8DED009B53EC102B294600E009E058
:1054E00097A007F065FAB9E76146AFF2D43007F04C
:1054F0005FFAB3E705B00020BDEC068B30BD70B598
:1055000000282DED068B84B008BFAFF6003007D021
:10551000016A00291FBFC569002D8169002927E1A3
:1055200042E1000053657474696E677327206275E9
:10553000666665727320617265206E6F7420696E95
:10554000697469616C65642C2063616E6E6F742090
:105550007365742073657474696E6773210D0A0036
:1055600073657474696E672072756E206275666605
:1055700065722043616C6C6F634C6F775370656527
:10558000644D656D206661696C6564007365747453
:10559000696E6720777269746520627566666572E8
:1055A0002043616C6C6F634C6F7753706565644D1D
:1055B000656D206661696C65640D0A0064656661ED
:1055C000756C742076616C75653D25642C2065785A
:1055D000636565642073636F7065205B25642C25AB
:1055E000645D0D0A0000000064656661756C7420DE
:1055F0002076616C75653D25752C20657863656541
:10560000642073636F7065205B25752C25755D0DB7
:105610000A00000064656661756C74202076616C18
:1056200075653D25642C206578636565642073632A
:105630006F7065205B25642C25645D0D0A000000F9
:1056400064656661756C74202076616C75653D25B6
:10565000662C206578636565642073636F706520D0
:105660005B25662C25665D0D0A00000052756E20D4
:1056700073657474696E67207570646174652074F5
:105680006F2064656661756C74206572726F72213B
:105690000D0A000073657474696E6720746F20646E
:1056A000656661756C742076616C756520666169EC
:1056B0006C65640D0A00000073657474696E675B45
:1056C00025645D20657863656564206D617820736D
:1056D000657474696E67206E756D2025640D0A000F
:1056E00073657474696E675B25645D2076616C75A3
:1056F000653D25642C206578636565642073636F60
:105700007065205B25642C25645D0D0A0000000097
:1057100073657474696E675B25645D2076616C7572
:10572000653D25752C206578636565642073636F1E
:105730007065205B25752C25755D0D0A0000000045
:1057400073657474696E675B25645D2076616C7542
:10575000653D25662C206578636565642073636FFD
:105760007065205B25662C25665D0D0A0000000033
:1057700008BFFEA018D081680026002940F3E6800B
:1057800006EB4602016802EBC60201EB82042268C6
:10579000B4F804C0117A082980F0E280DFE801F053
:1057A000070721375976899807F002F961E05168B7
:1057B0000A78217D8A429CBF217C91420DD9207DAF
:1057C0000090237C3146AFF2E80007F0F1F804B016
:1057D0004FF0FF30BDEC068B70BD05F80C2000F0DB
:1057E000B0B851680A78217D8A429CBF217C9142E1
:1057F000F3D9207D0090237C3146AFF2EC0007F016
:10580000D7F804B04FF0FF30BDEC068B70BD516887
:10581000B1F90020B4F914108A42DCBFB4F91010B9
:1058200091420FDDB4F914000090B4F91030314604
:10583000AFF2541007F0BCF804B04FF0FF30BDECED
:10584000068B70BD05F80C20110A05EB0C02517097
:1058500077E051680A88A18A8A429CBF218A9142D6
:105860000DD9A08A0090238A3146AFF25C1007F070
:105870009FF804B04FF0FF30BDEC068B70BD05F80B
:105880000C20110A05EB0C0251705AE051680A68AD
:1058900061698A42DCBF2169914212DC05EB0C018F
:1058A00005F80C20130A4B70130C8B70120ECA7083
:1058B00047E051680A6861698A429CBF2169914248
:1058C000ECD9606900903146AFF2EC1023692BE00F
:1058D000516894ED050A91ED008A18EE101AB4EEA5
:1058E000C08AF1EE10FA06DC94ED040AB4EEC08A28
:1058F000F1EE10FA1BD2606909F072FE41EC1A0B4E
:10590000206909F06DFE41EC190B18EE100A09F040
:1059100067FE41EC100B8DED02AB53EC102B8DEDBF
:10592000009B3146AFF2E81007F042F8A1E705EB23
:105930000C0205F80C100B0A53700B0C9370090E37
:10594000D1708168761CB1423FF71AAFC169D0E9C6
:10595000052007F03DFA04B00020BDEC068B70BDB9
:10596000117AAFF64C0007F023F882E72DE9F04FEB
:1059700016462DED068B85B0020008BFAFF6747099
:1059800013D0106A00281FBFD06900289369002B2C
:1059900008BF76A009D09368B34209DC1A463146A5
:1059A000AFF2EC2007F004F85BE007F001F858E0F4
:1059B000126806EB460303EBC60302EB83040F0EEB
:1059C0002268B4F804C001F0FF0A92F808B00A4651
:1059D000C1F30729C1F30748CDB2BBF1080F80F02E
:1059E000A880DFE80BF004041C2D475A6B79217D59
:1059F0008D429CBF227CAA420ED90091237C2A466C
:105A00003146AFF2243006F0D3FF4FF0FF3005B03F
:105A1000BDEC068BBDE8F08F00F80C504CE0217D0A
:105A20008D429CBF227CAA42F6D90091237C2A4653
:105A30003146AFF2243006F0BBFF4FF0FF30E6E70F
:105A4000B4F9141012B28A42DCBFB4F91030934298
:105A50000ADD0091B4F910303146AFF27C3006F027
:105A6000A7FF4FF0FF30D2E700F80C206044110A86
:105A7000417021E0A18A92B28A429CBF238A93425C
:105A800005D90091238A3146AFF27C304EE000F810
:105A90000C206044110A41700EE061698A42DCBF4B
:105AA0002369934210DC00BF00F80CA0604480F82A
:105AB000019080F80280C7700020A8E761698A42DF
:105AC0009CBF23699342EFD900913146AFF2F03089
:105AD000236906F06DFFC4E708EE102A94ED050A6D
