:020000040802F0
:10000000D0EA012019F4020821F4020823F40208BE
:1000100025F4020827F4020829F402080000000071
:100020000000000000000000000000002BF40208A7
:100030002DF40208000000002FF4020831F4020839
:1000400033F4020833F4020833F4020833F40208EC
:1000500033F4020833F4020833F4020833F40208DC
:1000600033F4020833F4020833F4020833F40208CC
:1000700033F4020833F4020833F4020833F40208BC
:1000800033F4020833F4020833F4020833F40208AC
:1000900033F4020833F4020833F40208FD40020886
:1000A00033F4020833F4020833F4020833F402088C
:1000B00033F4020833F4020833F4020833F402087C
:1000C00033F4020833F4020833F4020833F402086C
:1000D00033F4020833F4020833F4020833F402085C
:1000E00033F4020833F4020833F4020833F402084C
:1000F00033F402089D41020833F4020833F4020885
:1001000033F4020833F4020833F4020833F402082B
:1001100033F4020833F4020833F4020833F402081B
:1001200033F4020833F4020833F4020833F402080B
:1001300033F4020833F4020833F4020833F40208FB
:1001400033F4020833F4020833F4020833F40208EB
:1001500033F4020833F40208574202081F4202082F
:1001600033F4020833F4020833F4020833F40208CB
:1001700033F4020833F4020833F4020833F40208BB
:1001800033F4020833F4020800F002F800F062F8D9
:100190000AA090E8000C82448344AAF10107DA45E2
:1001A00001D100F057F8AFF2090EBAE80F0013F0D2
:1001B000010F18BFFB1A43F001031847E85506006A
:1001C00018560600103A24BF78C878C1FAD85207EA
:1001D00024BF30C830C144BF04680C6070470000C1
:1001E0000023002400250026103A28BF78C1FBD840
:1001F000520728BF30C148BF0B607047662910F016
:100200007E8464290DF0328675290DF02F867829B9
:100210000DF0688663290EF0EC8373290EF0F183EC
:10022000002070471FB510F060FC9DE803000EF041
:100230000FF90EF0C9FC04000020002110F0C6F9EF
:10024000401C60600020002110F0D6F9E0601FBD66
:1002500010B510BD0EF035FE1146FFF7E3FF00F0BC
:1002600009F80FF0A5F803B4FFF7F2FF03BC0FF095
:10027000F3F8000010B504F06FFD002818BF4FF030
:10028000FF3010BD10B501F0CFFA28B10CA00DF071
:1002900075FD4FF0FF3010BD10A00DF06FFD002078
:1002A00010BD10B501F0AAFB28B114A00DF066FD39
:1002B0004FF0FF3010BD18A00DF060FD002010BD04
:1002C000557365722061707020637265617465207A
:1002D0006661696C6564210D0A00000055736572E2
:1002E000206170702063726561746520737563634B
:1002F00065737366756C6C79210D0A0055736572B0
:100300002061707020696E697469616C2066616932
:100310006C6564210D0A0000557365722061707070
:1003200020696E697469616C2073756363657373AA
:1003300066756C6C79210D0A00000000002804BF6E
:100340004FF0FF3070472DE9F04F87B04FF0FF348A
:10035000DDE9105C002B40F3ED81CDE902C5DFF84B
:1003600010C49CF802C0BCF1000F7CD01D46B3F550
:10037000FF7F78DC022D76DD144694469B460026EE
:100380002768B74288BF3E46241D6D1EF8D1F94C40
:10039000DCF8088084FB06542511A5EBE477DCE942
:1003A0000054651BC7F1000AA8EB0406AA45A8BFC4
:1003B000102E04DAAF42D8BF16F1100F03DCC8EBE1
:1003C0004404CCF800400CEB8B0454E90256A5EB36
:1003D000060854F80C9CC245A9EB0506A8BF102ED0
:1003E00004DA4745D8BF16F1100F03DCC9EB450509
:1003F00044F8045CABF10109B9F1000F20DDDE4ED9
:10040000DCF8004065461BF0010F07D1DCF80480E2
:100410002D1DA8EB040446F8044F44465FEA690822
:100420000ED000BFD5F80490B8F10108A9EB040480
:10043000746055F8084FA4EB090946F8089FF1D1FC
:10044000CD4CABF1020E04EB8B06BEF1000F56F85B
:10045000045C44F82B5075606568256031DD251D0E
:100460006446764600E02CE0D5F80080D045DCBF3D
:10047000D5F80480474508DCD4F80890D4F800800B
:10048000C8444FEA5808C4F804802D1D241D761E68
:10049000E8D1BEF1000F14DDB84C75462668BE42A7
:1004A000A4BF6668B24507DBDCF80080DCF80860B2
:1004B00046447608CCF80460241D0CF1040C6D1E33
:1004C000ECD14FF00A0CCDF814C0A3F1010CCDF81B
:1004D00004C000BF4FF0FF344FF0000C002B0DDDC7
:1004E000154600264FEA0307D5F80080E04584BF93
:1004F000C44634462D1D761C7F1EF5D190F83C5025
:10050000292D88BF292590F83E60072E88BF072631
:100510009B4F07EB451555F82650654515D8651CCA
:1005200013D0984DCCEBCC06A5FB0665EE08002554
:1005300004955F1E651EB5F1FF3F13DD52F825805F
:10054000B0450BD26D1C04950CE000296ED0002C38
:1005500001DB0C60F3E000200860F0E06D1EB5F1F7
:10056000FF3FEBDC651CAB4209DD00BF52F8258084
:10057000B04501D26F1E02E06D1C9D42F6DB049D6A
:100580007D1B05F1010E039DAE45A4BF029D75457F
:100590001BDCBEF1000F7DDDDDF810C01EF0010F89
:1005A00002EB8C0CACF1040C02D000254CF8045F7B
:1005B0005FEA6E0518BF00266CD000BFCCF804605F
:1005C0004CF8086F6D1EF9D1AAE06A4E2546A6FBCD
:1005D0000C69661E4FEA19180094B6F1FF3F0BDD57
:1005E00052F826A0ACEB0A0AC24501DD751C03E0F7
:1005F000761EB6F1FF3FF3DC661CB3420EDD00BF92
:1006000052F826A0ACEB0A0AC24504DDA6F1010CA3
:10061000CDF800C002E0761CB342F1DC002D04BF2F
:10062000DDE9006C664502D1002994D187E04FEAEC
:10063000991CCDF818C0DDF810C00026A5EB0C0CF5
:100640000CEB0708DDF800C0A8EB0C0C0CEB4C0819
:10065000DFF834C18CFB088C4FEA6C08A8EBEC780F
:10066000DDF810C0AC45BCBFDDF81890C9F1000939
:1006700013DA00BF02EB8C0B52F82CA0DBF804B0AD
:10068000AAEB0B0ACA45C4BF761C46452EDC0CF10A
:10069000010C00E044E0AC45ECDBDDF800C0BC45FB
:1006A000BCBFDDF81890C9F1000910DA02EB8C0A22
:1006B00052F82CB0DAF804A0AAEB0B0ACA45C4BF62
:1006C000761C464512DC0CF1010CBC45EEDB29B171
:1006D0000098284400EBD07040100860049807B0E0
:1006E000384400EBD0704010BDE8F08FBEF1000F31
:1006F00016DDDDF810C01EF0010F02EB8C0CACF122
:10070000040C02D000254CF8045F5FEA6E0518BFA8
:10071000002605D0CCF804604CF8086F6D1EF9D1A6
:10072000DDF814C0ACF1010CCDF814C0BCF1000F21
:100730003FF7D0AE19B1002CFFF60DAF09E707B0B7
:100740004FF0FF30BDE8F08F90F83A204AB12329EE
:1007500031D290F83E20032A18D9511E80F83E105D
:1007600069E090F83B1080F83C1090F83D10F5E7F8
:10077000C80C00201F85EB51189D00201C9D0020F7
:10078000CC270308CDCCCCCC67666666FC4B90F8D2
:100790003C10DB7803F1020C614588BFC91E07D805
:1007A000994218D8002A08BF80F83C30D5D142E0E1
:1007B00080F83C103FE028290FD290F83E10052920
:1007C00088BF491ECAD890F83C100D2988BF891EE1
:1007D000EED80C292FD9491EEAE732292BD990F8F7
:1007E0003E10042938BF491CB8D390F83C20272A72
:1007F00038BFD11CDCD3292A38BF511CD8D30429D7
:100800000BD0052910D00722062980F83E2006BF0C
:1008100090F83C100C392921CAE7052180F83E10D8
:1008200090F83C10891EC3E7062180F83E1090F82E
:100830003C10091FBCE790F83E2090F83C10072AB6
:1008400013D2DFE802F00406080A0C0E10007E2026
:100850000CE03E200AE05E2008E06E2006E07620F4
:1008600004E07A2002E07C2000E00020C54A1388E2
:1008700023F07F0318431080202924BF01F11000CA
:10088000C1B201F03F00518821F47C5141EA0020BF
:100890005080002070472DE9F04F0446D1F89401B4
:1008A000002520F07F4083B02E46002803D9B1F800
:1008B00096210546160AD1F8982122F07F42831826
:1008C000954203D2B1F89A011546060AD1F89C0167
:1008D00020F07F4003EB0008854203D20546B1F8C3
:1008E0009E01060A20888F88132880F0A685DFE8FD
:1008F00010F013005B007A009F00570175019B0107
:10090000480268029402A405520470049404A405E9
:100910008F03A603C303F0039A490888C0F30D00B0
:1009200040F40040088094F83F00002807BF0420EE
:100930002083401E84F83F00A28891480123428111
:100940000022A4F85A202380C26194F83E0094F853
:100950003C20072813D2DFE800F00406080A0C0E3A
:1009600010007E200CE03E200AE05E2008E06E20B1
:1009700006E0762004E07A2002E07C2000E00020FF
:100980000B8823F07F0318430880202A24BF02F13C
:100990001000C2B202F03F004A8822F47C5242EAC0
:1009A0000020488000F01DBD76480188C1F30D018C
:1009B00041F4004101802438418908314181B4F873
:1009C0005A100529C0F056836F49C1F800806F495D
:1009D0000D606F490E7001F6B8310F800121C161C1
:1009E000022000F029BB6748674B0188C1F30D0165
:1009F00041F4004101802438418908318AB24281A2
:100A0000C16943F82180614B43F82150604B5E542B
:100A100003F6B83323F81170491CC161E188914293
:100A200000F2DF84A1884181032020800020B3E010
:100A3000DFF850A1AAF12409BAF80000C0F30D00B4
:100A400040F40040AAF80000B9F80A00083080B26B
:100A5000A9F80A00E18881429CBFA088A9F80A0091
:100A6000B4F85A000528C0F0C08499F8040018BBF7
:100A700099F80500D9F81010095CE9B9AF21414394
:100A80004FF0805202EB4111D9F80C2012F81000FF
:100A9000AF2210FB02F001EBC000D2003A490DF08A
:100AA000EAFB99F80510D9F80C0010F81120521C37
:100AB00002F0030200F81120042600250D20009604
:100AC000CDE90105304A02A92046D9F81C30FFF7CC
:100AD00035FC002838DB2E490298095C0C2933D9F3
:100AE0002C4931F81020503AA4F8482031F8101061
:100AF0005031A4F84A1091B2A2888A4204D9A4F8CD
:100B00004820A188A03107E0E2888A4206D2A2F1FB
:100B1000A001A4F8481091B2A4F84A101A4951F85B
:100B20002000E064BAF80000C0F30D00AAF800004D
:100B3000B4F84800A9F80A00A4F85A50C9F81C50A3
:100B4000A4F85C50268016E0002211462046FFF7EC
:100B5000FBFD0A20208094F8500001280BD10220D0
:100B600084F85000B9F808004FF6FF7188423CBF86
:100B7000401CA9F80800C9F81C5000F032BC000065
:100B8000C80C0020EC0C0020301C0020104B002072
:100B9000F0790020A8850020A4F85A0000F021BCBC
:100BA000F6480188C1F30D010180A0F124014889B4
:100BB000001D4881B4F85A000528C0F00081F048B3
:100BC000C0F80080EF480560EF48067000F6B830C6
:100BD00007800120C861052000F02EBAE748E84BE5
:100BE0000188C1F30D010180A0F124014889001D95
:100BF00082B24A81C86943F82080E24B43F8205012
:100C0000E14B1E5403F6B83323F81070401CC86142
:100C1000B4F84A00904200F2E483B4F848004881F6
:100C2000062020800020B7E7DFF850A3AAF12409AE
:100C3000BAF80000C0F30D00AAF80000B9F80A00E5
:100C4000001D80B2A9F80A00B4F84A1081429CBF86
:100C5000B4F84800A9F80A00B4F85A000528C0F012
:100C6000C48399F80400C0B999F80500D9F81010A8
:100C7000095C91B9AF2141434FF0805202EB411121
:100C8000D9F80C2012F81000AF2210FB02F001EB93
:100C9000C000D200BA490DF0EEFA19200821CDE9C2
:100CA00000104FF0000BCDF808B0B54A02A920465D
:100CB000D9F81C30FFF742FB00284FDBE06CB3494A
:100CC000C0EBC000A1FB0010C108AE4A029852F868
:100CD00020308B4242D3AC49085C0C283ED9B4F892
:100CE0005C00022827D399F8040078B999F8050028
:100CF000D9F810301B5C4BB9D9F80C3013F810C080
:100D00000CF1010C0CF0030C03F810C00A20208039
:100D10000520208394F85000012813D1022084F884
:100D20005000B9F808004FF6FF7398423CBF401CD2
:100D3000A9F8080006E0401CA4F85C00A4F85AB02A
:100D4000052020808E48C0F80080914815600E7004
:100D500007800120C9F81C0000F043BBBAF800006E
:100D6000C0F30D0040F40040AAF80000B4F84800B9
:100D7000A9F80A00C9F81CB0A4F85AB0072000F07E
:100D80005BB97E490888C0F30D0040F4004008803C
:100D900024394889001D4881B4F85A0005280ED32B
:100DA0007748C0F80080774805607748067000F6FD
:100DB000B83007800120C861082000F03DB9401C10
:100DC000EAE66E486E4B0188C1F30D0141F4004123
:100DD000018024384189091D8AB24281C16943F8E2
:100DE0002180684B43F82150674B5E5403F6B833BB
:100DF00023F81170491CC161B4F84A10914200F205
:100E0000F082B4F848104181092020800020A4F825
:100E10005A00A4F85E0000F0E4BA5848A0F1240992
:100E20000188C1F30D0141F400410180B9F80A00C5
:100E3000001D80B2A9F80A00B4F84A1081429CBF94
:100E4000B4F84800A9F80A00B4F85A000528C0F020
:100E5000CC8299F8040010BB99F80500D9F810105D
:100E6000095CE1B94B4A00EB800102EB4121D9F862
:100E70000C2002EB4000A022407800EB800001EB48
:100E800040103F490DF0F7F999F80510D9F80C001A
:100E900000EB41004178491C01F00F01417019201D
:100EA0000821CDE9001000260296354A02A9204605
:100EB000D9F81C30FFF742FA00286DDB324A02995C
:100EC000525C0C2A68D922742E4A314D52F82120E6
:100ED000626135F81110A18135F81000E08194F8B5
:100EE0005010012926D099F80110002918BFA089B7
:100EF000B4F84610401A4CF250314843616D90FBF3
:100F0000F1F0216C014494F83F00B0B3204600F0AA
:100F1000F4FB029835F810105039218135F8100093
:100F20005030608188B2A18888423FD22181A08858
:100F3000A03042E0042084F85000B4F9440020645A
:100F400099F8010000280CBFE089A089A4F84600A8
:100F5000B9F808004FF6FF7188423CBF401CA9F861
:100F60000800206C60632063E062A062606220621F
:100F7000E061B4F840002087CBE70EE0EC0C0020E5
:100F8000301C0020104B0020F0790020CDCCCCCCC0
:100F9000A8850020408300101FE061632163E162A7
:100FA000A16261622162E1612187B2E7E188814249
:100FB00004D2A1F1A0002081E0886081A4F85A60E9
:100FC00084F85860C9F81C602089A9F80A000E202E
:100FD00020800120208300F004BA00221146204620
:100FE000FFF7B2FB0A20208094F8500001280BD1B3
:100FF000022084F85000B9F808004FF6FF718842CB
:101000003CBF401CA9F80800C9F81C6000F0E9B911
:10101000FE4801220188C1F30D010180FC492089AD
:1010200048810020A4F85A0084F85800C861217C47
:101030002046FFF789FB1020208000F0D2B9F3484A
:101040000188C1F30D01018024384189091D4181C6
:10105000B4F85A1005290DD3EE49C1F80080EE49C5
:101060000D60EE490E7001F6B8310F800121C161AB
:101070001120E1E7481C8FE5E44ADFF898931088D7
:10108000C0F30D03A2F1240013804189091D1FFA4A
:1010900081FCA0F80AC0C16949F82180DFF8788393
:1010A00048F82150DD4D6E5405F6B83525F811701D
:1010B000491CC1616189614500F29381C3F30D014F
:1010C00041F40041118021894181122020800020BB
:1010D00062E5DFF838A3AAF12409BAF80000C0F3EA
:1010E0000D0040F40040AAF80000B9F80A00001D05
:1010F00080B2A9F80A00618981429CBF2089A9F8C1
:101100000A00B4F85A000528C0F06F8119200821A0
:10111000CDE9001000250295BE4A02A92046D9F863
:101120001C30FFF70BF9002822DB6069BC49C0EBDB
:10113000C000A1FB0010C108B74A029852F8202055
:101140008A4215D3B549085C0C2811D9C9F81C503E
:10115000B4F85E0003283DBF401CA4F85E000F20D9
:10116000A4F85E5024BF25800320FFF465AF31E76B
:10117000BAF80000C0F30D0040F40040AAF80000E7
:10118000C9F81C50A4F85A50A4F85E502089A9F858
:101190000A000B2050E79D480188C1F30D0141F47E
:1011A0000041018024384189091D4181B4F85A1059
:1011B0000529FFF45FAF9749C1F8008096490D609B
:1011C00096490E7001F6B8310F800121C1610C20E3
:1011D00032E78E488F4B0188C1F30D0141F4004185
:1011E000018024384189091D8AB24281C16943F8CE
:1011F0002180894B43F82150884B5E5403F6B83365
:1012000023F81170491CC161618991427ED82189FE
:1012100041810D2020800020BEE47C49A1F12409F9
:101220000888C0F30D0040F400400880B9F80A00B7
:10123000001D80B2A9F80A00618981429CBF208903
:10124000A9F80A00B4F85A00052875D399F80400E3
:1012500010BB99F80500D9F81010095CE1B9714A82
:1012600000EB800102EB4121D9F80C2002EB400099
:10127000A022407800EB800001EB401065490CF0A3
:10128000FAFF99F80510D9F80C0000EB41004178FD
:10129000491C01F00F01417019200821CDE900100F
:1012A0004FF0000ACDF808A05A4A02A92046D9F802
:1012B0001C30FFF743F8002871DB584A0299535C51
:1012C0000C2B6CD984F858A0525C2274524ADFF877
:1012D00058B152F8212062613BF81110A1813BF80E
:1012E0001000E08194F85010012926D099F80110DF
:1012F000002918BFA089B4F84610401A4CF25031AA
:101300004843616D90FBF1F0216C00E069E001441D
:10131000204600F0F2F902983BF810105039218174
:101320003BF8100089B250306081A088814227D2FA
:101330002081A088A03029E057E0042084F85000E4
:10134000B4F94400206499F8010000280CBFE0893A
:10135000A089A4F84600B9F808004FF6FF7188424A
:101360003CBF401CA9F80800206C60632063E06269
:10137000A06260622062E061B4F840002087CAE7A2
:10138000E088884203D2A0382081E0886081A4F8F8
:101390005EA00E2020800120208315E0FFE794F856
:1013A0005800401CC0B284F85800052808D3052016
:1013B00084F83F0084F858A0A4F800A0032002E0BD
:1013C0000C202080022020831248C0F800801248A0
:1013D00005601248067000F6B83007800120C9F891
:1013E0001C0003B00020BDE8F08F0A49D9F81C00AA
:1013F00041F82080084941F8205008490E5401F670
:10140000B83121F81070401C10E00000EC0C0020F6
:10141000C80C0020301C0020104B0020F079002068
:10142000CDCCCCCC40830010A8850020C9F81C008E
:10143000B4F85A00401CFFF7AFBB0020FCE52DE9D3
:10144000F14FF24D0026DFF8C883287805F1240714
:1014500000281CBF0023AE6128D003EB031200213B
:1014600002EBC202084608EB820200BF01EBC10C8E
:101470000CEB011C02EB8C0C491CACF8246001EB5A
:10148000C10C0CEB011C02EB8C0C491C801CACF851
:1014900024600628EADB5B1C062BDEDB4FF4E060F1
:1014A00038804FF47C507880BDE8F88F95F804A020
:1014B00069790AEB0A1000EBC00008EB800201EB2F
:1014C000C10000EB011002EB80000C304FF000096E
:1014D0008378002B18BF068303880E2B18BF0A2BB6
:1014E00002D0807800287DD0481C4FF00F0E0628CF
:1014F0000DDA00BF00EBC00101EB001102EB81012E
:101500000C318B785BB1401C0E830628F2DB062879
:1015100004BF4FF0010CDFF8FCB207D0A7E00A8847
:101520000E2A0CBFA1F800E00E80F0E70CEB0A00D9
:101530008BFB0021A1EBE171A1EB810100EB4104E8
:1015400004EB041000EBC00008EB800210780028C8
:1015500018BF00200FD000BF00EBC00101EB00114D
:1015600002EB8101401C8E840628F5DB062817D08B
:101570002C71687119E000EBC00101EB001102EB66
:1015800081010C318B7823B1401C0E830628F2DBDD
:10159000ECE70A880E2A0CBFA1F800E00E80E5E710
:1015A0000CF1010CBCF1060FC0DBBCF1060F1BD126
:1015B000287900EB001000EBC00008EB80021078E7
:1015C00000281CBF4FF00109002035D000EBC001FE
:1015D00001EB001102EB8101801C8E84A1F8886070
:1015E000062800E011E0F1DB8B480068022898BF74
:1015F000AE610AD94000A861884839780170B9788D
:10160000417039798170B979C17028798449A1FB19
:1016100000218908A1EB810100EB4100C1B22971D1
:10162000A86903282CD9401EA861080238804FF40D
:101630007C507880BDE8F88F697900204B1C002B26
:1016400010DD00BF00EBC00101EB001102EB8101D6
:101650000C3191F802C0BCF1000F0AD0401C0E837F
:101660008342EFDC834208BF4FF00109BCD06871B0
:10167000BAE70A880E2A0CBFA1F800E00E80F1E755
:1016800060B1401EA8616548017839804178798051
:101690008178B980C078F880BDE8F88FB9F1000F83
:1016A00003D0287800287FF4F9AE388848F2010288
:1016B00020F0010020F47C5040EA01203880788836
:1016C00020F0010020F400401043788001EB01106D
:1016D00000EBC00008EB80008188E98081686961C7
:1016E000697901EBC10202EB011100EB8100009965
:1016F000BDE8F84F0C30FFF7CEB82DE9F00F026BC4
:101700004263C26A0263826AC262426A8262026A97
:101710004262C2690024C0E907120B460A46254608
:1017200000F1200726464FF0060800BFD7F800C09A
:101730009445BCBF6246741C03DB6345BCBF634673
:10174000751C3F1D761CB8F10108EFD1002C19BFA4
:101750000A464FF000084FF00108026A002D19BF39
:101760008C464FF000094FF00109D0F820C0012746
:1017700000F1200600234FF0060AA7421CBFD6F84E
:1017800000B05A45C4BF5A4603F101080ADC03F110
:10179000010BAB451CBFD6F800B0E345C4BFDC4627
:1017A00003F101097F1C361D5B1CBAF1010AE4D16B
:1017B000D0E90C321A44D0E90AC363441A44436A9C
:1017C0001A44036A1A44114400EB8402D269891A4C
:1017D00000EB8802D269891A00EB8502D269891A66
:1017E00000EB8902D269891A0E4A82FB0121B0F905
:1017F0003820A1EBE1718A42B4BF8A1A521A052A35
:10180000A8BF01870020BDE8F00F7047C80C00207A
:10181000D80D0020ABAAAA2A000D0020E80C002059
:10182000ABAAAAAA565555552DE9F05F0025DFF859
:101830007C8510212B46032245F214094FF4FA54FB
:1018400040F6FC0C44F6701A45F6043B45F2604E37
:1018500005EB051000EBC00008EB800001260670C8
:10186000837380F8463080F8471080F8481080F87D
:10187000492080F84A2044F224560682A0F81290AB
:101880000466A0F850C0C0F84CC0A0F852A080F880
:10189000723080F8AA3080F8AB1080F8AC1080F875
:1018A000AD2080F8AE20A0F87490A0F876B0C0F813
:1018B000C440A0F8B4C0C0F8B0C0A0F8B6E080F84A
:1018C000D63080F80E3180F80F1180F8101180F8B2
:1018D000112180F81221A0F8D8B046F2F456A0F8F1
:1018E000DA60C0F82841A0F818C145F65077C0F872
:1018F00014C1A0F81A7180F83A3180F8723180F87A
:10190000731180F8741180F8752180F87621A0F8A1
:101910003C6147F2E406A0F83E61C0F88C41A0F8B3
:101920007CC146F64027C0F878C1A0F87E7180F8E7
:101930009E3180F8D63180F8D71180F8D81180F820
:10194000D92180F8DA21A0F8A06147F63846A0F83E
:10195000A261C0F8F041A0F8E0C147F23057C0F8EA
:10196000DCC1A0F8E27180F8023280F83A3280F8E7
:101970003B1280F83C1280F83D2280F83E22A0F80D
:10198000046248F2C466A0F80662C0F85442A0F8A7
:1019900044C248F22006C0F840C2A0F846624FF4A4
:1019A000967686804CF250366D1C8660062DFFF6CA
:1019B0004FAFFF4988F8003038460880FD494FF4A2
:1019C00096700880FC4930460860FC484FF47C5112
:1019D000038041808380C380F948036002F0B5FE34
:1019E00030B1F8A00CF0CAF94FF0FF30BDE8F09F1D
:1019F000FAA00CF0C3F90020BDE8F09F2DE9F047F4
:101A00000026FD4F82B0E94DFC4C3E703246B44694
:101A10000CEB0C1000EBC00005EB80085FF0000140
:101A200001EBC10000EB011008EB8000491C90F8AD
:101A3000473080F8483090F8493080F84A3090F8C4
:101A40004C30A354B0F84C304FEA1329A318121DA0
:101A500083F8019090F8529083F80290B0F8520009
:101A6000000AD8700629DBDB0CF1010CBCF1060F73
:101A7000CEDB9223E24A4FF4803141200EF021FC6C
:101A8000922807D0DFA00CF079F902B04FF0FF30B8
:101A9000BDE8F0874AF2A5529221D94800F066FCD1
:101AA00018B1E1480CF06AF92CE04FF0000CDFF8B7
:101AB0005093614601EB011000EBC00005EB800A7A
:101AC0005FF0000202EBC20000EB02100AEB8000A4
:101AD00009EB0C030C30B3F80080C0F840805B8841
:101AE000A0F84630B0F80480434524BFB0F8068023
:101AF00098454ED2B0F806C08088CDE9000CCB489E
:101B00000CF03CF900218C460CEB0C1000EBC000F3
:101B100005EB80085FF0000000EBC00202EB001252
:101B2000631808EB8202B3F80090C2F84C905B880F
:101B3000091D401CA2F852300628EDDB0CF1010C07
:101B4000BCF1060FE0DB4AF2A5529021AB4800F051
:101B50000DFC84F89000000AA84984F891009222B4
:101B600001F192000CF042FB02F091FB4FF4804235
:101B7000910041200EF0AAFBB0F5804F18D202F080
:101B80008EFBABA00CF0FAF802B04FF0FF30BDE8CE
:101B9000F087521C0CF1040C062A93DB491C062921
:101BA00088DB97499222A1F192000CF01FFB12E012
:101BB0009223934A4FF4803141200EF08CFB9228FF
:101BC00007D002F06CFBA6A00CF0D8F8AE48068057
:101BD00096E002F064FB7648AC4A008810807548B5
:101BE00000885080744800689080000CD080734852
:101BF000018811814188518181889181C088D0817B
:101C0000F8686F4940000860A148016841F480010C
:101C100001604FF020409F49416041F29101016015
:101C20009D48016811F0010F07D0016821F0010102
:101C30000160016811F0010FF7D198490A60984AD4
:101C4000C9051160974A642111609749016097495D
:101C50004FF0040CC1F800C095490A6842F0746264
:101C60000A60091D0A6812F0010F07D00A6822F005
:101C700001020A600A6812F0010FF7D18E4A8D4CFA
:101C800014608F4B8D4A1A608E4A4FF4967515601A
:101C90008D4E0E608D4AC2F800C08D4F3A6842F0FA
:101CA0003D023A608B4A136813F0010F07D01368A6
:101CB00023F001031360136813F0010FF7D1864B73
:101CC0001C60874C854B2360864B1D601660864BDD
:101CD000C3F800C03B6843F474633B600B6843F097
:101CE00001030B60116841F001011160016841F0CE
:101CF0000101016002F0ACFD38B17CA00CF03EF8AF
:101D000002B04FF0FF30BDE8F0877EA00CF036F84F
:101D100002B00020BDE8F08737490122887832EA16
:101D2000000088707F4A4FF400710CBF118351830B
:101D300070477D48017841F080010170FEE72DE990
:101D4000F8430127064601292ED1DFF86080DFF82D
:101D5000DC91002505EB051000EBC00008EB8000CE
:101D60005FF0000404EBC40101EB041100EB8101FE
:101D700001F10C0250318E4217D182F85070B2F945
:101D8000440041F27B4110FB01F1CA14A2EBE17364
:101D900089FB00214A11A2EBE1716FF01802514357
:101DA00000EB81000028C3E0D6E0CBE0D80D002096
:101DB000D20C0020CE0C0020DC0C0020EC0C00200B
:101DC000E00C0020556172742063726561746520B7
:101DD0006661696C6564210D0A00000055617274CA
:101DE00020637265617465207375636365737366E0
:101DF000756C6C79210D0A00F40C002090AA00206B
:101E000022AB002043616C6962726174652070616D
:101E100072616D65746572732072656164206661BC
:101E2000696C6564210D0A000C2D0308682D0308F8
:101E300043616C69627261746520706172616D6585
:101E4000746572732073746F726167652065726167
:101E50007365206661696C6564210D0A00000000ED
:101E600043616C69627261746520706172616D6555
:101E700074657273207772697465206661696C6538
:101E800064210D0A00000000D00C0020C8A9002029
:101E90003038024013031000B8640240C0640240AE
:101EA000C4640240BC640240802E0300CC64024043
:101EB0000C640240002000601864024018A5002055
:101EC0001C64024014640240802E0200246402401C
:101ED00008640240286402403064024070A7002079
:101EE000346402402C6402403C64024055617274C8
:101EF00020696E697469616C206661696C65642132
:101F00000D0A00005561727420696E697469616C14
:101F1000207375636365737366756C6C79210D0A44
:101F200000000000002002400C0D00201F85EB5136
:101F3000BCBF404200B2224600902946D6480BF072
:101F40001DFF03E0641C062CFFF60CAF062C03D12A
:101F50006D1C062DFFF6FEAE02F08DFE30B1CFA057
:101F60000BF00CFF4FF0FF30BDE8F883D34807704B
:101F70000020BDE8F88370472DE9F041D04908689A
:101F80000028FCD1CF48026812F0006FFBD0CE4889
:101F9000026812F0010F07D0026822F0010202600D
:101FA000026812F0010FF7D164220A60C7490A687B
:101FB00042F074620A60016841F001010160BF4CA7
:101FC000C44BDFF814C36578C14E181FC34A4FF4E1
:101FD0009677ACF10401002D42D01F60336843F0C6
:101FE0003D033360036843F001030360DCF8000045
:101FF0000028FBD1106810F4006FFBD0086810F0C7
:10200000010F07D0086820F001000860086810F090
:10201000010FF7D1C5EB0510B14900EB800001EBD2
:10202000C0000121A943617021780025002918BF53
:102030002570FFF704FAAB48008898B3E188814225
:102040001CBFE080258131D1208942F2107181428C
:1020500084BF401C208129D8A348017811BB22E00D
:10206000CCF80070D6F800C04CF4746CC6F800C010
:10207000D1F800C04CF0010CC1F800C0196800296B
:10208000FCD1116811F0200FFBD0016811F0010F95
:10209000C0D0016821F001010160016811F0010F59
:1020A000F7D1B7E702E025810221017002F00AF9B9
:1020B00002F066FFE1788D4859B1A18801808C4912
:1020C0000A8802814A8842818A888281C988C181BE
:1020D0000BE088490988018087490A8802814A887B
:1020E00042818A888281C988C18184490988418066
:1020F000834909688180090CC180BDE8F0812DE920
:10210000F047012809D002280BD0032818BFBDE8EA
:10211000F087BDE8F04703F083B8BDE8F04702F070
:1021200074B9704F3888002808BFBDE8F0870026D2
:102130006248744C744DC6803E803146B44600BF40
:102140000CEB0C1000EBC00005EB80085FF000000A
:1021500000EBC00202EB001208EB8202401C92F876
:102160004C306354B2F84C304FEA13296318091D00
:1021700083F8019092F8529083F80290B2F85220BE
:10218000120ADA700628E3DB0CF1010CBCF1060F31
:10219000D6DB4AF2A55290215A4800F0E7F884F8BD
:1021A0009000000A84F8910002F071F89223574AD7
:1021B0004FF4803141200EF084F8922808D002F0CC
:1021C0006EF8AFF2C0300BF0D9FD3E80BDE8F0876D
:1021D00002F065F84D4900200A5C235C9A420AD15E
:1021E0000A18231852785B789A4201D0401C02E00A
:1021F000801C9228F0DB92282AD002F048F84FF495
:102200008042910041200EF061F8B0F5804F08D275
:1022100002F045F8AFF2E8300BF0B0FD3E80BDE8CB
:10222000F0879223374A4FF4803141200EF053F863
:10223000922808D002F033F8AFF2DC300BF09EFDAC
:102240003E80BDE8F08702F02AF831A00BF096FD41
:102250005FF0000707EB071000EBC00005EB8008FC
:102260005FF0000404EBC40000EB041008EB8000F6
:102270000C3090F85010022906D180F850602246A8
:1022800039462FA00BF07AFD641C062CEADB7F1C7C
:10229000062FDFDBBDE8F087E42D0308556172747B
:1022A0002073657474696E67732068616E646C6511
:1022B000206572726F72210D0A000000F40C00207C
:1022C000BC64024004640240B86402400C640240F2
:1022D00008640240146402402C640240006402401E
:1022E00018A50020D00C00202C0D0020C8A900202B
:1022F000040D0020D20C0020EC0C0020CE0C00209D
:10230000DC0C002022AB0020D80D002090AA002079
:1023100043616C69627261746520706172616D65A0
:10232000746572732061726520737563636573737E
:1023300066756C6C792073746F726564210D0A0088
:10234000416E74656E6E6120256C642053656E73FA
:102350006F72256C642063616C69627261746520C0
:102360006661696C6564210D0A00000070B50300A8
:1023700013D0104600220029CCBFFE4C70BD00BF18
:102380009D5C00F0FF0C8CEA050C521C34F81CC05C
:1023900091428CEA1020F3DC70BDF7A00BF0EEFC4C
:1023A0004FF6FF7070BD4FF08040406A70474FF0AD
:1023B0008041496AF64B0A1A19460020E2FB0310D5
:1023C00080097047401A70474FF080414A6A0A30CE
:1023D000542358434FF47A73B0FBF3F003282CBF17
:1023E000C01E70474B6A9B1A9842FBD870474FF04B
:1023F00080414A6AC0EBC00000EB40004B6A9B1A68
:10240000B3EB800FFAD3704770B5051E4FF0000490
:1024100098BF70BD4FF47A70FFF7E9FF641CA542C6
:10242000F8D870BD70B5051E4FF000048CBFD94EB2
:1024300070BD3046FFF7DBFF641CAC42F9D370BDC2
:102440000021002898BF704700BF491C8842FBD874
:1024500070472DE9FF4F81B010AFDDE91412B7E8E6
:102460007004DDE90E890198002818BF002914D0F6
:10247000B8F1000F1CBF039800280ED0002C18BF25
:10248000002E0AD0029810B1B0F1004F0DD90146CC
:10249000C1A00BF073FC00F0C3B8B7A00BF06EFC4A
:1024A00005B04FF0FF30BDE8F08F20682843206072
:1024B000086890430860B74F01E07F1E18D003986A
:1024C0000068049B1842F8D1D8F8000010EA090F00
:1024D000F3D108681043086042F21070FFF7B0FFB4
:1024E000039801680498014208BFB8480FD109E079
:1024F000B7A00BF043FC05B04FF0FF30BDE8F08F04
:10250000401E31D003990A6804990A42F8D042F279
:102510001070FFF795FF002000900298002839D92D
:10252000DDE90001002711F800B00120FFF788FF66
:102530002068A8432060C7F107002BFA00F010F0D4
:10254000010F306814BF40EA0A0020EA0A00306038
:102550000120FFF775FF206828432060D8F80000AD
:1025600010EA090F10D107E0A4A00BF007FC05B09A
:102570004FF0FF30BDE8F08F0398016804980142E6
:1025800013D07F1C082FD0D300980299401C0090D4
:102590008842C5D3306840EA0A0030607D4ED8F8E2
:1025A000000010EA090F06D01DE03A469BA00099F2
:1025B0000BF0E4FB34E003980168049801422DD04D
:1025C0000120FFF73DFF2068A84320600120FFF7AE
:1025D00037FF206828432060761E26D0D8F80000F8
:1025E00010EA090FE7D000990298401AC700102F8F
:1025F00038BF102700260120FFF722FF2068A843DC
:1026000020600120FFF71CFF206828432060761C13
:10261000BE42F0D305B00020BDE8F08F8DA005E0EC
:1026200005B04FF0FF30BDE8F08F94A00BF0A6FB93
:10263000F6E770B5FFF7B7FE984C994DA168401AC0
:10264000A8420DD32068401C206001F5A03000F5A1
:102650000260A060FFF7A7FEA168401AA842F1D26D
:102660002168E068091AB1F57A7F0AD36168491CCC
:102670006160216800F57A70091AB1F57A7FF5D2A8
:10268000E0602068B0F5FA6F38BF70BD0120854961
:10269000087070BD2DE9F041002B18BF002A23D02F
:1026A00015680026002D02BF1E700846BDE8F081A7
:1026B00008464FF0000C6F1E6446002F0DDD00BF72
:1026C00010F80C500A2D18BF03F80C5012D000BFA0
:1026D0000CF1010C641CBC45F2DB03F80C602044D7
:1026E000C2F800C0BDE8F0816FA00BF047FB0020EE
:1026F000BDE8F081BCF1000F13DD03EB0C0515F80C
:10270000015C0D2D04D1ACF1010CBCF1000F08DD12
:1027100003EB0C0515F8015C5C2D08BFACF1010C56
:10272000D6D0641CD9E710B5FFF720FE10BD2DE907
:10273000FF4FC7B01E46DDE955594798DDF850A157
:1027400000281CBF0768002F12D000291CBF499821
:1027500000280DD0002E1CBFBAF1000F002D07D0AD
:10276000B9F1000F05D00020884643904090A7E0C3
:10277000D2E0D9E02C2E030866756E6374696F6E23
:1027800020656E7472696573206572726F720000E5
:10279000C3300CC340420F00667067615F70726F98
:1027A0006772616D5F6C656E74683D257520657834
:1027B000636565642073636F70652028302C307802
:1027C0003830303030303030755D21003F420F00FE
:1027D0006670676120494E49545F42206F72204401
:1027E0004F4E45206C6F7720646574656374206F6D
:1027F00076657274696D652100000000494E495488
:102800005F42206869676820646574656374206F3F
:1028100076657274696D652100000000467067611D
:1028200020627974655B25755D206269745B25752E
:102830005D20646F776E6C6F6164206572726F7279
:102840002C20494E49545F4220676F746F206C6F93
:10285000772100004670676120646F776E6C6F614E
:1028600064206572726F722C20494E49545F422079
:10287000676F746F206C6F772100000046504741EE
:102880005F444F4E452068696768206465746563DE
:1028900074206F76657274696D652100100D0020DB
:1028A00020480100280D002066756E6374696F6E04
:1028B00020656E74727973206572726F72210000E8
:1028C000B94284BF09F00100469040F2238100BF65
:1028D000A8EB0700401C4290B0F5806F84BF4FF416
:1028E000806042903068FF4B401C306042AA3946FD
:1028F0000120FFF7CFFE070018BFFA481CD001786F
:10290000202914BF0929401CF9D011F0FF0F00F055
:10291000FE802F2915D018E0F3A00BF02FFA4BB052
:102920004FF0FF30BDE8F08FF6A00BF027FA4BB068
:102930004FF0FF30BDE8F08FF7A031680BF01EFAC2
:1029400022E041782F2900F0E2804FF4807269463E
:1029500006F054FE4190684649990BF00BFD48B1D2
:10296000DAF804104098814219DC0A46F3A0316875
:1029700000F0D3B8DAF804304098834209D0024618
:10298000FBA031680BF0FAF94BB04FF0FF30BDE817
:10299000F08F479807604BB00020BDE8F08F00240F
:1029A000B9F1000FCABFDDF818B14FF0000BBBF151
:1029B000000F0ADD04EB440055F8201068460BF0C8
:1029C000D9FCB8B1641CA345F4DC5C46CB4511DAF4
:1029D00004EB440B684655F82B100BF0CBFC48B1C8
:1029E00005EB8B00C16868460BF0C4FC48B1A41C21
:1029F000A145EDDC4C4506D16A46E8A0316800F0FF
:102A00008CB8641CF6E74098DAF8001000EB400040
:102A100001EBC00B40984FF48073401C409004EBD6
:102A2000440005EB8000CBF80000E7486A460178D7
:102A3000E64850F82100419906F047FE38B1E248D7
:102A40000178E24850F82120E1A0316865E068464D
:102A50000BF0ADFB401C0BF03BF9040024D06846A2
:102A60000BF0A5FB421C694620460BF058FC68465B
:102A7000CBF810400BF09BFB401C0BF029F9040035
:102A800015D068460BF093FB401C459068460BF050
:102A90008EFB014622466846459B06F0D6F9002883
:102AA0000ADAD7A0316804E0E2A0316801E0EFA0C3
:102AB00031680BF063F967E7CBF80C404FF4807393
:102AC0006A46F7A0419906F000FE48BB9DF8000059
:102AD00030B368460BF06BFB401C0BF0F9F80400B8
:102AE000E2D068460BF063FB421C694620460BF0BF
:102AF00016FCCBF8144044AB0622EBA0419903F03E
:102B000004FA002814BF00204498CBF80800B84508
:102B10003FF6DEAEE7A0439A49990BF02FF933E771
:102B20000020CBF81400E6E72DE9FF4FC7B01E46A2
:102B3000DDE955594798DDF850A100281CBF07680A
:102B4000002F3DD000291CBF4998002838D0002E06
:102B50001CBFBAF1000F002D32D0B9F1000F37D0F1
:102B60000020884643904090B94284BF09F001009C
:102B7000469040F2478200BFA8EB0700401C4290FD
:102B8000B0F5806F84BF4FF4806042903068554B41
:102B9000401C306042AA39460120FFF77BFD070048
:102BA00018BF50481CD00178202914BF0929401CA7
:102BB000F9D011F0FF0F00F022822F2915D018E074
:102BC00049A00BF0DBF84BB04FF0FF30BDE8F08FC1
:102BD0004CA00BF0D3F84BB04FF0FF30BDE8F08FB6
:102BE0004DA031680BF0CAF822E041782F2900F09F
:102BF00006824FF48072694606F000FD41906846F7
:102C000049990BF0B7FB48B1DAF8041040988142BB
:102C100019DC0A4649A0316800F0F8B9DAF8043046
:102C20004098834209D0024651A031680BF0A6F8C3
:102C30004BB04FF0FF30BDE8F08F479807604BB0C6
:102C40000020BDE8F08F0024B9F1000FCABFDDF805
:102C500018B14FF0000BBBF1000F0ADD04EB44008C
:102C600055F8201068460BF085FBB8B1641CA345ED
:102C7000F4DC5C46CB4511DA04EB440B684655F8AE
:102C80002B100BF077FB48B105EB8B00C168684651
:102C90000BF070FB48B1A41CA145EDDC4C4506D1FE
:102CA0006A463EA0316800F0B1B9641CF6E740986E
:102CB000DAF80010C0EBC00001EB800B40984FF435
:102CC0008073401C409004EB440005EB8000CBF87F
:102CD00000003D486A4601783C4850F8210041997F
:102CE00004E10000B4AB002066756E6374696F6E1A
:102CF00020656E74727973206572726F72210D0A8D
:102D0000000000004E6F207369676E616C2064657F
:102D100066696E65210D0A0044657620636667204A
:102D200072656164206C696E65206572726F7221D4
:102D3000206C696E653A25640D0A0000446576438F
:102D40006667204C25643A73656374696F6E206909
:102D500074656D206E756D2077696C6C2067726587
:102D600061746572207468616E2025640D0A00002C
:102D7000446576436667204C25643A7365637469DD
:102D80006F6E206974656D206E756D206572726F4F
:102D900072202564213D25640D0A000044657643B8
:102DA0006667204C25643A7369676E616C5F646581
:102DB00066696E6520222573222066696E6420662E
:102DC00061696C65640D0A00200D0020A80D0020CB
:102DD000446576436667204C25643A676574206BCA
:102DE0006579776F7264202225732220636F6E7479
:102DF000656E74206661696C6564210D0A000000CF
:102E0000446576436667204C25643A705F73696752
:102E10006E616C5F62696E6172792D3E6465736389
:102E200020656E636F64696E67206661696C6564B6
:102E30000D0A0000446576436667204C25643A70AD
:102E40005F7369676E616C5F62696E6172792D3E56
:102E5000646573635F75746638206D616C6C6F6355
:102E6000206661696C65640D0A0000004465764364
:102E70006667204C25643A705F7369676E616C5FAA
:102E800062696E6172792D3E64657363206D616C59
:102E90006C6F63206661696C65640D0A0000000058
:102EA00072656D61726B0000696E76697369626C40
:102EB0006500000070617273652022257322207303
:102EC000656374696F6E206661696C65642C20733C
:102ED000656374696F6E5F70617273655F7374614F
:102EE0007475733D25640D0A0000000006F0EDFBCB
:102EF00048B1F3480178F34850F82120AFF2301080
:102F0000316800F083B868460BF051F9401C0AF0B4
:102F1000DFFE040059D068460BF049F9421C6946AF
:102F200020460BF0FCF96846CBF814400BF03FF953
:102F3000401C0AF0CDFE040012D068460BF037F9B1
:102F4000401C459068460BF032F90146224668461F
:102F5000459B05F07AFF002805DADBA031682DE0FB
:102F6000E6A031682AE04FF480736A46CBF810403F
:102F7000AFF2D400419906F0A8FB10BB9DF8000009
:102F8000F8B168460BF013F9401C0AF0A1FE0400EA
:102F90001BD068460BF00BF9421C694620460BF02B
:102FA000BEF9CBF8184000BF4FF480736A46E0A02A
:102FB000419906F08AFB58B1DFA031680AF0DEFEC5
:102FC00036E60020CBF81800EEE7E7A03168F5E719
:102FD000042269460BF108000BF0A1F900248BF8DC
:102FE0000C4044AB0622AFF24010419902F08DFF35
:102FF000002812BFCBF804404498CBF80400B84531
:103000003FF6BAADAFF25410439A49990AF0B6FEB2
:103010000EE62DE9F04FADF5137DE1480390C17840
:10302000812904D0DFA00AF0A9FE00F007BF0068E4
:1030300020F07F44E248844288BFE2A00BD8E948F0
:1030400045F65A2204F10E010390FFF76CFB0028AD
:1030500018BFE5A003D00AF091FE00F0EFBE984D36
:10306000FF20012328702A46042141200DF029F970
:1030700028780026032810D3E1A00AF07FFE012360
:103080002A4648F2040141200DF01BF92878032854
:1030900003D3E6A00AF072FE2E7003994FF4806A03
:1030A0000F19F04B89AA0120CDF824A2FFF7F2FAFC
:1030B0000390002808BFECA0CDD02A78E948899970
:1030C00005F05AFE002818BFEEA0C4D10120889058
:1030D0007B4846600398874240F2FC86DFF8C49341
:1030E000F14D99F8000000F0010090900399781AD2
:1030F000401C8A90B0F5806F88BFCDF828A28898D0
:10310000D84B401C88908AAA0120FFF7C3FA03908D
:10311000002818BFD3480CD00178202914BF0929F2
:10312000401CF9D011F0FF0F00F0D0862F290BD0F2
:103130000EE0AFF21C4088990AF020FE0DF5137DD9
:103140004FF0FF30BDE8F08F41782F2900F0BE86A8
:103150004FF4807204A906F051FA594C06462079C2
:1031600010F0010F04D1D1A104A80BF003F930B184
:10317000207910F0020F40F0428300F03BBB4FF487
:10318000807304AA3146CEA006F09FFA002840F0D2
:103190006B860022114604A80AF098FFC94EB06061
:1031A00090B32C210AF080FD306070B30020DDF870
:1031B0000C804FF0010B8C90474540F2E08200BF3D
:1031C000A7EB0800401C8790B0F5806F88BFCDF852
:1031D0001CA28898A34B401C889087AA41460120D6
:1031E000FFF758FA5FEA000818BF9E4820D0017820
:1031F000202914BF0929401CF9D011F0FF0F00F05D
:10320000B4822F2919D01CE000E007E0AEA00AF03C
:10321000B5FD0DF5137D0020BDE8F08FB0A08899B5
:103220000AF0ACFD0DF5137D4FF0FF30BDE8F08FD7
:10323000AFF21C50889900F025BA41782F2900F090
:1032400094824FF4807244A906F0D8F90090AFA19F
:1032500044A80BF08FF8A0B1B1A144A80BF08AF8F4
:103260000028984804BF0668B04826D080685845B2
:1032700024DC94488268AFF23C5088990AF07EFDC5
:103280001AE090488168594506D083685A46AFF2E3
:103290002050889900F02EBA0021C1604FF40041FF
:1032A0000161891F874802F0CBFE002800F06A8286
:1032B0009FA000BF0AF062FD50E19FE158E10000CD
:1032C000200D0020A80D0020446576436667204C41
:1032D00025643A705F7369676E616C5F616E616CE3
:1032E0006F672D3E6465736320656E636F64696EFE
:1032F00067206661696C65640D0A00004465764369
:103300006667204C25643A705F7369676E616C5F15
:10331000616E616C6F672D3E64657363206D616CD7
:103320006C6F63206661696C65640D0A00000000C3
:10333000756E697400000000446576436667204C32
:1033400025643A676574206B6579776F7264202213
:10335000756E69742220636F6E74656E7420666189
:10336000696C6564210D0A00446576436667204CEC
:1033700025643A705F7369676E616C5F616E616C42
:103380006F672D3E646573635F75746638206D6189
:103390006C6C6F63206661696C65640D0A000000E7
:1033A00000000E08446576206366672074797065B6
:1033B000206973206572726F72210D0A000000008F
:1033C00072FF010044657620636667206C656E6756
:1033D000746820636865636B206572726F72210D7B
:1033E0000A00000080000E084465762063666720AE
:1033F000637263206973206572726F72210D0A0017
:103400004C616E677561676520697320756E6B6EC0
:103410006F772C20747279206261636B7570206CF9
:10342000616E6775616765210D0A00004261636B1B
:103430007570206C616E67756167652069732061C6
:103440006C736F20756E6B6E6F772C2075736520B3
:1034500064656661756C74206C616E677561676523
:10346000210D0A00B4AB0020446576206366672016
:1034700072656164206C696E65206572726F72217D
:103480000D0A000055746638546F537973456E63A6
:103490006F6465496E6974616C206661696C65640E
:1034A000210D0A003C1B0308000C03083C537973F0
:1034B00074656D506172616D657465720000000025
:1034C0004E756D0044BC002053657474696E67735B
:1034D00020627970617373206D6F6465210D0A003D
:1034E000446576436667204C25643A736574746955
:1034F0006E675F73797374656D2063616C6C6F6365
:10350000206661696C65640D0A0000003C2F5379E8
:103510007374656D506172616D6574657200000051
:103520006C616E6775616765000000002C300308F0
:1035300073797374656D2073657474696E67206543
:103540006570726F6D20737061636520616C6C6F64
:1035500063206661696C65640D0A0000F7A08899B4
:103560000AF00CFC0DF5137D4FF0FF30BDE8F08F35
:10357000D9F8000000240028CABF909E0026002E23
:103580000BDD00BF04EB440055F8201044A80AF0FE
:10359000F1FED8B1641CA642F4DCD9F80000344630
:1035A000864213DA04EB440644A855F826100AF0C4
:1035B000E1FE58B105EB8600C16844A80AF0DAFEC6
:1035C00060B1D9F80000A41CA042EBDCD9F80000DF
:1035D000844205D144AAE6A0889924E0641CF5E75A
:1035E000F04801680BEB4B0000EBCB0001EB8006D1
:1035F00004EB44000BF1010B05EB80003060EA485E
:10360000EA494FF48073007844AA51F820000099E9
:1036100006F05BF850B1E4480178E44850F8212006
:10362000AFF6540088990AF0A9FB45E644A80AF0D1
:10363000BEFD401C0AF04CFB040000F09D8044A835
:103640000AF0B5FD421C44A920460AF068FE44A8D1
:1036500074620AF0ACFD401C0AF03AFB040014D07E
:1036600044A80AF0A4FD401C8F9044A80AF09FFDD6
:103670000146224644A88F9B05F0E7FB002807DAA5
:10368000CBA088990AF07AFB16E6D5A08899F9E7CD
:103690004FF4807344AA3462AFF26C30009906F0A4
:1036A00014F818B1AFF270308899EBE7042244A9FE
:1036B00006F118000AF033FE002434778DAB0622A1
:1036C000AFF61C00009902F020FC002812BFB46085
:1036D0008D98B060306806F110030099027ACBA093
:1036E00002F013FC00283068027A06D044ABC8A070
:1036F000DDF820120AF042FBDEE506F11403D2A049
:10370000009902F002FC00283068027A03D044AB32
:10371000CEA08899EEE706F10C03DAA0009902F03A
:10372000F4FB28B1306844AB8899027AD7A0E1E76E
:103730004FF4807344AAAFF69800009905F0C5FFD6
:10374000C0B99DF81001A8B144A80AF030FD401C92
:103750000AF0BEFA04000FD044A80AF028FD421C6B
:1037600044A920460AF0DBFDB46247453FF628AD88
:103770008C9905E0B462F8E7D3A0889982E7014606
:10378000DDA07FE7874802F0F5F850B385480123B4
:1037900091AAC16841200CF094FD9DF84402FF28D5
:1037A00018BFE2487FF486ADE1A00AF0E7FA7D4851
:1037B00002F0E6FA002818BFECA07FF47BAD794850
:1037C00003F0B0FB002818BFEEA07FF473ADF3A0A8
:1037D0000AF0D4FA4FF4FA70FEF716FEFEF7A9FAD3
:1037E000FEE77148CDF80C80416841F0010141606D
:1037F00000F06CBBF7A104A80AF0BCFD20B1207951
:1038000010F0040F4CD146E04FF4807304AA314607
:10381000AFF2543005F059FF002840F02583002214
:10382000114604A80AF052FCEC4E706008B31C214B
:103830000AF03AFA306020B3E94888ABEAA201689E
:10384000E8480096CDE90101394603A8FFF76CF975
:10385000002804BF606840F0020000F0F582E5A097
:1038600088990AF08BFA0DF5137D4FF0FF30BDE813
:10387000F08FEBA00AF082FA0DF5137D0020BDE871
:10388000F08FEFA088990AF079FA0DF5137D4FF0CB
:10389000FF30BDE8F08FF4A104A80AF06BFD20B161
:1038A000207910F0080F47D136E24FF4807304AA54
:1038B0003146AFF2F43005F008FF002840F0D48222
:1038C0000022114604A80AF001FCEB4E706008B318
:1038D0001C210AF0E9F9306020B3E84888ABE9A27E
:1038E0000168E7480096CDE90101394603A8FFF7D2
:1038F0001BF9002804BF606840F0040000F0A482B7
:10390000E4A088990AF03AFA0DF5137D4FF0FF30E4
:10391000BDE8F08FEBA00AF031FA0DF5137D002021
:10392000BDE8F08FF0A088990AF028FA0DF5137D14
:103930004FF0FF30BDE8F08FF3E1000044657643BF
:103940006667204C25643A53797374656D506172D3
:10395000616D657465722073656374696F6E207044
:1039600061727365206661696C65640D0A00000010
:10397000446576436667204C25643A7365747469C0
:103980006E675F73797374656D5F646566696E6594
:1039900020222573222066696E64206661696C6549
:1039A000640D0A0044BC0020200D0020A80D00205A
:1039B000446576436667204C25643A705F7365748E
:1039C00074696E672D3E6465736320656E636F6412
:1039D000696E67206661696C65640D0A000000000D
:1039E000446576436667204C25643A705F7365745E
:1039F00074696E672D3E64657363206D616C6C6FD6
:103A000063206661696C65640D0A00006D696E0073
:103A1000446576436667204C25643A676574206D7B
:103A2000696E2076616C756520747970653D2564DA
:103A3000206661696C6564212C207374723D2225B7
:103A400073220D0A000000006D6178004465764322
:103A50006667204C25643A676574206D617820762E
:103A6000616C756520747970653D256420666169B7
:103A70006C6564212C207374723D222573220D0A1B
:103A80000000000064656661756C740044657643EF
:103A90006667204C25643A676574206465666175C5
:103AA0006C742076616C756520747970653D256451
:103AB000206661696C6564212C207374723D222537
:103AC00073220D0A00000000446576436667204CAF
:103AD00025643A705F73657474696E672D3E646522
:103AE00073635F75746638206D616C6C6F632066FC
:103AF00061696C65640D0A007061727365206F6E98
:103B0000652073656374696F6E206661696C6564B6
:103B10002C2073656374696F6E5F70617273655F8B
:103B20007374617475733D25640D0A0038300308A1
:103B300044657669636520706F776572206F6E20CB
:103B400066697273742074696D652C20616E6420DF
:103B5000736176652073657474696E677320746F22
:103B60002064656661756C74210D0A007365747458
:103B7000696E672073617665206661696C65642192
:103B80000000000073657474696E67206368656384
:103B90006B206661696C6564210000005361766585
:103BA0002064656661756C742073657474696E67F2
:103BB000732073756363657373210D0A5265626FB9
:103BC0006F74696E67206465766963652E2E2E0DAD
:103BD0000A0000003C416E616C6F67007C0D0020A4
:103BE000B8270308401B03083C2F416E616C6F67C8
:103BF00000000000446576436667204C25643A4126
:103C00006E616C6F672073656374696F6E2070619D
:103C1000727365206661696C65640D0A00000000BE
:103C20005369676E616C20416E616C6F67206279C9
:103C300070617373206D6F6465210D0A00000000D0
:103C4000446576436667204C25643A616E616C6F0B
:103C5000675F67726F75702063616C6C6F6320665D
:103C600061696C65640D0A003C53656C664469616A
:103C7000676E6F7365000000840D0020BC27030889
:103C8000B02303083C2F53656C66446961676E6F0F
:103C900073650000446576436667204C25643A539B
:103CA000656C66446961676E6F73652073656374E4
:103CB000696F6E207061727365206661696C6564FE
:103CC0000D0A00005369676E616C2053656C662DA8
:103CD000446961676E6F73652062797061737320E8
:103CE0006D6F6465210D0A00446576436667204C5C
:103CF00025643A73656C665F646961676E6F7365AE
:103D00005F67726F75702063616C6C6F63206661B2
:103D1000696C65640D0A00006FA104A80AF02AFB13
:103D200020B1207910F0100F4AD144E04FF4807395
:103D300004AA3146AFF6780005F0C7FC00286DD123
:103D40000022114604A80AF0C1F9684E706000B361
:103D5000182109F0A9FF306018B36548654988ABA0
:103D600000680096CDE9011063A2394603A8FEF76A
:103D7000DEFC002804BF606840F0080064D063A047
:103D8000889909F0FBFF0DF5137D4FF0FF30BDE87A
:103D9000F08F6BA009F0F2FF0DF5137D0020BDE858
:103DA000F08F71A0889909F0E9FF0DF5137D4FF0B0
:103DB000FF30BDE8F08F79A104A80AF0DBFA20B14A
:103DC000207910F0200F40D140E04FF4807304AA16
:103DD0003146AFF6141005F078FCF8B90022114610
:103DE00004A80AF073F9704E7060D8B1182109F078
:103DF0005BFF3060F0B16D486D4988AB006800969C
:103E0000CDE901106BA2394603A8FEF790FC00280B
:103E100004BF606840F0100016D000E024E068A005
:103E2000889940E071A009F0A9FF0DF5137D0020ED
:103E3000BDE8F08F74A0889909F0A0FF0DF5137DFF
:103E40004FF0FF30BDE8F08F60603FE079A104A83B
:103E50000AF090FA90BB4FF4807304AA3146AFF693
:103E6000A01005F032FC10B175A088991BE000226B
:103E7000114604A80AF02AF97B4E7060B0B11821EF
:103E800009F012FF3060D0B17848794988AB0068FA
:103E90000096CDE9011077A2394603A8FEF747FC4A
:103EA00080B177A0889909F069FFC7E77FA009F082
:103EB00065FF00200DF5137DBDE8F08F06E084A0BE
:103EC0008899F0E7606840F02000606003988742BE
:103ED0003FF60CA90020EDE73C53656C6644696130
:103EE000676E6F736542696E000000008C0D0020E4
:103EF000C0270308942703083C2F53656C66446968
:103F000061676E6F736542696E00000044657643B9
:103F10006667204C25643A53656C66446961676E38
:103F20006F736542696E2073656374696F6E20708C
:103F300061727365206661696C65640D0A0000003A
:103F40005369676E616C2053656C662D44696167C7
:103F50006E6F73652042696E2062797061737320A1
:103F60006D6F6465210D0A00446576436667204CD9
:103F700025643A73656C665F646961676E6F73652B
:103F80005F62696E5F67726F75702063616C6C6FE2
:103F900063206661696C65640D0A00003C42696ECD
:103FA000496E707574000000940D0020C42703084A
:103FB000A02703083C2F42696E496E70757400009B
:103FC000446576436667204C25643A42696E496EC3
:103FD0007075742073656374696F6E20706172739D
:103FE00065206661696C65640D0A000042696E2097
:103FF000696E70757420627970617373206D6F647F
:1040000065210D0A00000000446576436667204C78
:1040100025643A62696E5F696E7075745F67726F6E
:1040200075702063616C6C6F63206661696C656498
:104030000D0A00003C42696E4F7574707574000083
:10404000446576436667204C25643A676574206B47
:104050006579776F726420224E756D2220666169E2
:104060006C65640D0A0000009C0D0020C827030841
:10407000AC2703083C2F42696E4F7574707574004D
:10408000446576436667204C25643A42696E4F75F5
:10409000747075742073656374696F6E20706172DB
:1040A0007365206661696C65640D0A005369676E0B
:1040B000616C2062696E206F75747075742062790E
:1040C00070617373206D6F6465210D0A000000003C
:1040D000446576436667204C25643A62696E5F6F7B
:1040E00075747075745F67726F75702063616C6C46
:1040F0006F63206661696C65640D0A002DE9F0410B
:10410000FEF751F94FF0E0250746D5F8840140F459
:104110000050C5F88401FEF78CFA634E307810F039
:10412000010F18BFFDF728FF604800686049C0F51F
:10413000007008805F4C6079B0B9E178012041B926
:10414000217831B1E070D5F8081241F08001C5F84E
:104150000812217941B9617831B12071D5F808028E
:1041600040F04000C5F808023078A070524800685E
:10417000E060307810F0800F08BFFDF7CDFD3846C5
:10418000FEF715F9E0612169814238BF20614B4893
:10419000016841F040010160BDE8F08170B5FEF7B3
:1041A00048FA414D287810F0010F18BF00F08AF846
:1041B0003E4800683E49C0F5007008803D4C60797B
:1041C000C0B9E27801214FF0E02042B9227832B143
:1041D000E170D0F8082242F08002C0F8082222796B
:1041E00042B9627832B12171D0F8081241F0400131
:1041F000C0F808122878A0702F480068E06028787E
:1042000010F0800F08BFFDF787FD002020612C48CB
:10421000018A21F00301018270BD7047704770B5BB
:10422000FEF7C1F8234C0546E088411C1E48E1809A
:10423000007810F0010F1CBF2078FDF760FF2846C2
:10424000FEF7B5F820626169814238BF60610020E5
:104250002070E07070BD70B5FEF7A5F8154C0546EE
:104260002089411C10482181007810F0010F1CBFEB
:104270006078FFF7D3FF2846FEF799F8A061616ADE
:10428000814238BF606200206070207170BD0948B3
:1042900041790029FCD10121417100207047054975
:1042A00000204871704700000C0D00208C64024013
:1042B000B60D00202C0D0020140D0020143C0140F0
:1042C000002000402DE9F001F64807790126C024BE
:1042D000F54DF64BF64900224FB1072F1ED084460C
:1042E000082FDCF800C020D00E2F2DD138E0D1F8F7
:1042F0008CC0CCF5007CA0F814C093F800C0BCF1D1
:10430000000F27D1B0F814C0C78AACEB070CCCF370
:10431000080CBCF1000F18BF1E701BE0D1F8A0C044
:104320004CF0010CC1F8A0C00EE04F6817F4001F5C
:1043300010D0BCF800C034EA0C0C0BD1D1F80CC082
:104340004CF4741CC1F80CC090F804C00CF1010CC2
:1043500080F804C0877ADFF85CC3012F11D107E031
:10436000ACF800204FF0040CA5F800C00271F1E792
:10437000C768DCF80080A8EB0707B7F5FA6F88BFBD
:104380008272CD48077937B1072F12D0082F15D088
:104390000E2F20D133E0496CC1F50071818219786C
:1043A000E1B9818AC48A091BC905C90D18BF1E70ED
:1043B00014E00B6F43F001030B670CE04B6813F044
:1043C000200F0BD003681B8834EA030306D1CB68A7
:1043D00043F03D03CB600179491C0171817A0129C9
:1043E0001CBFBDE8F0017047C168DCF80030591A05
:1043F000B1F5FA6F88BF8272BDE8F00170470168BD
:104400000A80202129800271E8E72DE9F84FFDF7A5
:10441000CAFF0090A3480646818AC28A891AC90544
:10442000C90D1CBF417A002903D0012908BF03F040
:1044300041FFB6F81E34C027002B18BF06F5A4684C
:104440007CD07CDDB3F5803F98BF964A77D8107951
:104450000028FCD1B3F5007F58DDA3F50074002CD3
:1044600051DDDFF84C9202F5077A4FF0010B00BFE7
:10447000B4F5007FA8BF4FF4007C02DAB4F1000C61
:104480000BDD41460023654602EB030E11F8010BDC
:104490005B1C8EF81C026D1EF6D1D9F8A00010F03E
:1044A000010F0AD0D9F8A00020F00100C9F8A0003F
:1044B000D9F8A00010F0010FF4D1C9F8ACA0C9F8E8
:1044C000A4C0D9F80C0040F47410C9F80C001068AE
:1044D000018837EA01011CBF11790029F8D10021B8
:1044E000018082F804B0107A10B974480421018068
:1044F000D9F8A00040F00100C9F8A000A4EB0C041A
:10450000E044002CB4DC4FF4007301E0002B09DD23
:1045100000201946141818F801CB401C84F81CC25E
:10452000491EF7D1624800BFD0F8A4100029FBD182
:10453000D0F8A01011F0010F0DD001E021E01DE036
:10454000D0F8A01021F00101C0F8A010D0F8A01000
:1045500011F0010FF1D102F50771C0F8AC10C0F8ED
:10456000A430C16841F47411C160117A00297DD072
:10457000D0F8A01041F00101C0F8A0100020A6F86A
:104580001E040098FDF713FF4D49486009688142F9
:104590003CBF4B490860FDF706FF009046480646C1
:1045A000818AC28A891AC905C90D1CBF417A0029AE
:1045B00003D0012908BF03F07DFEB6F81E140029C0
:1045C00018BF06F5A4687DD07DDDB1F5803F98BFAA
:1045D000394C78D820790028FCD1B1F5007F74DD02
:1045E000A1F50079B9F1000F59DDDFF8C4C004F579
:1045F000077A8346B9F5007FA8BF4FF4007302DA4B
:10460000B9F100030BDD414600221D4604EB020E0A
:1046100011F8010B521C8EF81C026D1EF6D1DCF84D
:10462000700010F0010F0AD0DCF8700020F00100DB
:10463000CCF87000DCF8700010F0010FF4D1CCF869
:104640007CA0CCF87430DCF80C0040F03D00CCF8D5
:104650000C002068018837EA01011CBF217900297C
:10466000F8D1A0F800B00120207100E002E0207A2B
:1046700048B905E0012010711049042008807DE749
:104680000E4920200880DCF8700040F00100CCF8D2
:104690007000A9EB03099844B9F1000FAADC4FF4AC
:1046A000007114E0B4AF0020181C02402C0D002053
:1046B00000600240100D0020F4B500201A1C0240DA
:1046C000580D00202FE02BE0FFE700290ADD002035
:1046D0004FEA0102231818F801CB401C83F81CC2D2
:1046E000521EF7D1FE48426F002AFCD1026F12F031
:1046F000010F07D0026F22F001020267026F12F071
:10470000010FF7D104F50772C2674167C16841F034
:104710003D01C160217A91B1016F41F00101016752
:104720000020A6F81E040098FDF741FEED49C86080
:104730008A68824238BF88600020BDE8F88F012077
:104740002071E94920200880EAE72DE9F041E74897
:10475000E74901240160C4800025057244720526E2
:1047600002278661077445748474E2A009F006FB91
:10477000E948EA490160C4800572447286610774A1
:1047800045748474E6A009F0F9FA0020BDE8F081D0
:1047900070B550B1817C044608290AD3E9A009F01C
:1047A000EDFA00BF4FF0FF3070BDF1A009F0E6FA5E
:1047B000F8E72068A0F18042B2F588321CBFA0F172
:1047C0008042B2F58A3203893AD1F04A32F81110A8
:1047D0008B4218BF002900D00181607C21688007CE
:1047E000800C08822068818921F4B055217C012940
:1047F00008BF45F4B05503D0022908BF45F4A055C1
:104800008189A9420DD021790029FCD1818921F02B
:104810000C0121F4005181810520FDF7F5FD206890
:1048200085810020E072A06905283CBF0520A061B9
:1048300004D3D749814238BF0846A061002070BD2B
:10484000D44A32F811108B4218BF0029C5D0C3E7F3
:104850002DE9F05FD048A54D006840F0C101CE4879
:1048600041F400110160DFF83483D8F8000040F40F
:104870000030C8F80000CA4804210180C948006817
:10488000C84920F0300040F010000860081D0068A2
:10489000091D20F004000860081D016841F0300186
:1048A0000160DFF804934FF4C050A9F8000009F14B
:1048B000020B4FF4006AABF800A0BC48016821F07D
:1048C000707141F0A0710160001D016821F4C051B8
:1048D0000160001D016841F070710160B44E3068E4
:1048E00020F0F00040F0A0003060706820F00C0074
:1048F0007060B06840F0F000B060306A20F47F4033
:1049000040F4EE403062764CD4F8880010F0010F8D
:104910000BD000BFD4F8880020F00100C4F8880054
:10492000D4F8880010F0010FF4D12868001DC4F8F5
:10493000900005F11C00C4F894004FF40070C4F816
:104940008C009C48C4F888000320C4F89C00E068F0
:1049500040F47460E060D4F8A00010F0010F0AD0B9
:10496000D4F8A00020F00100C4F8A000D4F8A00002
:1049700010F0010FF4D12868001DC4F8A80005F557
:104980000770C4F8AC000120C4F8A4008A48C4F839
:10499000A0000720C4F8B400E06840F47410E060A0
:1049A0002968C02088822868002707822868078035
:1049B000296842F20C008881D4F8880040F0010098
:1049C000C4F88800D4F8A00040F00100C4F8A000AA
:1049D0002846FFF7DDFE40B178A009F0CFF97FA0AF
:1049E00009F0CCF9781EBDE8F09F297A4FF4805089
:1049F000002919BFA9F800A0ABF80000A9F8000031
:104A0000ABF800A07CA009F0B9F9634942480A68F4
:104A100042F0810242F400120A60D8F8001041F41A
:104A20000021C8F80010316821F00F0141F00A019F
:104A30003160716821F003017160B16841F00F01CC
:104A4000B160316A21F0FF0141F0880131625449BF
:104A500020220A8053490A6822F4406242F48062AC
:104A60000A60091D0A6822F020020A60091D0A680E
:104A700042F440620A60216C11F0010F07D0216CF2
:104A800021F001012164216C11F0010FF7D10168BF
:104A9000091DA16400F11C01E1644FF4007161641F
:104AA0004449216403216165A16841F47411A16046
:104AB000216F11F0010F07D0216F21F00101216753
:104AC000216F11F0010FF7D10168091DA16700F5F1
:104AD0000771E167012161673749216707219DE07F
:104AE00000600240580D00201A1C0240B4AF0020A4
:104AF00000440040202020205561727432206372EF
:104B000065617465207375636365737366756C6C3A
:104B100079210D0A00000000F4B50020004C00408F
:104B200020202020556172743420637265617465A1
:104B3000207375636365737366756C6C79210D0AF8
:104B400000000000626175645F726174653D2564F8
:104B5000206578636565642074686520616C6C6F9E
:104B60007765642073636F7065210D0A0000000093
:104B700066756E6374696F6E20656E7472797320EA
:104B80006572726F72210D0A00000000CA300308BE
:104B9000C0270900BA3003083038024040380240CC
:104BA000181C0240001C0240181802400018024065
:104BB00000000240000503084004000855706461CD
:104BC00074652075617274342073657474696E67DE
:104BD00073206661696C6564210D0A002020202025
:104BE000556172743220696E697469616C20666106
:104BF000696C6564210D0A002020202055617274C3
:104C00003220696E697469616C20737563636573C2
:104C10007366756C6C79210D0A000000C4F884106D
:104C2000E16841F03D01E1600268C02191820168C4
:104C30000F8201680F80026842F20C019181216CA1
:104C400041F001012164216F41F001012167FFF76B
:104C50009FFD50B1AFF29C0009F090F819A009F047
:104C60008DF84FF0FF30BDE8F09F1DA009F086F8E9
:104C70000020BDE8F09F10B52248FFF789FD28B15C
:104C800021A009F07BF84FF0FF3010BD1D484FF414
:104C9000805390F808C02548C114821CBCF1000F55
:104CA00019BF01801380038011802148FFF770FD38
:104CB000002808BF10BD1FA009F060F84FF0FF30BA
:104CC00010BD000020202020556172743420696ED0
:104CD000697469616C206661696C6564210D0A0004
:104CE00020202020556172743420696E69746961D6
:104CF0006C207375636365737366756C6C79210DD5
:104D00000A000000B4AF00202020202055617274FA
:104D1000322073657474696E67732068616E646CA9
:104D200065206572726F72210D0A0000181802402A
:104D3000F4B5002020202020556172743420736562
:104D40007474696E67732068616E646C6520657247
:104D5000726F72210D0A000002F06AF948B137A0A3
:104D600009F00CF83DA009F009F800BF04F09AFB27
:104D7000FCE740A009F002F8434808F0FFFF43A019
:104D800008F0FCFF4DA008F0F9FF3F4808F0F6FFDF
:104D9000FBF778FA48B153A008F0F0FF2FA008F015
:104DA000EDFF00BF04F07EFBFCE7FEF732F940B1F7
:104DB00053A008F0E3FF29A008F0E0FF04F072FB25
:104DC000FCE756A008F0DAFFFBF76BFA48B145A004
:104DD00008F0D4FF21A008F0D1FF00BF04F062FB6F
:104DE000FCE754A008F0CAFF33A008F0C7FF57A0A3
:104DF00008F0C4FF5C494FF4007008805B480178FC
:104E00000029FCD05A48017841F00101017059484D
:104E1000402101605848D0F8802142F40002C0F8D7
:104E20008021026842F400020260544801600BA035
:104E300008F0A4FF04F036FBFCE70000537973741C
:104E4000656D20686172647761726520696E69744E
:104E500069616C206661696C656421005B417070FA
:104E60004044656E677875652059616E5D203D3EF2
:104E7000200000004861726477617265207265618C
:104E80006479210D0A000000DC30030823205379E7
:104E90007374656D20436F6D70696C652054696D26
:104EA00065203A204A756C2032342032303135206A
:104EB00031343A35373A32300D0A00002320537925
:104EC0007374656D20417574686F722020202020F6
:104ED00020203A2044656E677875652059616E0D13
:104EE0000A0000004170706C69636174696F6E2024
:104EF0004E4557206661696C6564210D0A0000000B
:104F000052264420436F6E66696E6720706172732B
:104F100065206661696C6564210D0A005226442093
:104F2000436F6E66696E67207265616479210D0A50
:104F3000000000004170706C69636174696F6E20DD
:104F40007265616479210D0A00000000456E746588
:104F5000722075736572206170706C696361746929
:104F60006F6E210D0A0D0A001A040240280D002060
:104F70000C0D0020143C014000E100E0003C014029
:104F80002DE9F001FE480078FE4F10F0020F4FF0BF
:104F900004064FF00204A7F102054FF000021CBF07
:104FA0003C802E8016D0F8484168B1F5FA7F3FBFAB
:104FB000491C4160BDE8F0017047F4490B78002BB3
:104FC0001CBFBDE8F0017047426003200870BDE8D7
:104FD000F0017047EE48DFF8C0C301684B1CED4993
:104FE00003609CF80AC091F80A80EC49B8F1010FFF
:104FF00006D0BCF1010F18BF3E800BD02C80D2E749
:10500000BCF1010F03D0B3F57A7FF7D905E0642B2B
:10501000F4D902E0B3F57A6FF0D90B6883F004039A
:105020000B600260EAE7002912BF002A00207047E7
:105030002DE9F04FC0F3CF0600F007070844401EEB
:10504000C0F3CF0485B09246984600F00705A6420B
:1050500056D10020E91B4A1C8DF80000002A1DDDF6
:1050600011F0010F04D18020F8408DF800000120DC
:10507000511018BF802211D007EB000C22FA0CF35C
:105080009DF800400CF1010C22FA0CFC23434CEA81
:105090000303801C8DF80030491EEDD132460121FA
:1050A00068460E9B03F000FDBAF1010F7DD90AEBB3
:1050B0008A0006EBC000283882B2012168460E9BA8
:1050C00003F0F2FCB8F1000F06D1802020FA07F1BE
:1050D000E84008438DF800000124AAF10105012DE4
:1050E00063DD00BF04EB840006EBC00082B2012147
:1050F00068460E9B03F0D8FC641CA542F2DC8BE0F2
:105100004FF0FF0929FA07F08DF80400C5F10700F8
:10511000039009FA00F08DF808003246012101A839
:105120000E9B03F0C1FC751CAC420ADD8DF80090AB
:10513000AAB2012168460E9B03F0B6FC6D1CAC427E
:10514000F4DC00232246012102A803F0ADFCBAF1F1
:10515000010F61D90AEB8A0B06EBCB00283882B22B
:10516000012101A80E9B03F09FFC751CA5420DDADE
:1051700005EBCB00283882B28DF8009001216846FB
:105180000E9B03F091FC6D1CA542F1DB04EBCB0000
:10519000283882B2012102A80E9B03F085FCB8F1E9
:1051A000000F0BD18020F84000E035E08DF80400BE
:1051B0000398012101FA00F08DF808000127AAF1F7
:1051C000010BBBF1010F27DD07EB870A06EBCA00D5
:1051D00082B2012101A80E9B03F066FCB8F1000F1A
:1051E0000FD0751C8DF80090AC420ADD05EBCA00AB
:1051F00082B2012168460E9B03F056FC6D1CAC4246
:10520000F4DC04EBCA0082B2012102A80E9B03F079
:105210004BFC7F1C5F45D7DB05B00020BDE8F08F5D
:105220002DE9F04FDFF860910127002699F8000082
:1052300093B0002840F00C8103F0D0F989F8007099
:1052400001234B22072141F279600096FFF7EBFE24
:1052500000234B22072147F2F9200096FFF7E3FED7
:1052600000234B2207214CF679700096FFF7DBFEF6
:105270000123DF2202214FF4AA500096FFF7D3FE4C
:105280000123DF22194641F26B500096FFF7CBFE57
:105290000123DF22194641F2A3500096FFF7C3FE17
:1052A0000123DF22194641F203600096FFF7BBFE9F
:1052B0000123DF22194641F24B600096FFF7B3FE4F
:1052C0000123DF22022141F276600096FFF7ABFE58
:1052D00001231A464FF49C714FF4AA500096FFF731
:1052E000A2FE4FF42A544FF0000801231A464FF44F
:1052F0009C7120460096FFF796FE012304F5A070EE
:105300001A464FF49C710096FFF78DFE04F5AA54DF
:10531000012501231A4640F20D1104F12B000096DD
:10532000FFF781FE6D1C04F5AA54062DF1DB08F190
:105330000108B8F1020FD8DB01231A464FF49C7123
:1053400020460096FFF76FFE012304F5A0701A4671
:105350004FF49C710096FFF766FE11A2292105A863
:1053600008F018FD19484FF001024FF000010078D5
:10537000012805A87ED003F068FA7F2314A23DE03F
:105380000C0D00201A080240680D00202C0D002092
:1053900034BC0020F4B50020B4AF00201408024053
:1053A00020202020202020202020323030302D309E
:1053B000312D30312030303A30303A30302020201A
:1053C000202020202020202000000000200D002090
:1053D0002020414E542053454E534F522020202030
:1053E00020205420202825632920202051202864B3
:1053F000422920205354202000000000292105A824
:1054000008F0C8FC00224FF4347105A803F01DFA1F
:105410004FF4AF644FF0000A4FF07F0828340025A6
:105420006B1CABA2292105A8CDF8008008F0B2FCC6
:10543000601D81B2002205A803F007FA6D1C04F577
:105440002A74062DECDB0AF1010ABAF1020FE5DB42
:10545000D9F8080014283CBF401CC9F808006DD3D7
:10546000C9F8086099F80100A249801CA1FB00213D
:10547000890800E021E0A1EB810100EB4100C0B20E
:1054800089F80100022829D201234B22072141F289
:1054900079600096FFF7C7FD00234B22072147F2F2
:1054A000F9200096FFF7BFFD00234B2207214CF6A1
:1054B00079700096FFF7B7FD40E003F0C6F97F234F
:1054C0008DA2292105A808F065FC00224FF4347153
:1054D00005A803F0BAF94FF4AF649BE704284FF036
:1054E00000034FF04B024FF0070141F27960009644
:1054F00012D2FFF798FD01234B22072147F2F92032
:105500000096FFF790FD00234B2207214CF679709F
:105510000096FFF788FD11E0FFF785FD00234B2281
:10552000072147F2F9200096FFF77DFD01234B226A
:1055300007214CF679700096FFF775FDD9F80C003D
:1055400004283CBF401CC9F80C001CD3C9F80C60EF
:1055500099F8020037EA000089F8020009D0714882
:10556000817A71480129807A7ED0012808BF2D20D8
:1055700000D020208DF8140001228DF8156011460E
:1055800005A803F062F9072210A91F2003F0A2FA70
:105590009DF840009DF8422000F07F009DF84110EA
:1055A0009DF84330CDE9031002F07F02CDE90132CE
:1055B0009DF8440000909DF846305CA2292105A882
:1055C00008F0E8FB01220C2105A803F03EF9DFF802
:1055D0007CB1DFF87CA14FF4AF64002799F801009B
:1055E000283438448BFB0021A1EBE171A1EB810150
:1055F00000EB4100C0EB401101EBC0125549431CC8
:1056000001EB820854A2292105A808F0C3FBA1B22E
:10561000002205A803F019F95FF0000505EB8500ED
:1056200000EBC50008EBC00000F10C06B0F9440027
:1056300041F27B4110FB01F1CA14A2EBE1738AFB3A
:1056400000214A11A2EBE1716FF01802514300EB07
:1056500081000028BCBF404200B242A20090292134
:1056600005A808F097FB00E02CE004F10D0081B2E2
:10567000002205A803F0E9F8337C3DA2292105A802
:1056800008F088FB04F11A0081B2002205A803F09B
:10569000DCF8338B36A2292105A808F07BFB04F146
:1056A000220081B2002205A803F0CFF86D1C04F59A
:1056B0002A74062DB2DB7F1C022F8FDB13B0002073
:1056C000BDE8F08F01280CBF2A202B2052E70000F4
:1056D000202020252032752020202020202D2D2E36
:1056E0002D2D2025632020202D2D2D2064422020CB
:1056F00020202D00ABAAAAAA20CCECCFDF20B4AB8F
:10570000B8D0C6F720202020CEC2B6C820282563F6
:105710002920C7BFB6C82864422920D7B4CCAC2002
:1057200000000000F4B50020B4AF0020253032584E
:105730002D253032582D2530325820253032583A18
:10574000253032583A25303258000000ABAAAA2A38
:105750001F85EB51D80D00202020252032752020F8
:1057600000000000252035642E2530327500000031
:10577000252033750000000070B52DED068B84B038
:10578000002808BFFDA024D0016A00291FBFC169FD
:1057900000298169002908BFFE481AD082680025C7
:1057A000002A40F3928000BF05EB4503026803EB3B
:1057B000C50302EB8304D4F800C0A2889CF80860FB
:1057C000082E80F0D180DFE806F007071E314E6218
:1057D000899B08F0D3FA6AE08E5C227D96429CBFDA
:1057E000227CB2420BD9237D227C3146EAA008F00C
:1057F000C5FA04B04FF0FF30BDEC068B70BDDCF88D
:10580000042016705CE08E5C227D96429CBF227C58
:10581000B242F4D9237D227C3146EAA008F0AEFAE8
:1058200004B04FF0FF30BDEC068B70BD0A44B2F9F6
:105830000060B4F914209642DCBFB4F91020B242E3
:105840000DDDB4F91430B4F910203146D2A008F0BF
:1058500095FA04B04FF0FF30BDEC068B70BDDCF85C
:10586000042016802CE00A441688A28A96429CBF27
:10587000228AB242F3D9A38A228A3146D1A008F003
:105880007DFA04B04FF0FF30BDEC068B70BD0A44CA
:10589000D3781668626963F31F669642DCBF22699B
:1058A000B2420ADDD4E904233146BBA025E004B0AE
:1058B0004FF0FF30BDEC068B70BDDCF804201660A5
:1058C00082686D1CAA423FF76FAF4269C06908F059
:1058D0008DFC04B00020BDEC068B70BD0A44D3786B
:1058E0001668626963F31F6696429CBF2269B242E2
:1058F000E3D9D4E904233146B2A008F03FFAD6E751
:105900000A4494ED050AD378126863F31F6208EE27
:10591000102AB4EEC08AF1EE10FA0BDC94ED040A02
:10592000B4EEC08AF1EE10FA24BFDCF8042082ED58
:10593000008AC5D260690BF067F841EC1A0B206948
:105940000BF062F841EC190B18EE100A0BF05CF842
:1059500041EC100B8DED02AB8DED009B53EC102B49
:10596000A3A008F00BFAA2E79CF80810ABA008F07F
:1059700005FA9CE7F0B587B004002CD0206A002817
:105980001FBFE0690028A269002A2BD0412063696B
:10599000E1680AF096FCD4E905104AF2A552FCF73A
:1059A000E5FC0026002800F07480A1A008F0E6F9CC
:1059B000D4E904134120A2690AF083FCD4E905105C
:1059C0004AF2A552FCF7D2FC98B1A7A008F0D6F98C
:1059D00007B0701EF0BD69A008F0D0F907B04FF015
:1059E000FF30F0BDAA4808F0C9F907B04FF0FF300A
:1059F000F0BDD4E904134120226A0AF062FC4AF2A5
:105A0000A5526169206AFCF7B1FC18B1A1A008F0A9
:105A1000B5F92DE041206269E1680AF057FC4120A8
:105A20006369226AE1680AF056FC60690025002873
:105A300029DDE0680123411902AA41200AF041FC56
:105A400020690123411901AA41200AF03AFC9DF87E
:105A500008009DF80410884211D0C0B20090E068A0
:105A60009DF804204319206941198F4808F086F9F0
:105A70008EA008F083F907B04FF0FF30F0BD6069E9
:105A80006D1CA842D5DC93A008F078F991A008F02D
:105A900075F92046FFF770FE30B19AA008F06EF954
:105AA00007B04FF0FF30F0BD002C32D06069002508
:105AB00000285EDDE0680123411904AA41200AF0B4
:105AC00000FC20690123411902AA41200AF0F9FBD8
:105AD0009DF810009DF8081088424BD0C0B200908D
