:020000040802F0
:10000000F073002059DF020861DF020863DF020895
:1000100065DF020867DF020869DF020800000000F0
:100020000000000000000000000000006BDF02087C
:100030006DDF0208000000006FDF020871DF0208B8
:1000400073DF020873DF020873DF020873DF020840
:1000500073DF020873DF020873DF020873DF020830
:1000600073DF020873DF020873DF020873DF020820
:1000700073DF020873DF020873DF020873DF020810
:1000800073DF020873DF020873DF020873DF020800
:1000900073DF020873DF020873DF0208812B020896
:1000A00073DF020873DF020873DF020873DF0208E0
:1000B00073DF020873DF020873DF020873DF0208D0
:1000C00073DF020873DF020873DF020873DF0208C0
:1000D00073DF020873DF020873DF020873DF0208B0
:1000E00073DF020873DF020873DF020873DF0208A0
:1000F00073DF0208212C020873DF020873DF020895
:1001000073DF020873DF020873DF020873DF02087F
:1001100073DF020873DF020873DF020873DF02086F
:1001200073DF020873DF020873DF020873DF02085F
:1001300073DF020873DF020873DF020873DF02084F
:1001400073DF020873DF020873DF020873DF02083F
:1001500073DF020873DF0208DB2C0208A32C0208FD
:1001600073DF020873DF020873DF020873DF02081F
:1001700073DF020873DF020873DF020873DF02080F
:1001800073DF020873DF020800F002F800F062F883
:100190000AA090E8000C82448344AAF10107DA45E2
:1001A00001D100F057F8AFF2090EBAE80F0013F0D2
:1001B000010F18BFFB1A43F00103184748EA050076
:1001C00068EA0500103A24BF78C878C1FAD8520707
:1001D00024BF30C830C144BF04680C6070470000C1
:1001E0000023002400250026103A28BF78C1FBD840
:1001F000520728BF30C148BF0B60704766290FF017
:10020000B28264290CF0528375290CF04F8378294F
:100210000CF0888363290DF0048173290DF00981A6
:10022000002070471FB50FF094FA9DE803000DF011
:100230003FFA0DF021FA0400002000210EF0FAFF31
:10024000401C6060002000210FF00AF8E0601FBD34
:1002500010B510BD0DF0B8FB1146FFF7E3FF00F03D
:1002600009F80DF043FE03B4FFF7F2FF03BC0DF0F5
:10027000F7FF000010B503F0B1FA002818BF4FF0E7
:10028000FF3010BD10B5002000BF28B10CA00CF04D
:1002900095FA4FF0FF3010BD10A00CF08FFA00203F
:1002A00010BD10B5002000BF28B114A00CF086FAD4
:1002B0004FF0FF3010BD18A00CF080FA002010BDE8
:1002C000557365722061707020637265617465207A
:1002D0006661696C6564210D0A00000055736572E2
:1002E000206170702063726561746520737563634B
:1002F00065737366756C6C79210D0A0055736572B0
:100300002061707020696E697469616C2066616932
:100310006C6564210D0A0000557365722061707070
:1003200020696E697469616C2073756363657373AA
:1003300066756C6C79210D0A00000000EE490870AA
:100340007047ED490028086814BF40F4807020F41D
:10035000807008607047E8490028086814BF40F4BE
:10036000007020F4007008607047E34900280868B6
:1003700014BF40F4806020F4806008607047DE485D
:10038000016841F4006101607047DB48016841F495
:10039000805101607047D948006810F0004F08BFD5
:1003A0007047D749D7480160D74901607047D348A3
:1003B000016841F0004101607047D44908200A6893
:1003C00012F4803F1CBF012070470A6812F0100F22
:1003D0001CBF052070470A6812F0EF0F1CBF0620F3
:1003E0007047096811F0020F18BF072070470820F6
:1003F000C6490A6812F4803F09D00A68082012F43E
:10040000803FFAD10A6812F0100F04D112E00A6896
:1004100012F0100F01D0052070470A6812F0EF0F9C
:1004200001D006207047096811F0020F08BF70471D
:10043000072070470A6812F0EF0FF2D1096811F037
:10044000020FF5D1704710B504464FF0000C51B1C2
:10045000012908BF4FF4807C05D002290CBF4FF45E
:10046000007C4FF4407CFFF7C2FF082818BF10BD86
:10047000A24B186820F440701860186840EA0C001D
:100480001860186820F0F8001860186844F002013D
:1004900008431860186840F480301860FFF7A7FF21
:1004A000196821F002011960196821F0F80119603A
:1004B00010BD00B503464FF0000CFFF798FF53B195
:1004C000012B08BF4FF4807C05D0022B0CBF4FF4EA
:1004D000007C4FF4407C082818BF00BD874B18688B
:1004E00020F440701860186840EA0C001860186822
:1004F00040F004001860186840F480301860FFF77E
:1005000076FF196821F00401196000BD30B514466A
:100510000546FFF76CFF082818BF30BDDFF8DCC1C7
:10052000DCF8000020F44070CCF80000DCF800009B
:1005300040F44070CCF80000DCF8000040F001000E
:10054000CCF800002C606B60FFF751FFDCF8001066
:1005500021F00101CCF8001030BD10B58C460446E6
:10056000FFF745FF082818BF10BD644B186820F43A
:1005700040701860186840F400701860186840F007
:1005800001001860C4F800C0FFF731FF196821F0BE
:100590000101196010BD10B58C460446FFF727FF16
:1005A000082818BF10BD554B186820F4407018601B
:1005B000186840F480701860186840F001001860F6
:1005C000A4F800C0FFF713FF196821F001011960BA
:1005D00010BD10B50C468446FFF709FF082818BF68
:1005E00010BD464B186820F44070186018681860F9
:1005F000186840F0010018608CF80040FFF7F7FE23
:10060000196821F00101196010BD4148006810F01F
:10061000010F08BF70473F493F4801603F490160F3
:1006200070473B48016841F001010160704700B527
:100630008C460346FFF7DBFE082818BF00BD384A8A
:10064000BCF1000F108814BF98431843108000BD00
:1006500000B50346FFF7CBFE082804BF31480370FE
:1006600000BD134610B58C460446FFF7C0FE0828AF
:1006700018BF10BD2648017801F00F014CEA0101B6
:1006800019432143017010BD21490A7822F00C0260
:100690000A700A781043087070471D48017841F0CD
:1006A00002010170A3E61A480068C0F347107047C2
:1006B0001B48008870471B4900200978AA2918BFE9
:1006C000012070471248007800F00C0070470B4A78
:1006D0000029116814BF084321EA00001060704728
:1006E0000A4A0146002012680A4218BF01207047DA
:1006F0000649086070470000003C0240103C024080
:1007000023016745043C0240AB89EFCD0C3C02401D
:10071000143C02403B2A1908083C02407F6E5D4CA5
:10072000163C0240153C02400020704700207047F4
:1007300011490122087832EA000008700F4A4FF48C
:1007400000710CBF1183518370470D48017841F04F
:1007500080010170FEE70020704770477047012854
:1007600007D0022808BF7047032818BF704700F061
:1007700059B902F08CBB00000000002000200240AC
:10078000140000202DE9F001FE480078FE4F10F023
:10079000020F4FF004064FF00204A7F102054FF0DC
:1007A00000021CBF3C802E8016D0F8484168B1F58D
:1007B000FA7F3FBF491C4160BDE8F0017047F44932
:1007C0000B78002B1CBFBDE8F0017047426003208E
:1007D0000870BDE8F0017047EE48DFF8C0C301685B
:1007E0004B1CED4903609CF80AC091F80A80EC4963
:1007F000B8F1010F06D0BCF1010F18BF3E800BD03D
:100800002C80D2E7BCF1010F03D0B3F57A7FF7D982
:1008100005E0642BF4D902E0B3F57A6FF0D90B68E8
:1008200083F004030B600260EAE7002912BF002A8C
:10083000002070472DE9F04FC0F3CF0600F0070706
:100840000844401EC0F3CF0485B09246984600F09D
:100850000705A64256D10020E91B4A1C8DF800006E
:10086000002A1DDD11F0010F04D18020F8408DF821
:1008700000000120511018BF802211D007EB000C9E
:1008800022FA0CF39DF800400CF1010C22FA0CFC4A
:1008900023434CEA0303801C8DF80030491EEDD140
:1008A0003246012168460E9B03F05AFBBAF1010F54
:1008B0007DD90AEB8A0006EBC000283882B20121FC
:1008C00068460E9B03F04CFBB8F1000F06D1802068
:1008D00020FA07F1E84008438DF800000124AAF14E
:1008E0000105012D63DD00BF04EB840006EBC000B1
:1008F00082B2012168460E9B03F032FB641CA542C4
:10090000F2DC8BE04FF0FF0929FA07F08DF80400C4
:10091000C5F10700039009FA00F08DF8080032468F
:10092000012101A80E9B03F01BFB751CAC420ADDE4
:100930008DF80090AAB2012168460E9B03F010FBCF
:100940006D1CAC42F4DC00232246012102A803F016
:1009500007FBBAF1010F61D90AEB8A0B06EBCB005A
:10096000283882B2012101A80E9B03F0F9FA751C08
:10097000A5420DDA05EBCB00283882B28DF8009045
:10098000012168460E9B03F0EBFA6D1CA542F1DBDA
:1009900004EBCB00283882B2012102A80E9B03F0A1
:1009A000DFFAB8F1000F0BD18020F84000E035E00D
:1009B0008DF804000398012101FA00F08DF8080079
:1009C0000127AAF1010BBBF1010F27DD07EB870A15
:1009D00006EBCA0082B2012101A80E9B03F0C0FA07
:1009E000B8F1000F0FD0751C8DF80090AC420ADDF5
:1009F00005EBCA0082B2012168460E9B03F0B0FAF3
:100A00006D1CAC42F4DC04EBCA0082B2012102A8E6
:100A10000E9B03F0A5FA7F1C5F45D7DB05B00020D5
:100A2000BDE8F08F70B5594D01260024287892B0AA
:100A3000002877D103F02EF82E7001234B220721D6
:100A400041F279600094FFF7F0FE00234B2207216A
:100A500047F2F9200094FFF7E8FE00234B2207211C
:100A60004CF679700094FFF7E0FE0123DF220221AB
:100A70004FF4AA500094FFF7D8FE0123DF22194655
:100A800041F26B500094FFF7D0FE0123DF2219469C
:100A900041F2A3500094FFF7C8FE0123DF2219465C
:100AA00041F203600094FFF7C0FE0123DF221946E4
:100AB00041F24B600094FFF7B8FE0123DF220221D0
:100AC00041F276600094FFF7B0FE01231A464FF41E
:100AD0009C714FF4AA500094FFF7A7FE01231A4619
:100AE0004FF49C714FF42A500094FFF79EFE0123AF
:100AF0001A464FF49C714FF42F500094FFF795FE67
:100B000028A2292105A80BF065FE31484FF001020B
:100B10004FF000010078012805A871D003F0F1F82A
:100B20007F2300E00AE02BA2292105A80BF052FE4A
:100B300000224FF4347105A803F0E3F8A8681428E4
:100B40003ABF401CA860AC60E86804283CBF401C69
:100B5000E86059D3EC60687836EA0000687009D024
:100B60000D48817A0D480129807A74D0012808BF88
:100B70002D2000D020208DF8140001228DF8154082
:100B800011463EE0140000201A0802400400002034
:100B900040000020DC0000202C070020EC0000209A
:100BA0001408024020202020202020202020323045
:100BB00030302D30312D30312030303A30303A3035
:100BC0003020202020202020202020200000000095
:100BD000340000202020414E542053454E534F52A4
:100BE0002020202020205420202825632920202078
:100BF0005120286442292020535420200000000066
:100C00002AE005A803F07DF8072210A91F2003F0B1
:100C1000BDF99DF840009DF8422000F07F009DF84E
:100C200041109DF84330CDE9031002F07F02CDE979
:100C300001329DF8440000909DF8463010A2292111
:100C400005A80BF0C7FD01220C2105A803F059F8F7
:100C500012B0002070BD0EE003F053F87F2310A205
:100C6000292105A80BF0B6FD00224FF4347105A828
:100C700003F047F862E701280CBF2A202B207AE70F
:100C8000253032582D253032582D25303258202528
:100C90003032583A253032583A2530325800000068
:100CA00020CCECCFDF20B4ABB8D0C6F7202020207A
:100CB000CEC2B6C8202825632920C7BFB6C828647D
:100CC000422920D7B4CCAC200000000070B5F64A11
:100CD0000024D2E9051331B18B4209D8F3480BF057
:100CE0006DFD204670BDF2480BF068FD204670BDDA
:100CF000C01C20F0030C0846834288BF0CF1040599
:100D000008D9026812F0030F18BF22F0030003D0C5
:100D10009842F6D3204670BD9A420DD2116899428E
:100D200007D200BF11F0030F03D10A4609689942A8
:100D3000F8D3994208BF0A46111A091F8D4207D2FB
:100D400000EB0C01091D41F0010303600A6008E09B
:100D50006145BCBF026022F00300D9DB42F0010113
:100D60000160001D70BDD04A042906D311F0030FA5
:100D700003D110B110F0030F03D000205061401ECA
:100D800070470144C2E9050101600020704710B5B9
:100D9000C54CC8494FF0D040C4E9050101604FF48B
:100DA0008060FFF793FFA06000281CBF002010BDEB
:100DB000C1A00BF003FD4FF0FF3010BD70B5030074
:100DC00013D0104600220029CCBFC64C70BD00BF16
:100DD0009D5C00F0FF0C8CEA050C521C34F81CC022
:100DE00091428CEA1020F3DC70BDBFA00BF0E6FC52
:100DF0004FF6FF7070BD4FF08040406A70474FF073
:100E00008041496ABE4B0A1A19460020E2FB0310D2
:100E100080097047401A70474FF080414A6A0A3093
:100E2000542358434FF47A73B0FBF3F003282CBFDC
:100E3000C01E70474B6A9B1A9842FBD870474FF010
:100E400080414A6AC0EBC00000EB40004B6A9B1A2D
:100E5000B3EB800FFAD3704770B5051E4FF0000456
:100E600098BF70BD4FF47A70FFF7E9FF641CA5428C
:100E7000F8D870BD70B5051E4FF000048CBFA14EB0
:100E800070BD3046FFF7DBFF641CAC42F9D370BD88
:100E90000021002898BF704700BF491C8842FBD83A
:100EA00070478149D1E90523010006D011F0030FF5
:100EB00003D1914228BF8B4202D893480BF07EBCED
:100EC00051F8040C20F0030041F8040C70472DE9A0
:100ED000FF4F81B010AFDDE91412B7E87004DDE90F
:100EE0000E890198002818BF002914D0B8F1000F0E
:100EF0001CBF039800280ED0002C18BF002E0AD06B
:100F0000029810B1B0F1004F0DD901467FA00BF04F
:100F100055FC00F0C3B874A00BF050FC05B04FF0C6
:100F2000FF30BDE8F08F20682843206008689043B8
:100F30000860744F01E07F1E18D003980068049B7E
:100F40001842F8D1D8F8000010EA090FF3D1086868
:100F50001043086042F21070FFF79AFF039801688F
:100F60000498014208BF76480FD109E075A00BF044
:100F700025FC05B04FF0FF30BDE8F08F401E31D0AA
:100F800003990A6804990A42F8D042F21070FFF7F8
:100F90007FFF002000900298002839D9DDE9000188
:100FA000002711F800B00120FFF772FF2068A84366
:100FB0002060C7F107002BFA00F010F0010F306835
:100FC00014BF40EA0A0020EA0A0030600120FFF75F
:100FD0005FFF206828432060D8F8000010EA090F5E
:100FE00010D107E062A00BF0E9FB05B04FF0FF3035
:100FF000BDE8F08F039801680498014213D07F1C6C
:10100000082FD0D300980299401C00908842C5D385
:10101000306840EA0A0030603A4ED8F8000010EA22
:10102000090F06D01DE03A4659A000990BF0C6FB07
:1010300034E003980168049801422DD00120FFF7A5
:1010400027FF2068A84320600120FFF721FF2068C8
:1010500028432060761E26D0D8F8000010EA090F39
:10106000E7D000990298401AC700102F38BF102708
:1010700000260120FFF70CFF2068A8432060012014
:10108000FFF706FF206828432060761CBE42F0D39D
:1010900005B00020BDE8F08F4BA0AAE005B04FF0EE
:1010A000FF30BDE8F08FA3E0180000202CFC020800
:1010B000E8FB0208000010686275666665725F7082
:1010C00075626C6963204D616C6C6F634C6F775314
:1010D000706565644D656D206661696C65640D0AB7
:1010E00000000000DCF9020866756E6374696F6EBB
:1010F00020656E7472696573206572726F7200008C
:10110000C3300CC340420F0078FC02086670676170
:101110005F70726F6772616D5F6C656E74683D259C
:1011200075206578636565642073636F706520283A
:10113000302C30783830303030303030755D210030
:101140003F420F006670676120494E49545F42205C
:101150006F7220444F4E45206C6F77206465746534
:101160006374206F76657274696D652100000000FC
:10117000494E49545F422068696768206465746518
:101180006374206F76657274696D652100000000DC
:101190004670676120627974655B25755D206269C0
:1011A000745B25755D20646F776E6C6F616420657C
:1011B00072726F722C20494E49545F4220676F74DF
:1011C0006F206C6F772100004670676120646F7735
:1011D0006E6C6F6164206572726F722C20494E498B
:1011E000545F4220676F746F206C6F77210000009E
:1011F000F9A00BF0E3FA51E770B5FFF7FCFDFE4CE8
:10120000FE4DE168401AA8420DD32068401C2060C2
:1012100001F5A03000F50260E060FFF7ECFDE16849
:10122000401AA842F1D221682069091AB1F57A7FE3
:101230000AD36168491C6160216800F57A70091A57
:10124000B1F57A7FF5D220612068B0F5FA6F38BF2A
:1012500070BD0120EA49087070BD2DE9F041002BF6
:1012600018BF002A22D015680026002D02BF1E706C
:101270000846BDE8F08108464FF0000C6F1E64463A
:10128000002F0CDD10F80C500A2D18BF03F80C507D
:1012900012D000BF0CF1010C641CBC45F2DB03F85A
:1012A0000C602044C2F800C0BDE8F081D5A00BF06E
:1012B00085FA0020BDE8F081BCF1000F13DD03EBDF
:1012C0000C0515F8015C0D2D04D1ACF1010CBCF13D
:1012D000000F08DD03EB0C0515F8015C5C2D08BF61
:1012E000ACF1010CD6D0641CD9E710B5FFF766FD50
:1012F00010BD2DE9FF4FC9B01E46DDE95605499ADC
:10130000DDF86091002A1CBF1768002F40D000292B
:101310001CBF4B9A002A3BD0002E1CBF0028002D7A
:1013200036D0B9F1000F3BD0419000208846449060
:101330004090B94240F22C81DFF8BCA209F00100D4
:10134000CDF81C01A8EB0700401C4390B0F5806F5E
:1013500084BF4FF480604390306843AA401C3060E3
:1013600039460120DAF80830FFF777FF070018BF89
:10137000DAF808001CD00178202914BF0929401C84
:10138000F9D011F0FF0F00F000812F2915D018E0DF
:10139000A2A00BF013FA4DB04FF0FF30BDE8F08F74
:1013A000A5A00BF00BFA4DB04FF0FF30BDE8F08F69
:1013B000A6A031680BF002FA23E041782F2900F053
:1013C000E4804FF48072694606F01EFC4290684645
:1013D0004B990BF009FD0028419809D041684098CD
:1013E000814219DC419831684268A1A000F0D3B86D
:1013F00043684098834209D00246AAA031680BF0A6
:10140000DDF94DB04FF0FF30BDE8F08F499807602F
:101410004DB00020BDE8F08F0024B9F1000FCABF25
:10142000DDF81CB14FF0000BBBF1000F0BDD00BF6E
:1014300004EB440055F8201068460BF0D5FCB8B119
:10144000641CA345F4DC5C46CB4511DA04EB440B89
:10145000684655F82B100BF0C7FC48B105EB8B0024
:10146000C16868460BF0C0FC48B1A41CA145EDDC86
:101470004C4506D16A4696A0316800F08CB8641CD1
:10148000F6E741984FF480736A460168409800EB94
:10149000400001EBC00B4098401C409004EB44001E
:1014A00005EB8000CBF8000094480178944850F890
:1014B0002100429906F00FFC38B19048017890481D
:1014C00050F821208FA0316865E068460BF067FB7B
:1014D000401CFFF7FBFB040024D068460BF05FFBC9
:1014E000421C694620460BF054FC6846CBF810407D
:1014F0000BF055FB401CFFF7E9FB040015D06846D4
:101500000BF04DFB401C469068460BF048FB014633
:1015100022466846469B06F08AF900280ADA85A02A
:10152000316804E09048316801E090A031680BF028
:1015300045F966E7CBF80C404FF480736A469AA0F1
:10154000429906F0C8FB48BB9DF8000030B36846DE
:101550000BF025FB401CFFF7B9FB0400E2D0684606
:101560000BF01DFB421C694620460BF012FCCBF829
:10157000144045AB06228EA0429903F022FA0028BF
:1015800014BF00204598CBF80800B8453FF6DAAE06
:101590008AA0449A4B990BF011F932E70020CBF85E
:1015A0001400E6E72DE9FF4FC9B01E46DDE95605F8
:1015B000499ADDF86091002A1CBF1768002F09D0F6
:1015C00000291CBF4B9A002A04D0002E1CBF002803
:1015D000002D0FE146E10000465047415F444F4E69
:1015E00045206869676820646574656374206F7658
:1015F000657274696D6521001800002020480100A3
:101600003C00002066756E6374696F6E20656E74B1
:10161000727973206572726F7221000066756E6355
:1016200074696F6E20656E74727973206572726F63
:1016300072210D0A000000004E6F207369676E6111
:101640006C20646566696E65210D0A00446576202C
:101650006366672072656164206C696E65206572DF
:10166000726F7221206C696E653A25640D0A000064
:10167000446576436667204C25643A7365637469F4
:101680006F6E206974656D206E756D2077696C6C66
:101690002067726561746572207468616E202564CC
:1016A0000D0A0000446576436667204C25643A7352
:1016B000656374696F6E206974656D206E756D2049
:1016C0006572726F72202564213D25640D0A000049
:1016D000446576436667204C25643A7369676E619A
:1016E0006C5F646566696E652022257322206669D9
:1016F0006E64206661696C65640D0A003400002028
:10170000AC000020446576436667204C25643A6748
:101710006574206B6579776F7264202225732220AF
:10172000636F6E74656E74206661696C6564210D0B
:101730000A000000446576436667204C25643A70D1
:101740005F7369676E616C5F62696E6172792D3E6D
:101750006465736320656E636F64696E672066619C
:10176000696C65640D0A000018FD02084465764343
:101770006667204C25643A705F7369676E616C5FC1
:1017800062696E6172792D3E64657363204D616C90
:101790006C6F634C6F7753706565644D656D206643
:1017A00061696C65640D0A0072656D61726B0000A1
:1017B000696E76697369626C6500000070617273AE
:1017C0006520222573222073656374696F6E20661D
:1017D00061696C65642C2073656374696F6E5F70FA
:1017E000617273655F7374617475733D25640D0A6E
:1017F0000000000036D0B9F1000F3CD0419000202D
:10180000884644904090B94240F24E81DFF858A596
:1018100009F00100CDF81C01A8EB0700401C439023
:10182000B0F5806F84BF4FF480604390306843AA66
:10183000401C306039460120DAF80830FFF70DFD12
:10184000070018BFDAF808001ED00178202914BF5D
:101850000929401CF9D011F0FF0F00F022812F2937
:1018600018D01BE0AFF24C200AF0A8FF4DB04FF0AB
:10187000FF30BDE8F08FAFF240200AF09FFF4DB07F
:101880004FF0FF30BDE8F08FAFF2402031680AF032
:1018900095FF25E041782F2900F003814FF48072F5
:1018A000694606F0B1F9429068464B990BF09CFAF4
:1018B000002841980AD04168409881421BDC419839
:1018C0004268AFF25420316800F0F2B843684098A3
:1018D00083420AD00246AFF2342031680AF06EFF2C
:1018E0004DB04FF0FF30BDE8F08F499807604DB024
:1018F0000020BDE8F08F0024B9F1000FCABFDDF869
:101900001CB14FF0000BBBF1000F0ADD04EB4400EB
:1019100055F8201068460BF067FAB8B1641CA3456F
:10192000F4DC5C46CB4511DA04EB440B684655F811
:101930002B100BF059FA48B105EB8B00C1686846D3
:101940000BF052FA50B1A41CA145EDDC4C4507D177
:101950006A46AFF28420316800F0AAB8641CF5E74B
:1019600041984FF480736A4601684098C0EBC0000C
:1019700001EB800B4098401C409004EB440005EBC9
:101980008000CBF80000F9480178F94850F82100B0
:10199000429906F0A0F940B1F4480178F44850F8B3
:1019A0002120AFF2A020316882E068460BF0F7F802
:1019B000401CFFF78BF9040059D068460BF0EFF894
:1019C000421C694620460BF0E4F96846CBF8144007
:1019D0000BF0E5F8401CFFF779F9040012D06846D7
:1019E0000BF0DDF8401C469068460BF0D8F8014635
:1019F00022466846469B05F01AFF002805DADDA05E
:101A000031682DE0E8A031682AE04FF480736A461F
:101A1000CBF81040AFF27020429906F05CF910BB91
:101A20009DF80000F8B168460BF0B9F8401CFFF7CC
:101A30004DF904001BD068460BF0B1F8421C694612
:101A400020460BF0A6F9CBF8184000BF4FF4807386
:101A50006A46E4A0429906F03EF958B1E3A0316825
:101A60000AF0ACFE3CE70020CBF81800EEE7EB48AC
:101A70003168F5E7042269460BF108000BF089F99B
:101A800000248BF80C4045AB0622AFF2DC204299D3
:101A900002F097FF002812BFCBF804404598CBF81E
:101AA0000400B8453FF6B8AEAFF2F020449A4B9927
:101AB0000AF084FE14E72DE9F04FADF5137DD84808
:101AC0000390C178812904D0D6A00AF077FE00F0F7
:101AD000C7BE006820F07F44D948844288BFD9A09F
:101AE0000BD8E04845F65A2204F10E010390FFF7A7
:101AF000FCFB002818BFDCA003D00AF05FFE00F05A
:101B0000AFBE9A4DFF20012328702A4604214120B0
:101B100003F0EAFF28780026032810D3D8A00AF0A3
:101B20004DFE01232A4648F20401412003F0DCFF68
:101B30002878032803D3DDA00AF040FE2E70DFF8DA
:101B400028A203994FF4806BCDF824B20F1989AA0B
:101B50000120DAF80830FFF780FB0390002808BF67
:101B6000E0A0CAD02A788999DAF8080005F0F6FDD5
:101B7000002818BFE2A0C0D1012088907B484660B1
:101B80000398874240F2B486DFF89493E54D99F8C4
:101B9000000000F0010090900399781A401C8A9090
:101BA000B0F5806F88BFCDF828B288988AAA401C0B
:101BB00088900120DAF80830FFF74FFB03900028E7
:101BC00018BFDAF808000CD00178202914BF0929C1
:101BD000401CF9D011F0FF0F00F086862F290BD0A2
:101BE0000EE0AFF2985088990AF0E8FD0DF5137DEC
:101BF0004FF0FF30BDE8F08F41782F2900F0748658
:101C00004FF4807204A905F0FFFF584C0646207976
:101C100010F0010F04D1C4A104A80BF0E5F830B115
:101C2000207910F0020F40F0168300F00FBB4FF444
:101C3000807304AA3146C1A006F04DF8002840F098
:101C400025860022114604A80AF038FFBC4E002861
:101C5000B06008BFBBA000F03B832C210AF09AFDC6
:101C6000306078B300208C900120DDF80C808690E5
:101C7000474540F2AB8200BFA7EB0800401C8790AD
:101C8000B0F5806F88BFCDF81CB2889887AA401C39
:101C9000889041460120DAF80830FFF7DEFA5FEA63
:101CA000000818BFDAF8080017D00178202914BFFF
:101CB0000929401CF9D011F0FF0F00F084822F2970
:101CC00011D014E0FFE7A5A088990AF077FD0DF583
:101CD000137D4FF0FF30BDE8F08FAFF29060889930
:101CE0000AF06CFD66E141782F2900F06C824FF418
:101CF000807244A905F088FF0090A3A144A80BF0CE
:101D000073F8A8B1A5A144A80BF06EF800288C4880
:101D100004BF0668A44824D081688698814221DCEB
:101D200087488268AFF2B86088990AF047FD41E1C0
:101D30008348869982688A4206D08368AFF29C60A5
:101D4000869A889900F004BA0021C1604FF40041DE
:101D50000161891F7A4802F0CFFE002800F03E8220
:101D600024E179E130E10000180000203400002077
:101D7000AC000020446576436667204C25643A70C9
:101D80005F7369676E616C5F616E616C6F672D3E3A
:101D90006465736320656E636F64696E6720666156
:101DA000696C65640D0A0000446576436667204CE3
:101DB00025643A705F7369676E616C5F616E616C18
:101DC0006F672D3E64657363204D616C6C6F634C6F
:101DD0006F7753706565644D656D206661696C65EC
:101DE000640D0A00756E6974000000004465764356
:101DF0006667204C25643A676574206B6579776F58
:101E000072642022756E69742220636F6E74656E31
:101E100074206661696C6564210D0A005CFD02082E
:101E200000000E084465762063666720747970654B
:101E3000206973206572726F72210D0A0000000024
:101E400072FF010044657620636667206C656E67EB
:101E5000746820636865636B206572726F72210D10
:101E60000A00000080000E08446576206366672043
:101E7000637263206973206572726F72210D0A00AC
:101E80004C616E677561676520697320756E6B6E56
:101E90006F772C20747279206261636B7570206C8F
:101EA000616E6775616765210D0A00004261636BB1
:101EB0007570206C616E677561676520697320615C
:101EC0006C736F20756E6B6E6F772C207573652049
:101ED00064656661756C74206C616E6775616765B9
:101EE000210D0A004465762063666720726561648F
:101EF000206C696E65206572726F72210D0A000098
:101F000055746638546F537973456E636F646549D1
:101F10006E6974616C206661696C6564210D0A00EC
:101F200010F9020868F802083C53797374656D5023
:101F30006172616D65746572000000004E756D0020
:101F40006C0D002053657474696E6773206279703C
:101F5000617373206D6F6465210D0A0044657643DB
:101F60006667204C25643A73657474696E675F73A5
:101F7000797374656D2063616C6C6F632066616951
:101F80006C65640D0A0000003C2F53797374656D15
:101F9000506172616D657465720000006C616E67FE
:101FA0007561676500000000DCFB0208EDA000BF62
:101FB0000AF004FCF6A088990AF000FC0DF5137DE8
:101FC0004FF0FF30BDE8F08FD9F800000024002862
:101FD000CABF909E0026002E0BDD00BF04EB44001C
:101FE00055F8201044A80AF0FFFED8B1641CA642A0
:101FF000F4DCD9F800003446864213DA04EB4406D8
:1020000044A855F826100AF0EFFE58B105EB8600FB
:10201000C16844A80AF0E8FE60B1D9F80000A41C29
:10202000A042EBDCD9F80000844205D144AAE5A027
:10203000889926E0641CF5E7EF480168869800EB74
:10204000400202EBC00001EB80068698401C86909F
:1020500004EB440005EB80003060E8484FF48073E7
:1020600044AA0178E64850F82100009905F033FEB3
:1020700050B1E2480178E24850F82120AFF67C10D8
:1020800088990AF09BFB95E744A80AF088FD401C5C
:10209000FEF71CFE040000F09E8044A80AF07FFDBD
:1020A000421C44A920460AF074FE44A874620AF057
:1020B00076FD401CFEF70AFE040012D044A80AF088
:1020C0006EFD401C8F9044A80AF069FD014622462F
:1020D00044A88F9B05F0ABFB002807DAC9A08899BC
:1020E00001E0D4A088990AF069FB63E74FF480739C
:1020F00044AA3462AFF21430009905F0ECFD18B137
:10210000AFF218308899EEE7042244A906F11800CE
:102110000AF03FFE002434778DAB0622AFF6701034
:10212000009902F04EFC002812BFB4608D98B06098
:10213000306806F110030099027ACCA002F041FC4D
:1021400000283068027A06D044ABC9A0DDF820121E
:102150000AF034FB2EE706F11403D3A0009902F035
:1021600030FC00283068027A03D044ABCFA08899B5
:10217000EEE706F10C03DBA0009902F022FC28B187
:10218000306844AB8899027AD8A0E1E74FF48073B5
:1021900044AAAFF6EC10009905F09DFDC8B99DF872
:1021A0001001B0B144A80AF0FAFC401CFEF78EFD05
:1021B000040010D044A80AF0F2FC421C44A92046B6
:1021C0000AF0E7FDB46247453FF656ADD6A08C99BC
:1021D00089E7B462F7E7E1A0889984E7864802F0CE
:1021E00025F950B38448012391AAC168412003F026
:1021F0007BFC9DF84402FF2818BFE7487FF4D8AE67
:10220000E6A00AF0DBFA7C4802F016FB002818BFB3
:10221000F1A07FF4CDAE784803F0E0FB002818BFB2
:10222000F3A07FF4C5AEF8A00AF0C8FA4FF4FA7034
:10223000FEF712FEFEF789FAFEE77048CDF80C8033
:10224000416841F00101416000F04EBBFCA104A8CF
:102250000AF0CAFD20B1207910F0040F4BD145E0FF
:102260004FF4807304AA3146AFF2303005F033FDED
:10227000002840F00B830022114604A80AF01EFC3F
:10228000F14E0028706008BFF0A021D01C210AF098
:1022900081FA306000B3F54888ABF6A20168F448D3
:1022A0000096CDE90101394603A8FFF77BF9002824
:1022B00004BF606840F0020000F0D882F0A0889966
:1022C0000AF07CFA0DF5137D4FF0FF30BDE8F08F7A
:1022D0000AF074FA00F008BBF4A088990AF06EFACC
:1022E0000DF5137D4FF0FF30BDE8F08FF9A104A884
:1022F0000AF07AFD20B1207910F0080F2FD125E2E5
:102300004FF4807304AA3146AFF2D03005F0E3FCFD
:10231000002840F0BB820022114604A80AF0CEFB40
:10232000F04E0028706008BFEFA0D1D01C210AF049
:1023300031FA306090B1F54888ABF6A20168F448F4
:102340000096CDE90101394603A8FFF72BF90028D3
:1023500004BF606840F0040002D0E3E1ECE1FAE180
:1023600084E2000073797374656D20736574746919
:102370006E6720656570726F6D2073706163652094
:10238000616C6C6F63206661696C65640D0A0000A6
:10239000446576436667204C25643A5379737465C7
:1023A0006D506172616D65746572207365637469E7
:1023B0006F6E207061727365206661696C65640D73
:1023C0000A000000446576436667204C25643A7332
:1023D000657474696E675F73797374656D5F646546
:1023E00066696E6520222573222066696E64206608
:1023F00061696C65640D0A006C0D002034000020DA
:10240000AC000020446576436667204C25643A7032
:102410005F73657474696E672D3E646573632065D0
:102420006E636F64696E67206661696C65640D0A2E
:1024300000000000446576436667204C25643A70CE
:102440005F73657474696E672D3E64657363204DB8
:10245000616C6C6F634C6F7753706565644D656D2F
:10246000206661696C65640D0A0000006D696E008C
:10247000446576436667204C25643A676574206D31
:10248000696E2076616C756520747970653D256490
:10249000206661696C6564212C207374723D22256D
:1024A00073220D0A000000006D61780044657643D8
:1024B0006667204C25643A676574206D61782076E4
:1024C000616C756520747970653D2564206661696D
:1024D0006C6564212C207374723D222573220D0AD1
:1024E0000000000064656661756C740044657643A5
:1024F0006667204C25643A6765742064656661757B
:102500006C742076616C756520747970653D256406
:10251000206661696C6564212C207374723D2225EC
:1025200073220D0A000000007061727365206F6EE7
:10253000652073656374696F6E206661696C65649C
:102540002C2073656374696F6E5F70617273655F71
:102550007374617475733D25640D0A004465764398
:102560006667204C25643A705F73657474696E67A2
:102570002D3E646573635F75746638204D616C6CC5
:102580006F634C6F7753706565644D656D20666150
:10259000696C65640D0A0000A0FD02084465766957
:1025A000636520706F776572206F6E206669727345
:1025B000742074696D652C20616E6420736176658A
:1025C0002073657474696E677320746F2064656628
:1025D00061756C74210D0A0073657474696E6720EF
:1025E00073617665206661696C6564210000000096
:1025F00073657474696E6720636865636B206661D8
:10260000696C65642100000053617665206465662D
:1026100061756C742073657474696E67732073756B
:102620006363657373210D0A5265626F6F74696E1F
:1026300067206465766963652E2E2E0D0A00000002
:102640003C416E616C6F67007C0000205369676ECF
:10265000616C20416E616C6F672062797061737389
:10266000206D6F6465210D0A00000000C8F90208A2
:1026700014F902083C2F416E616C6F670000000086
:10268000446576436667204C25643A416E616C6F01
:10269000672073656374696F6E2070617273652063
:1026A0006661696C65640D0A00000000446576434C
:1026B0006667204C25643A616E616C6F675F677274
:1026C0006F75702063616C6C6F63206661696C6507
:1026D000640D0A003C53656C66446961676E6F73F4
:1026E00065000000840000205369676E616C205310
:1026F000656C662D446961676E6F736520627970E1
:10270000617373206D6F6465210D0A00CCF90208B6
:1027100020F902083C2F53656C66446961676E6F4F
:102720007365000075A088990AF048F80DF5137DCF
:102730004FF0FF30BDE8F08F7CA088990AF03EF89A
:102740000DF5137D4FF0FF30BDE8F08F83A104A895
:102750000AF04AFB20B1207910F0100F46D140E07A
:102760004FF4807304AA3146AFF6300005F0B3FA97
:1027700000286FD10022114604A80AF09FF97C4E70
:102780000028706008BF7BA03FF4A2AD18210AF0BA
:1027900001F83060D8B18148814988AB0068009663
:1027A000CDE901107FA2394603A8FEF7A2FD00285B
:1027B00004BF606840F0080058D07FA0889909F0F5
:1027C000FDFF0DF5137D4FF0FF30BDE8F08F87A0C2
:1027D000889909F0F3FF0DF5137D4FF0FF30BDE848
:1027E000F08F8FA104A80AF0FFFA20B1207910F031
:1027F000200F79D13CE04FF4807304AA3146AFF644
:10280000C40005F068FA28BB0022114604A80AF0AB
:1028100055F9864E0028706008BF85A03FF458AD7A
:10282000182109F0B7FF3060A8B18848884988AB03
:1028300000680096CDE9011086A2394603A8FEF78C
:1028400058FD002804BF606840F010000ED084A03E
:1028500088993EE01AE08DA0889909F0AFFF00BF8B
:102860000DF5137D4FF0FF30BDE8F08F60603BE069
:1028700091A104A80AF0B8FA70BB4FF4807304AABF
:102880003146AFF6481005F026FA10B18DA08899B0
:102890001FE00022114604A80AF010F9934E002808
:1028A000706008BF92A03FF413AD182109F072FFC9
:1028B000306090B19748984988AB00680096CDE9A0
:1028C000011096A2394603A8FEF713FD40B196A069
:1028D000889909F073FFC3E706E09EA08899F8E79E
:1028E000606840F020006060039887423FF654A97A
:1028F0000DF5137D0020BDE8F08F000044657643A0
:102900006667204C25643A53656C66446961676E5E
:102910006F73652073656374696F6E207061727385
:1029200065206661696C65640D0A00004465764344
:102930006667204C25643A73656C665F64696167FD
:102940006E6F73655F67726F75702063616C6C6F1B
:1029500063206661696C65640D0A00003C53656C18
:1029600066446961676E6F736542696E00000000BE
:102970008C0000205369676E616C2053656C662D76
:10298000446961676E6F73652042696E2062797079
:10299000617373206D6F6465210D0A00D0F9020820
:1029A000A4F902083C2F53656C66446961676E6F39
:1029B000736542696E000000446576436667204C8B
:1029C00025643A53656C66446961676E6F7365424E
:1029D000696E2073656374696F6E207061727365D0
:1029E000206661696C65640D0A00000044657643E9
:1029F0006667204C25643A73656C665F646961673D
:102A00006E6F73655F62696E5F67726F757020636A
:102A1000616C6C6F63206661696C65640D0A00000F
:102A20003C42696E496E707574000000940000208D
:102A300042696E20696E707574206279706173737B
:102A4000206D6F6465210D0A00000000D4F90208B2
:102A5000B0F902083C2F42696E496E70757400002F
:102A6000446576436667204C25643A42696E496E38
:102A70007075742073656374696F6E207061727312
:102A800065206661696C65640D0A000044657643E3
:102A90006667204C25643A62696E5F696E70757472
:102AA0005F67726F75702063616C6C6F6320666125
:102AB000696C65640D0A00003C42696E4F75747064
:102AC00075740000446576436667204C25643A6758
:102AD0006574206B6579776F726420224E756D2264
:102AE000206661696C65640D0A0000009C0000208E
:102AF0005369676E616C2062696E206F75747075C2
:102B00007420627970617373206D6F6465210D0AA2
:102B100000000000D8F90208BCF902083C2F426905
:102B20006E4F757470757400446576436667204C0B
:102B300025643A42696E4F757470757420736563CD
:102B400074696F6E207061727365206661696C656F
:102B5000640D0A00446576436667204C25643A623A
:102B6000696E5F6F75747075745F67726F757020D2
:102B700063616C6C6F63206661696C65640D0A004B
:102B80002DE9F041FEF737F94FF0E0250746D5F87B
:102B9000840140F40050C5F88401FEF72DFB634E1C
:102BA000307810F0010F18BFFDF7D8FD60480068BD
:102BB0006049C0F5007008805F4C6079B0B9E17879
:102BC000012041B9217831B1E070D5F8081241F007
:102BD0008001C5F80812217941B9617831B12071BD
:102BE000D5F8080240F04000C5F808023078A0701F
:102BF00052480068E060307810F0800F08BFFDF7A1
:102C000097FD3846FEF7FBF8E0612169814238BF45
:102C100020614B48016841F040010160BDE8F0814E
:102C200070B5FEF7E9FA414D287810F0010F18BF92
:102C300000F08AF83E4800683E49C0F50070088000
:102C40003D4C6079C0B9E27801214FF0E02042B9F3
:102C5000227832B1E170D0F8082242F08002C0F848
:102C60000822227942B9627832B12171D0F8081273
:102C700041F04001C0F808122878A0702F48006881
:102C8000E060287810F0800F08BFFDF751FD0020AC
:102C900020612C48018A21F00301018270BD704738
:102CA000704770B5FEF7A7F8234C0546E088411C35
:102CB0001E48E180007810F0010F1CBF2078FDF75E
:102CC0004EFD2846FEF79BF820626169814238BFBD
:102CD000606100202070E07070BD70B5FEF78BF869
:102CE000154C05462089411C10482181007810F0C0
:102CF000010F1CBF6078FFF7D3FF2846FEF77FF86F
:102D0000A061616A814238BF6062002060702071FA
:102D100070BD094841790029FCD101214171002091
:102D200070470549002048717047000014000020DA
:102D30008C640240BA000020400000201C000020EB
:102D4000143C0140002000402DE9F001F6480779CD
:102D50000126C024F54DF64BF64900224FB1092F4C
:102D60001ED084460A2FDCF800C020D01A2F2DD1A7
:102D700038E0D1F88CC0CCF5007CA0F814C093F8F2
:102D800000C0BCF1000F27D1B0F814C0C78AACEB6B
:102D9000070CCCF3080CBCF1000F18BF1E701BE031
:102DA000D1F8A0C04CF0010CC1F8A0C00EE04F68F3
:102DB00017F4001F10D0BCF800C034EA0C0C0BD183
:102DC000D1F80CC04CF4741CC1F80CC090F804C0CD
:102DD0000CF1010C80F804C0877ADFF85CC3012F86
:102DE00011D107E0ACF800204FF0040CA5F800C0AA
:102DF0000271F1E7C768DCF80080A8EB0707B7F5B8
:102E0000FA6F88BF8272CD48077937B1092F12D087
:102E10000A2F15D01A2F20D133E0496CC1F500716B
:102E200081821978E1B9818AC48A091BC905C90D53
:102E300018BF1E7014E00B6F43F001030B670CE02A
:102E40004B6813F0200F0BD003681B8834EA030390
:102E500006D1CB6843F03D03CB600179491C017179
:102E6000817A01291CBFBDE8F0017047C168DCF818
:102E70000030591AB1F5FA6F88BF8272BDE8F001CF
:102E8000704701680A80202129800271E8E72DE956
:102E9000F84FFDF7B0FF0090A3480646818AC28A2A
:102EA000891AC905C90D1CBF417A002903D001291F
:102EB00008BF04F007FBB6F81E34C027002B18BF6C
:102EC00006F5A4687CD07CDDB3F5803F98BF964AB8
:102ED00077D810790028FCD1B3F5007F58DDA3F531
:102EE0000074002C51DDDFF84C9202F5077A4FF0A8
:102EF000010B00BFB4F5007FA8BF4FF4007C02DADD
:102F0000B4F1000C0BDD41460023654602EB030ED5
:102F100011F8010B5B1C8EF81C026D1EF6D1D9F85E
:102F2000A00010F0010F0AD0D9F8A00020F0010095
:102F3000C9F8A000D9F8A00010F0010FF4D1C9F829
:102F4000ACA0C9F8A4C0D9F80C0040F47410C9F8BA
:102F50000C001068018837EA01011CBF11790029B3
:102F6000F8D10021018082F804B0107A10B97448B9
:102F700004210180D9F8A00040F00100C9F8A000A8
:102F8000A4EB0C04E044002CB4DC4FF4007301E02B
:102F9000002B09DD00201946141818F801CB401C3D
:102FA00084F81CC2491EF7D1624800BFD0F8A410B3
:102FB0000029FBD1D0F8A01011F0010F0DD001E0D5
:102FC00021E01DE0D0F8A01021F00101C0F8A01010
:102FD000D0F8A01011F0010FF1D102F50771C0F87F
:102FE000AC10C0F8A430C16841F47411C160117A0A
:102FF00000297DD0D0F8A01041F00101C0F8A01048
:103000000020A6F81E040098FDF7F9FE4D4948601F
:10301000096881423CBF4B490860FDF7ECFE009017
:1030200046480646818AC28A891AC905C90D1CBF4D
:10303000417A002903D0012908BF04F043FAB6F809
:103040001E14002918BF06F5A4687DD07DDDB1F5FA
:10305000803F98BF394C78D820790028FCD1B1F551
:10306000007F74DDA1F50079B9F1000F59DDDFF8BB
:10307000C4C004F5077A8346B9F5007FA8BF4FF4B2
:10308000007302DAB9F100030BDD414600221D4650
:1030900004EB020E11F8010B521C8EF81C026D1E7F
:1030A000F6D1DCF8700010F0010F0AD0DCF87000E7
:1030B00020F00100CCF87000DCF8700010F0010F77
:1030C000F4D1CCF87CA0CCF87430DCF80C0040F0E3
:1030D0003D00CCF80C002068018837EA01011CBFD4
:1030E00021790029F8D1A0F800B00120207100E07A
:1030F00002E0207A48B905E001201071104904204F
:1031000008807DE70E4920200880DCF8700040F040
:103110000100CCF87000A9EB03099844B9F1000F45
:10312000AADC4FF4007114E0EC000020181C0240EF
:103130004000002000600240180000202C07002002
:103140001A1C0240680000202FE02BE0FFE7002956
:103150000ADD00204FEA0102231818F801CB401CB9
:1031600083F81CC2521EF7D1FE48426F002AFCD1E0
:10317000026F12F0010F07D0026F22F00102026706
:10318000026F12F0010FF7D104F50772C2674167B1
:10319000C16841F03D01C160217A91B1016F41F0F8
:1031A000010101670020A6F81E040098FDF727FE24
:1031B000ED49C8608A68824238BF88600020BDE857
:1031C000F88F01202071E94920200880EAE72DE9E5
:1031D000F041E748E74901240160C48000250572F9
:1031E0004472052602278661077445748474E2A040
:1031F00009F0E4FAE948EA490160C48005724472C2
:103200008661077445748474E6A009F0D7FA00203B
:10321000BDE8F08170B550B1817C044608290AD31D
:10322000E9A009F0CBFA00BF4FF0FF3070BDF1A06C
:1032300009F0C4FAF8E72068A0F18042B2F58832BC
:103240001CBFA0F18042B2F58A3203893AD1F04A1C
:1032500032F811108B4218BF002900D00181607C28
:1032600021688007800C08822068818921F4B0558C
:10327000217C012908BF45F4B05503D0022908BFBD
:1032800045F4A0558189A9420DD021790029FCD1AE
:10329000818921F00C0121F4005181810520FDF785
:1032A000DBFD206885810020E072A06905283CBF15
:1032B0000520A06104D3D749814238BF0846A061E8
:1032C000002070BDD44A32F811108B4218BF00297B
:1032D000C5D0C3E72DE9F05FD048A54D006840F0A8
:1032E000C101CE4841F400110160DFF83483D8F801
:1032F000000040F40030C8F80000CA4804210180F2
:10330000C9480068C84920F0300040F0100008604B
:10331000081D0068091D20F004000860081D0168F0
:1033200041F030010160DFF804934FF4C050A9F878
:10333000000009F1020B4FF4006AABF800A0BC4892
:10334000016821F0707141F0A0710160001D0168F9
:1033500021F4C0510160001D016841F070710160ED
:10336000B44E306820F0F00040F0A000306070688B
:1033700020F00C007060B06840F0F000B060306A7F
:1033800020F47F4040F4EE403062764CD4F8880060
:1033900010F0010F0BD000BFD4F8880020F001001E
:1033A000C4F88800D4F8880010F0010FF4D1286820
:1033B000001DC4F8900005F11C00C4F894004FF4FF
:1033C0000070C4F88C009C48C4F888000320C4F83E
:1033D0009C00E06840F47460E060D4F8A00010F055
:1033E000010F0AD0D4F8A00020F00100C4F8A0001A
:1033F000D4F8A00010F0010FF4D12868001DC4F823
:10340000A80005F50770C4F8AC000120C4F8A400BA
:103410008A48C4F8A0000720C4F8B400E06840F46B
:103420007410E0602968C02088822868002707821D
:1034300028680780296842F20C008881D4F8880047
:1034400040F00100C4F88800D4F8A00040F001006A
:10345000C4F8A0002846FFF7DDFE40B178A009F0CF
:10346000ADF97FA009F0AAF9781EBDE8F09F297A8E
:103470004FF48050002919BFA9F800A0ABF8000054
:10348000A9F80000ABF800A07CA009F097F9634907
:1034900042480A6842F0810242F400120A60D8F8F9
:1034A000001041F40021C8F80010316821F00F012C
:1034B00041F00A013160716821F003017160B16867
:1034C00041F00F01B160316A21F0FF0141F0880144
:1034D0003162544920220A8053490A6822F440622A
:1034E00042F480620A60091D0A6822F020020A6024
:1034F000091D0A6842F440620A60216C11F0010F54
:1035000007D0216C21F001012164216C11F0010F21
:10351000F7D10168091DA16400F11C01E1644FF4B9
:10352000007161644449216403216165A16841F42B
:103530007411A160216F11F0010F07D0216F21F0EC
:1035400001012167216F11F0010FF7D10168091DF9
:10355000A16700F50771E1670121616737492167BC
:1035600007219DE000600240680000201A1C024014
:10357000EC0000200044004020202020556172749F
:10358000322063726561746520737563636573735C
:1035900066756C6C79210D0A000000002C07002074
:1035A000004C00402020202055617274342063724A
:1035B00065617465207375636365737366756C6CA0
:1035C00079210D0A00000000626175645F72617408
:1035D000653D2564206578636565642074686520B1
:1035E000616C6C6F7765642073636F7065210D0A81
:1035F0000000000066756E6374696F6E20656E74FE
:10360000727973206572726F72210D0A00000000DA
:1036100032FE0208C027090022FE020830380240AC
:1036200040380240181C0240001C0240181802409A
:103630000018024000000240000503084004000892
:10364000557064617465207561727434207365749B
:1036500074696E6773206661696C6564210D0A0088
:1036600020202020556172743220696E697469616E
:103670006C206661696C6564210D0A0020202020A1
:10368000556172743220696E697469616C2073755A
:10369000636365737366756C6C79210D0A000000B5
:1036A000C4F88410E16841F03D01E1600268C02186
:1036B000918201680F8201680F80026842F20C015A
:1036C0009181216C41F001012164216F41F00101E0
:1036D0002167FFF79FFD50B1AFF29C0009F06EF833
:1036E00019A009F06BF84FF0FF30BDE8F09F1DA066
:1036F00009F064F80020BDE8F09F10B52248FFF7FC
:1037000089FD28B121A009F059F84FF0FF3010BD14
:103710001D484FF4805390F808C02548C114821CFE
:10372000BCF1000F19BF0180138003801180214874
:10373000FFF770FD002808BF10BD1FA009F03EF87C
:103740004FF0FF3010BD0000202020205561727422
:103750003420696E697469616C206661696C6564A6
:10376000210D0A0020202020556172743420696EDA
:10377000697469616C207375636365737366756CD6
:103780006C79210D0A000000EC0000202020202090
:1037900055617274322073657474696E6773206842
:1037A000616E646C65206572726F72210D0A000093
:1037B000181802402C070020202020205561727428
:1037C000342073657474696E67732068616E646C0D
:1037D00065206572726F72210D0A000002F016FDFD
:1037E00048B137A008F0EAFF3DA008F0E7FF00BFAE
:1037F00004F05EF9FCE740A008F0E0FF434808F061
:10380000DDFF43A008F0DAFF4DA008F0D7FF3F48E6
:1038100008F0D4FFFCF736FD48B153A008F0CEFF06
:103820002FA008F0CBFF00BF04F042F9FCE7FEF741
:1038300042F940B153A008F0C1FF29A008F0BEFF33
:1038400004F036F9FCE756A008F0B8FFFCF729FDB4
:1038500048B145A008F0B2FF21A008F0AFFF00BFBB
:1038600004F026F9FCE754A008F0A8FF33A008F004
:10387000A5FF57A008F0A2FF5C494FF40070088034
:103880005B4801780029FCD05A48017841F00101D9
:1038900001705948402101605848D0F8802142F415
:1038A0000002C0F88021026842F40002026054481D
:1038B00001600BA008F082FF04F0FAF8FCE70000BA
:1038C00053797374656D20686172647761726520E5
:1038D000696E697469616C206661696C6564210058
:1038E0005B4170704044656E677875652059616E04
:1038F0005D203D3E20000000486172647761726582
:10390000207265616479210D0A00000044FE0208FE
:10391000232053797374656D20436F6D70696C65F6
:103920002054696D65203A2044656320323320328B
:103930003031352031393A33313A35360D0A00000D
:10394000232053797374656D20417574686F7220FC
:103950002020202020203A2044656E67787565205D
:1039600059616E0D0A0000004170706C69636174EA
:10397000696F6E204E4557206661696C6564210D44
:103980000A00000052264420436F6E66696E67206D
:103990007061727365206661696C6564210D0A004F
:1039A00052264420436F6E66696E672072656164BB
:1039B00079210D0A000000004170706C6963617428
:1039C000696F6E207265616479210D0A0000000044
:1039D000456E7465722075736572206170706C69D4
:1039E000636174696F6E210D0A0D0A001A040240AA
:1039F0003C00002014000020143C014000E100E0E5
:103A0000003C01402DE9F05FDFF810A40825914645
:103A10008846AAF800500AF102064FF4005BA6F8A7
:103A200000B0FF4FC143C9B2798338832C0334807F
:103A30003220FDF7F1F9AAF800403220FDF7ECF949
:103A4000B9F1000F1AD0B8F1000F1CD03580002555
:103A5000B9F1000F12D900BF18F80500C143C9B26F
:103A60007983388334803220FDF7D6F9AAF80040F4
:103A70003220FDF7D1F96D1CA945EDD8AAF800B0A8
:103A80000020BDE8F09FE7A008F098FE4FF0FF305F
:103A9000BDE8F09F2DE9F04F85B000208DF80000C3
:103AA0008DF801004FF4165B022269464620FFF7AD
:103AB000A9FFDA4F4FF0080AA7F800A0BE1C4FF488
:103AC00000503080DFF85883BD20A8F81A0042204B
:103AD000A8F818004FF40049A6F800903220FDF72E
:103AE0009BF9A7F800903220FDF796F9A6F800A000
:103AF0000025FF24A8F81A40A6F800903220FDF710
:103B00008BF9A7F800903220FDF786F9681C85B282
:103B10005D45EFD34FF4005BA7F800B080208DF82F
:103B2000000025208DF801004FF416550222694649
:103B30004620FFF767FFA7F800A0A6F800B0BD2059
:103B4000A8F81A004220A8F81800A6F80090322021
:103B5000FDF762F9A7F800903220FDF75DF9A6F8AD
:103B600000A04FF0000A00BFA8F81A40A6F8009085
:103B70003220FDF751F9A7F800903220FDF74CF9FB
:103B80000AF101001FFA80FAAA45EDD3A7F800B0A8
:103B900005B00020BDE8F08F10B5A94884B010240E
:103BA00004800520FDF758F99C4804801420FDF797
:103BB00046F90822A3494020FFF724FF0A22A24920
:103BC0004420FFF71FFF0122A0495A20FFF71AFFE8
:103BD00001229F495B20FFF715FF02229D495D20CE
:103BE000FFF710FF01229C495920FFF70BFF00222D
:103BF00011464C20FFF706FF00208DF800008DF8DD
:103C00000100022269464620FFF7FCFEFFF742FF53
:103C100004B0002010BD2DE9FF4F85B00C460028F0
:103C200050D0002C02BF002009B0BDE8F08F05463F
:103C30008DF80020100A8DF8010002226946462006
:103C4000FFF7E0FEDFF8D4814FF0080AA8F800A0E3
:103C500008F102094FF4005BA9F800B0704EBD20D6
:103C60007083422030834FF40047A9F8007032205F
:103C7000FDF7D2F8A8F800703220FDF7CDF8A9F8CA
:103C800000A008984FF0000A20B3002C14D900BF00
:103C900015F80A007083C143C9B23183A9F80070D6
:103CA0003220FDF7B9F8A8F800703220FDF7B4F81B
:103CB0000AF1010A5445EBD8A8F800B009B0002079
:103CC000BDE8F08F57A008F079FD09B04FF0FF3044
:103CD000BDE8F08F002CEFD915F80A00C143C9B236
:103CE00071833083A9F800703220FDF795F8A8F8A9
:103CF00000703220FDF790F80AF1010A5445EBD824
:103D0000DAE72DE9F84F9146070019D038780026F8
:103D10000D46002800F02181B95D80297CD3BC19B3
:103D20006278802A44D24DA008F048FD60784FF0B8
:103D3000000400284FF0FF008DF8000007D014E0C9
:103D400038A008F03BFD4FF0FF30BDE8F88F04EBE2
:103D5000840005EBC00082B24B4601216846FFF7A4
:103D60005AFF641C102CF2DBF7E004EB840105EB36
:103D7000C10082B24B4601216846FFF74CFF641C2C
:103D8000102CF2DB05F108001FFA80F8FF208DF8F7
:103D90000000002404EB840008EBC00082B24B4614
:103DA00001216846FFF737FF641C102CF2DB94E01A
:103DB00021886FF0A002A1F1A100C0B202EB112294
:103DC000C0EB0013D2B203EB401002EB40004FEA0D
:103DD00040182A4840456ED229A008F0EFFCFF2089
:103DE000AA46CB468DF800005FF0000404EB840087
:103DF0000AEBC00082B25B4601216846FFF70BFF69
:103E0000641C102CF2DB681C1FFA80FAFF20CB46E2
:103E10008DF80000002441E063E04CE0181C0240F3
:103E20000020024066756E6374696F6E20656E7463
:103E3000727973206572726F72210D0A00000000A2
:103E40001A1C0240DE020708E702070895FE020876
:103E500097FE02089BFE020899FE0208556B6E6FE2
:103E600077206368617261637465722030782530F1
:103E70003258253032580D0A0000000020FE0300A1
:103E8000556B6E6F77206368617261637465722031
:103E90003078253034580D0A0000000004EB84000F
:103EA0000AEBC00082B25B4601216846FFF7B3FE11
:103EB000641C102CAFDBDFF8B0A0002404EB8401FD
:103EC00005EBC10082B208EB440050444B4602218E
:103ED000FFF7A1FE641C102CF0DBA81C85B2B01CFF
:103EE00036E0202938BF2021A1F1200000064FEA4A
:103EF0001058B8F5BE6F16D91CA008F05FFCFF2063
:103F0000AA46CB468DF800005FF0000404EB840065
:103F10000AEBC00082B25B4601216846FFF77BFED8
:103F2000641C102CF2DBDFF860A0002404EB840199
:103F300005EBC10082B208EB040050444B4601215E
:103F4000FFF769FE641C102CF0DB681C85B2701C46
:103F500086B2B85D00287FF4DFAE0020BDE8F88FA0
:103F600002F5165292B256E69D040308556B6E6F29
:103F700077206368617261637465722030782530E0
:103F800032580D0A000000009DFE02082DE9F74F8F
:103F90000299002902BF002003B0BDE8F08F01990B
:103FA00029B140280BD383A008F008FC12E08AA0B6
:103FB00008F004FC03B04FF0FF30BDE8F08F029929
:103FC00001290CD91F2818BF3F2808D001468BA013
:103FD00008F0F4FB03B04FF0FF30BDE8F08FDFF8DE
:103FE00044B2DBF8001041F48031CBF800108E4E63
:103FF000802535804021B71E3980812141EA40006B
:1040000000F0FF0800244FF480794FF0010A00BF50
:104010000AFA04F010EA080F0CBFA6F80090A7F8FF
:1040200000903220FCF7F8FE3D803220FCF7F4FED1
:104030003580601CC4B2082CEAD3DBF8000020F401
:104040004030CBF8000002984FF00008002888BFED
:10405000DFF8D8B124D900BF4FF000094C46322018
:10406000FCF7DAFEDBF8000010F4807F05D00AFAD6
:1040700004F040EA090000F0FF093D803220FCF71F
:10408000CBFE3580601CC4B2082CE8D3019800F840
:10409000089008F1010000F0FF0802988045DBD38A
:1040A0004020308003B00020BDE8F08F2DE9F74FAD
:1040B0000299002902BF002003B0BDE8F08F0199EA
:1040C00029B140280BD33BA008F078FB12E042A0B6
:1040D00008F074FB03B04FF0FF30BDE8F08F029999
:1040E00001290CD91F2818BF3F2808D0014643A03A
:1040F00008F064FB03B04FF0FF30BDE8F08F494992
:104100000A6842F480320A60474E8025358040219B
:10411000B71E398045EA400000F0FF0900244FF047
:10412000010A4FF4807800BF0AFA04F010EA090F80
:104130000CBFA6F80080A7F800803220FCF76CFEC8
:104140003D803220FCF768FE3580601CC4B2082C2C
:10415000EAD302984FF0000900281FD901980024E3
:1041600010F809B00AFA04F010EA0B0F0CBFA6F819
:104170000080A7F800803220FCF74EFE3D80322000
:10418000FCF74AFE3580601CC4B2082CEAD309F162
:10419000010000F0FF0902988145DFD34020308004
:1041A0002048016821F44031016003B00020BDE8DF
:1041B000F08F000052746320726561642061646452
:1041C000722063616E6E6F7420657863656564202C
:1041D0003633210D0A000000527463207265616459
:1041E0002066756E6374696F6E20656E7472797384
:1041F000206572726F72210D0A00000052746320F4
:104200006164647220253032752063616E207265AE
:104210006164206F6E652062797465206F6E6C79C1
:10422000210D0A00000402401A040240100402405A
:1042300070B52DED068B84B0002808BFFDA024D0FA
:10424000016A00291FBFC16900298169002908BFCF
:10425000FE481AD082680025002A40F3928000BFF1
:1042600005EB4503026803EBC50302EB8304D4F8B6
:1042700000C0A2889CF80860082E80F0D180DFE89A
:1042800006F007071E314E62899B08F097FA6AE034
:104290008E5C227D96429CBF227CB2420BD9237D4C
:1042A000227C3146EAA008F089FA04B04FF0FF30D2
:1042B000BDEC068B70BDDCF8042016705CE08E5CF3
:1042C000227D96429CBF227CB242F4D9237D227C7F
:1042D0003146EAA008F072FA04B04FF0FF30BDECAE
:1042E000068B70BD0A44B2F90060B4F914209642FE
:1042F000DCBFB4F91020B2420DDDB4F91430B4F9CA
:1043000010203146D2A008F059FA04B04FF0FF3027
:10431000BDEC068B70BDDCF8042016802CE00A444E
:104320001688A28A96429CBF228AB242F3D9A38AF7
:10433000228A3146D1A008F041FA04B04FF0FF3094
:10434000BDEC068B70BD0A44D3781668626963F3CE
:104350001F669642DCBF2269B2420ADDD4E904231B
:104360003146BBA025E004B04FF0FF30BDEC068B1A
:1043700070BDDCF80420166082686D1CAA423FF70D
:104380006FAF4269C06908F029FC04B00020BDECA1
:10439000068B70BD0A44D3781668626963F31F66A2
:1043A00096429CBF2269B242E3D9D4E90423314644
:1043B000B2A008F003FAD6E70A4494ED050AD378D0
:1043C000126863F31F6208EE102AB4EEC08AF1EEA1
:1043D00010FA0BDC94ED040AB4EEC08AF1EE10FA88
:1043E00024BFDCF8042082ED008AC5D260690BF09E
:1043F0003FF941EC1A0B20690BF03AF941EC190B2B
:1044000018EE100A0BF034F941EC100B8DED02ABF5
:104410008DED009B53EC102BA3A008F0CFF9A2E781
:104420009CF80810ABA008F0C9F99CE7F0B587B07C
:1044300004002CD0206A00281FBFE0690028A26970
:10444000002A2BD041206369E16801F04DFBD4E9DB
:1044500005104AF2A552FCF7B1FC0026002800F036
:104460007480A1A008F0AAF9D4E904134120A2693C
:1044700001F03AFBD4E905104AF2A552FCF79EFC84
:1044800098B1A7A008F09AF907B0701EF0BD69A016
:1044900008F094F907B04FF0FF30F0BDAA4808F0DB
:1044A0008DF907B04FF0FF30F0BDD4E9041341207F
:1044B000226A01F019FB4AF2A5526169206AFCF7F1
:1044C0007DFC18B1A1A008F079F92DE041206269C6
:1044D000E16801F064FC41206369226AE16801F04F
:1044E00064FB60690025002829DDE068012341198B
:1044F00002AA412001F0F8FA20690123411901AA1A
:10450000412001F0F1FA9DF808009DF8041088425E
:1045100011D0C0B20090E0689DF8042043192069D2
:1045200041198F4808F04AF98EA008F047F907B002
:104530004FF0FF30F0BD60696D1CA842D5DC93A040
:1045400008F03CF991A008F039F92046FFF770FE19
:1045500030B19AA008F032F907B04FF0FF30F0BD4B
:10456000002C32D06069002500285EDDE068012360
:10457000411904AA412001F0B7FA20690123411929
:1045800002AA412001F0B0FA9DF810009DF8081031
:1045900088424BD0C0B20090E0689DF808204319D3
:1045A000206941198C4808F009F98CA008F006F937
:1045B000002C08BF1FA005D08E4F3878002818BFE8
:1045C0008DA006D008F0FAF833E11AA008F0F6F84A
:1045D0002FE101203870D4E90412412001F0DFFB03
:1045E000D4E904134120E26901F0DFFA6069002593
:1045F00000281CDDE0680123411905AA412001F0D3
:1046000073FA20690123411903AA412001F06CFAD1
:104610009DF814009DF80C10884209D0C0B200909B
:10462000E068431920694119F0E002E1FCE0F9E09B
:10463000F3E0000046756E6374696F6E20656E74FA
:104640007279206572726F72210D0A00700307087B
:1046500073657474696E672076616C75653D256459
:104660002C206578636565642073636F7065205BDB
:1046700025642C25645D0D0A0000000073657474C8
:10468000696E672076616C75653D25752C206578AF
:10469000636565642073636F7065205B25752C25E9
:1046A000755D0D0A0000000073657474696E672003
:1046B00076616C75653D25662C206578636565645B
:1046C0002073636F7065205B25662C25665D0D0A7F
:1046D00000000000756E6B6E6F7720747970653D19
:1046E00025640D0A0000000041637469766520733B
:1046F000657474696E672073656374696F6E206397
:104700006865636B20637263206661696C65642110
:1047100020547279206261636B7570210D0A00006C
:104720004261636B75702073657474696E67206392
:104730006865636B2063726320616C736F206661D0
:10474000696C6564210D0A003C0407084261636BD3
:10475000757020637263206572726F72210D0A009A
:10476000B4030708526573746F72652073657474BF
:10477000696E67732066726F6D206261636B75701E
:10478000206661696C6564210D0A000053756363DE
:1047900065737366756C6C7920726573746F72657E
:1047A0002073657474696E67732066726F6D206222
:1047B00061636B7570210D0A0000000052756E2058
:1047C00073657474696E67207570646174652065C3
:1047D00072726F72210D0A00F40207085472792078
:1047E000746F206261636B757020616761696E210F
:1047F0000D0A00007800002053746F726167652015
:1048000069732062757379210D0A00009DF80C20F0
:10481000ED4807F0D3FF3E700BE060696D1CA842C5
:104820003FF7E8AE3E7004E060696D1CA8423FF7B8
:104830009DAE07B00020F0BDF0B583B004000AD0F3
:10484000E24E307860B1AFF2500007F0B7FF03B02E
:104850006FF00400F0BDAFF2242007F0AFFF83E05B
:10486000226A0027002A1FBFE0690028A0690028EB
:104870003BD041206369E16801F036F960694AF292
:10488000A552811EE069FCF799FA6269E169114459
:1048900001F8020C6269E169000A114401F8010C97
:1048A00041206269E16801F07AFA41206369E269B6
:1048B000E16801F07AF9D4E905324120E16801F0BC
:1048C00013F962690020002AC8BFD4E9061317DD76
:1048D00011F800C01D5CAC450FD0BDA007F06EFF05
:1048E000377003B04FF0FF30F0BDC0A007F066FF97
:1048F000377003B04FF0FF30F0BD401C8242E7DC60
:104900004120216901F04BFAD4E904134120E26906
:1049100001F04BF9D4E904134120A26901F0E4F855
:1049200060690025002827DDE0680123411901AAFC
:10493000412001F0D9F820690123411902AA412040
:1049400001F0D2F89DF804109DF8080081420FD0C4
:10495000C8B20090E0689DF8082043192069411909
:10496000994807F02BFF377003B04FF0FF30F0BDD0
:1049700060696D1CA842D7DC2046FFF759FC3770F0
:1049800003B00020F0BD10B504000ED0206A00284E
:104990001FBFE1690029A06900280CD0626908F0F6
:1049A0001DF92046BDE8104042E49DA007F006FF37
:1049B0004FF0FF3010BDA04807F000FF4FF0FF3070
:1049C00010BD30B591B01C46154600281CBF00290B
:1049D000002C06D040236A4603F07DF930B100F088
:1049E00087B896A007F0EAFE00F082B8082D80F0A4
:1049F0007980DFE805F0041528384C5E646B0022EE
:104A00001146684608F05AF80146022806D391A0DC
:104A100007F0D4FE11B04FF0FF3030BD20705EE0E3
:104A200000221146684608F049F801468030B0F58A
:104A3000807F38BF217052D390A007F0BFFE11B025
:104A40004FF0FF3030BD00221146684608F036F8BE
:104A50000146B0F5807FE1D394A007F0AFFE11B01E
:104A60004FF0FF3030BD00221146684608F026F8AE
:104A7000014600F50040B0F5803F38BF21802ED3BD
:104A800095A007F09BFE11B04FF0FF3030BD002223
:104A90001146684608F012F80146B0F5803F38BF6D
:104AA00020801CD399A007F089FE11B04FF0FF3091
:104AB00030BD00221146684608F000F804E00022EC
:104AC0001146684608F032F8206008E00021684688
:104AD0000AF0CEFA51EC100B0AF0D8FB206011B0AE
:104AE000002030BD2946AFF2144007F067FE00BF3A
:104AF00011B04FF0FF3030BDF0B58C462DED068B78
:104B000085B0050016D0AA6804200021002A24DD03
:104B100001EB41032A6803EBC10302EB830290809F
:104B200013681C7A082C22D2DFE804F00E0E0E1057
:104B300010121212AFF2045007F040FE05B04FF011
:104B4000FF30BDEC068BF0BD401C02E0801C00E095
:104B5000001DAA68491C8A42DADC861C66450CDD09
:104B6000634631467548EA6807F028FE33E110686D
:104B7000017A73A007F022FE2DE1314601206E611B
:104B800007F008FEA86100281BD03146012007F07D
:104B900001FEE861002815D03146012007F0FAFD3A
:104BA0002862002808BF6AA000F0F081280008BF32
:104BB000AFF2805007D0C16900291CBF816900296C
:104BC000DAE0F6E0FEE00CE1F402070878000020ED
:104BD000706172616D6574657220777269746520A9
:104BE0006572726F72210D0A0000000053657474C3
:104BF000696E6773272062756666657273206172DD
:104C000065206E6F7420696E697469616C65642CCF
:104C10002063616E6E6F742073617665210D0A00EA
:104C200046756E6374696F6E20656E747279206567
:104C300072726F72210000007003070866756E6360
:104C400074696F6E20656E747279206572726F720E
:104C50000D0A0000747970653D622073636F7065A2
:104C6000206973205B302C315D2C206275742068C4
:104C70006572652069732025640D0A00747970657A
:104C80003D632073636F7065206973205B2D313243
:104C9000382C3132375D2C2062757420686572655E
:104CA0002069732025640D0A000000007479706586
:104CB0003D75632073636F7065206973205B302CD2
:104CC0003235355D2C206275742068657265206907
:104CD000732025750D0A0000747970653D69207395
:104CE000636F7065206973205B2D33323736382C43
:104CF00033323736375D2C206275742068657265F3
:104D00002069732025640D0A000000007479706525
:104D10003D75692073636F7065206973205B302C6B
:104D200036353533355D2C206275742068657265C3
:104D30002069732025750D0A00000000840407080F
:104D4000756E6B6E6F7720747970653D2564000019
:104D500073657474696E6720686973746F72792003
:104D60006275666665722063616C6C6F6320666154
:104D7000696C65640D0A000008BFF0A031D082683C
:104D80004FF0000C002A40F3D38000BF0CEB4C0224
:104D9000036802EBCC0203EB82042368A2881F7A2B
:104DA000082F80F0EC80DFE807F020202C3A5165D6
:104DB0007487F1A007F002FD05B04FF0FF30BDECA5
:104DC000068BF0BDF5A007F0F9FC05B04FF0FF3001
:104DD000BDEC068BF0BD05B04FF0FF30BDEC068B8F
:104DE000F0BD07F0EBFC00F0D0B8277B237D9F429D
:104DF0009CBF237CBB4210D9237D227C3946F1A085
:104E00002FE0277B237D9F429CBF237CBB4204D99C
:104E1000237D227C3946F6A023E08F5482E0B4F94A
:104E20000C70B4F914309F42DCBFB4F91030BB42AF
:104E300006DDB4F91430B4F910203946F7A010E0BB
:104E40008F54A3890A441B0A53706BE0A789A38A75
:104E50009F429CBF238ABB4206D9A38A228A394635
:104E6000E3A007F0ABFC90E08F54A3890A441B0A2F
:104E7000537057E0E76863699F42DCBF2369BB4218
:104E80000EDD00BFD4E904233946E4A007F096FC08
:104E90007BE0E76863699F429CBF2369BB42F1D80E
:104EA0008F54A3890A441B0A5370E3681B0C937048
:104EB000E3681B0ED37035E094ED03AA94ED050A68
:104EC000B4EEC0AAF1EE10FA06DC94ED040AB4EEDA
:104ED000C0AAF1EE10FA19D260690AF0C9FB41ECE0
:104EE000190B20690AF0C4FB41EC180B1AEE100AEA
:104EF0000AF0BEFB41EC100B8DED029B8DED008B9B
:104F000053EC102BD0A007F059FC3EE0237B8B54D0
:104F1000A3890A441B0A5370E3681B0C9370E3686F
:104F20001B0ED37082680CF1010C62453FF72EAF67
:104F3000FFF77EF9002818BFCEA07FF452AFE869D2
:104F4000C6F307420670E969C6F307204870E969AD
:104F50008A70EB698221D970AB691E70AB69587099
:104F6000A8698270A869C17041206B692A6AE968E2
:104F700000F0BAFD05B00020BDEC068BF0BD206846
:104F8000017AAFF6B00007F019FCC4A007F016FCD8
:104F900021E730B515462DED068B85B038B1826816
:104FA000AA4209DC2946C6A007F008FC64E0AFF677
:104FB0007C1007F003FC5FE0006805EB450202EBA4
:104FC000C50200EB82040A46206890F808C0C8B207
:104FD000BCF1080F80F09580DFE80CF00404182B7A
:104FE00041545B66217D88429CBF227C824240F214
:104FF0008E8000910246237C2946BBA007F0DEFB91
:1050000005B04FF0FF30BDEC068B30BD217D8842EE
:105010009CBF227C82427AD900910246237C294699
:10502000BDA007F0CBFB05B04FF0FF30BDEC068B09
:1050300030BDB4F9140012B28242DCBFB4F91010D2
:10504000914264DD0090B4F910302946A6A007F023
:10505000B5FB05B04FF0FF30BDEC068B30BDA08A2C
:1050600092B282429CBF218A914250D90090238AF9
:105070002946A9A007F0A2FB05B04FF0FF30BDEC18
:10508000068B30BD60698242DCBF2169914206DC3B
:105090003DE0606982429CBF2169914237D900900E
:1050A000294691A0236928E008EE102A94ED050A0C
:1050B000B4EEC08AF1EE10FA06DCD4ED040AB4EEC8
:1050C000E08AF1EE10FA22D210EE100A0AF0D0FABD
:1050D00041EC1A0B20690AF0CBFA41EC190B18EEDF
:1050E000100A0AF0C5FA41EC100B8DED02AB8DED04
:1050F000009B53EC102B294693A007F05FFBBBE706
:1051000005E06146AFF2C83007F058FBB4E705B0E0
:105110000020BDEC068B30BD70B500282DED068B50
:1051200084B008BFAFF6F42007D0016A00291FBF82
:10513000C569002D816900291EE139E15365747448
:10514000696E677327206275666665727320617287
:1051500065206E6F7420696E697469616C65642C7A
:105160002063616E6E6F7420736574207365747450
:10517000696E6773210D0A0073657474696E672028
:1051800072756E206275666665722063616C6C6F05
:1051900063206661696C6564000000007365747467
:1051A000696E6720777269746520627566666572DC
:1051B0002063616C6C6F63206661696C65640D0AC5
:1051C0000000000064656661756C742076616C7522
:1051D000653D25642C206578636565642073636F85
:1051E0007065205B25642C25645D0D0A00000000BD
:1051F00064656661756C74202076616C75653D250B
:10520000752C206578636565642073636F70652015
:105210005B25752C25755D0D0A00000064656661CF
:10522000756C74202076616C75653D25642C206555
:1052300078636565642073636F7065205B25642CFB
:1052400025645D0D0A00000064656661756C74205C
:105250002076616C75653D25662C206578636565F3
:10526000642073636F7065205B25662C25665D0D79
:105270000A00000052756E2073657474696E6720B1
:1052800075706461746520746F2064656661756C07
:1052900074206572726F72210D0A00007365747458
:1052A000696E6720746F2064656661756C74207622
:1052B000616C7565206661696C65640D0A000000AB
:1052C00073657474696E675B25645D2065786365DA
:1052D0006564206D61782073657474696E67206EF3
:1052E000756D2025640D0A0073657474696E675BC3
:1052F00025645D2076616C75653D25642C2065789C
:10530000636565642073636F7065205B25642C257D
:10531000645D0D0A0000000073657474696E675B5C
:1053200025645D2076616C75653D25752C2065785A
:10533000636565642073636F7065205B25752C253C
:10534000755D0D0A0000000073657474696E675B1B
:1053500025645D2076616C75653D25662C20657839
:10536000636565642073636F7065205B25662C251B
:10537000665D0D0A0000000008BFFEA018D081681D
:105380000026002940F3E68006EB4602016802EBA6
:10539000C60201EB82042268B4F804C0117A08291D
:1053A00080F0E280DFE801F007072137597689981D
:1053B00007F004FA61E051680A78217D8A429CBFB7
:1053C000217C91420DD9207D0090237C3146AFF2A3
:1053D000E80007F0F3F904B04FF0FF30BDEC068BA6
:1053E00070BD05F80C2000F0B0B851680A78217D36
:1053F0008A429CBF217C9142F3D9207D0090237C7E
:105400003146AFF2EC0007F0D9F904B04FF0FF30AD
:10541000BDEC068B70BD5168B1F90020B4F91410D1
:105420008A42DCBFB4F9101091420FDDB4F91400C8
:105430000090B4F910303146AFF2541007F0BEF9C5
:1054400004B04FF0FF30BDEC068B70BD05F80C20AA
:10545000110A05EB0C02517077E051680A88A18AA5
:105460008A429CBF218A91420DD9A08A0090238A4A
:105470003146AFF25C1007F0A1F904B04FF0FF30F5
:10548000BDEC068B70BD05F80C20110A05EB0C0273
:1054900051705AE051680A6861698A42DCBF21692B
:1054A000914212DC05EB0C0105F80C20130A4B703D
:1054B000130C8B70120ECA7047E051680A6861695C
:1054C0008A429CBF21699142ECD9606900903146C3
:1054D000AFF2EC1023692BE0516894ED050A91EDD1
:1054E000008A18EE101AB4EEC08AF1EE10FA06DC4B
:1054F00094ED040AB4EEC08AF1EE10FA1BD2606992
:105500000AF0B6F841EC1A0B20690AF0B1F841EC48
:10551000190B18EE100A0AF0ABF841EC100B8DEDE8
:1055200002AB53EC102B8DED009B3146AFF2E8102F
:1055300007F044F9A1E705EB0C0205F80C100B0A83
:1055400053700B0C9370090ED1708168761CB142B8
:105550003FF71AAFC169D0E9052007F03FFB04B05F
:105560000020BDEC068B70BD117AAFF62C0007F061
:1055700025F982E72DE9F04F16462DED068B85B013
:10558000020008BFAFF6547013D0106A00281FBF86
:10559000D06900289369002B08BF76A009D09368D2
:1055A000B34209DC1A463146AFF2EC2007F006F9A7
:1055B0005BE007F003F958E0126806EB460303EBE3
:1055C000C60302EB83040F0E2268B4F804C001F096
:1055D000FF0A92F808B00A46C1F30729C1F3074849
:1055E000CDB2BBF1080F80F0A880DFE80BF0040417
:1055F0001C2D475A6B79217D8D429CBF227CAA428B
:105600000ED90091237C2A463146AFF2243007F0B0
:10561000D5F84FF0FF3005B0BDEC068BBDE8F08F3C
:1056200000F80C504CE0217D8D429CBF227CAA42A8
:10563000F6D90091237C2A463146AFF2243007F098
:10564000BDF84FF0FF30E6E7B4F9141012B28A4209
:10565000DCBFB4F9103093420ADD0091B4F9103088
:105660003146AFF27C3007F0A9F84FF0FF30D2E7B7
:1056700000F80C206044110A417021E0A18A92B226
:105680008A429CBF238A934205D90091238A3146DE
:10569000AFF27C304EE000F80C206044110A4170FB
:1056A0000EE061698A42DCBF2369934210DC00BFCF
:1056B00000F80CA0604480F8019080F80280C77068
:1056C0000020A8E761698A429CBF23699342EFD911
:1056D00000913146AFF2F030236907F06FF8C4E76C
:1056E00008EE102A94ED050AB4EEC08AF1EE10FA25
:1056F00006DCD4ED040AB4EEE08AF1EE10FAD7D25B
:1057000010EE100A09F0B4FF41EC1A0B206909F001
:10571000AFFF41EC190B18EE100A09F0A9FF41EC9C
:10572000100B8DED02AB53EC102B8DED009B314631
:10573000AFF2EC3007F042F897E75946AFF6002099
:1057400007F03CF891E72DE9F04390462DED068BEC
:1057500085B08946040014BFB9F1000F154834D054
:10576000206A00281FBFE0690028A069002808BF40
:1057700000A021E053657474696E67732720627519
:10578000666665727320617265206E6F7420696E43
:10579000697469616C65642C2063616E6E6F74203E
:1057A000736176652073657474696E6773210D0A81
:1057B000000000003446020807D0A268424507DC1A
:1057C00041469FA006F0FAFF7CE006F0F7FF79E083
:1057D000A7A1484607F008FB00280CBF01200020C5
:1057E00008EB4802216802EBC80201EB8205E76979
:1057F0002968AE880024097A082980F0EA80DFE869
:1058000001F00404203E648399AED8B90022114609
:10581000484607F053F9297D02469142A4BF287CEF
:10582000824229DA00912B7C414693A006F0C6FF04
:105830004FF0FF3005B0BDEC068BBDE8F083BC55E2
:1058400076E018B1287B60F30704F8E700221146E0
:10585000484607F033F9297D02469142A4BF287CCF
:10586000824209DA00912B7C4146AFF2545006F097
:10587000A5FF4FF0FF30DDE762F30704DFE7002804
:105880001CBFA88960F30F0404D0200AB919BC55C5
:1058900048704DE000221146484607F00FF9B5F96F
:1058A000141002469142A2BFB5F91000824262F381
:1058B0000F04EADA0091B5F910304146AFF2D85042
:1058C00006F07CFF4FF0FF30B4E700281CBFA8892A
:1058D00060F30F0404D0200AB919BC55487027E0C2
:1058E00000221146484607F0E9F8A98A024691428B
:1058F000A2BF288A824262F30F04ECDA00912B8A5D
:105900004146AFF2EC5061E050BB002211464846E0
:1059100007F0D4F869698842DCBF2B69834215DC43
:10592000B919B855020A4A70020C8A70000EC87084
:1059300000207FE7A0B900221146484607F0F6F89C
:10594000696988429CBF2B698342E9D9009102466C
:105950004146AFF26C602B6906F030FFB2E708B148
:10596000E868DDE70021484609F082FB51EC100BA6
:1059700009F08CFC08EE100A95ED050A18EE100AE5
:10598000B4EEC08AF1EE10FA06DCD5ED040AB4EEEE
:10599000E08AF1EE10FAC3D210EE100A09F068FEA8
:1059A00041EC1A0B286909F063FE41EC190B18EE63
:1059B000100A09F05DFE41EC100B8DED02AB53ECCB
:1059C000102B8DED009B4146AFF2846006F0F6FE91
:1059D00078E7AFF6944006F0F1FE73E738B50400BF
:1059E0001DD0206A00281FBFE0690028A069002898
:1059F0001BD06069002500281FDDE06801234119E4
:105A00006A46412000F070F8E0699DF80010405DA2
:105A100088420ED0012020714FF0FF3038BD214860
:105A200006F0CCFE4FF0FF3038BD1FA006F0C6FEDA
:105A3000F2E760696D1CA842DFDC0020207138BDF0
:105A400073657474696E6720696E6465783D25645A
:105A500020657863656564206D6178207365747472
:105A6000696E67206E756D2025640D0A00000000C8
:105A700064656661756C74007365745B25645D2094
:105A800076616C75653D25642C2065786365656479
:105A90002073636F7065205B25642C25645D0D0A9F
:105AA000000000003446020853657474696E677321
:105AB00027206275666665727320617265206E6F5D
:105AC0007420696E697469616C65642C2063616E11
:105AD0006E6F7420636865636B2073657474696EA0
